{
  "contractName": "Farm",
  "abi": [
    {
      "inputs": [],
      "payable": false,
      "stateMutability": "nonpayable",
      "type": "constructor"
    },
    {
      "constant": true,
      "inputs": [
        {
          "internalType": "uint256",
          "name": "",
          "type": "uint256"
        }
      ],
      "name": "Contracts",
      "outputs": [
        {
          "internalType": "address",
          "name": "business",
          "type": "address"
        },
        {
          "internalType": "address",
          "name": "farmer",
          "type": "address"
        },
        {
          "internalType": "uint256",
          "name": "id",
          "type": "uint256"
        },
        {
          "internalType": "string",
          "name": "crop_name",
          "type": "string"
        },
        {
          "internalType": "uint256",
          "name": "quantity_in_kg",
          "type": "uint256"
        },
        {
          "internalType": "uint256",
          "name": "price_per_kg",
          "type": "uint256"
        },
        {
          "internalType": "uint256",
          "name": "deadline",
          "type": "uint256"
        },
        {
          "internalType": "uint256",
          "name": "totalPrice",
          "type": "uint256"
        },
        {
          "internalType": "uint256",
          "name": "advancedPayment",
          "type": "uint256"
        }
      ],
      "payable": false,
      "stateMutability": "view",
      "type": "function"
    },
    {
      "constant": true,
      "inputs": [
        {
          "internalType": "uint256",
          "name": "",
          "type": "uint256"
        }
      ],
      "name": "CropReqMap",
      "outputs": [
        {
          "internalType": "uint256",
          "name": "id",
          "type": "uint256"
        },
        {
          "internalType": "address",
          "name": "business",
          "type": "address"
        },
        {
          "internalType": "string",
          "name": "crop_name",
          "type": "string"
        },
        {
          "internalType": "uint256",
          "name": "quantity_in_kg",
          "type": "uint256"
        },
        {
          "internalType": "uint256",
          "name": "price_per_kg",
          "type": "uint256"
        },
        {
          "internalType": "uint256",
          "name": "delivery_time",
          "type": "uint256"
        },
        {
          "internalType": "bool",
          "name": "status",
          "type": "bool"
        },
        {
          "internalType": "uint256",
          "name": "totalPrice",
          "type": "uint256"
        },
        {
          "internalType": "uint256",
          "name": "advancedPayment",
          "type": "uint256"
        }
      ],
      "payable": false,
      "stateMutability": "view",
      "type": "function"
    },
    {
      "constant": true,
      "inputs": [],
      "name": "CropReqMapCount",
      "outputs": [
        {
          "internalType": "uint256",
          "name": "",
          "type": "uint256"
        }
      ],
      "payable": false,
      "stateMutability": "view",
      "type": "function"
    },
    {
      "constant": true,
      "inputs": [
        {
          "internalType": "uint256",
          "name": "",
          "type": "uint256"
        }
      ],
      "name": "InspectorMapping",
      "outputs": [
        {
          "internalType": "uint256",
          "name": "id",
          "type": "uint256"
        },
        {
          "internalType": "string",
          "name": "name",
          "type": "string"
        },
        {
          "internalType": "uint256",
          "name": "age",
          "type": "uint256"
        },
        {
          "internalType": "string",
          "name": "designation",
          "type": "string"
        }
      ],
      "payable": false,
      "stateMutability": "view",
      "type": "function"
    },
    {
      "constant": true,
      "inputs": [
        {
          "internalType": "uint256",
          "name": "",
          "type": "uint256"
        }
      ],
      "name": "PaymentReceived",
      "outputs": [
        {
          "internalType": "bool",
          "name": "",
          "type": "bool"
        }
      ],
      "payable": false,
      "stateMutability": "view",
      "type": "function"
    },
    {
      "constant": true,
      "inputs": [
        {
          "internalType": "address",
          "name": "",
          "type": "address"
        }
      ],
      "name": "RegisteredAddressMapping",
      "outputs": [
        {
          "internalType": "bool",
          "name": "",
          "type": "bool"
        }
      ],
      "payable": false,
      "stateMutability": "view",
      "type": "function"
    },
    {
      "constant": true,
      "inputs": [
        {
          "internalType": "address",
          "name": "",
          "type": "address"
        }
      ],
      "name": "RegisteredBusinessMapping",
      "outputs": [
        {
          "internalType": "bool",
          "name": "",
          "type": "bool"
        }
      ],
      "payable": false,
      "stateMutability": "view",
      "type": "function"
    },
    {
      "constant": true,
      "inputs": [
        {
          "internalType": "address",
          "name": "",
          "type": "address"
        }
      ],
      "name": "RegisteredFarmerMapping",
      "outputs": [
        {
          "internalType": "bool",
          "name": "",
          "type": "bool"
        }
      ],
      "payable": false,
      "stateMutability": "view",
      "type": "function"
    },
    {
      "constant": true,
      "inputs": [
        {
          "internalType": "address",
          "name": "",
          "type": "address"
        }
      ],
      "name": "Verification",
      "outputs": [
        {
          "internalType": "bool",
          "name": "",
          "type": "bool"
        }
      ],
      "payable": false,
      "stateMutability": "view",
      "type": "function"
    },
    {
      "constant": true,
      "inputs": [
        {
          "internalType": "uint256",
          "name": "",
          "type": "uint256"
        }
      ],
      "name": "advancedPaymentReceived",
      "outputs": [
        {
          "internalType": "bool",
          "name": "",
          "type": "bool"
        }
      ],
      "payable": false,
      "stateMutability": "view",
      "type": "function"
    },
    {
      "constant": true,
      "inputs": [],
      "name": "businessCount",
      "outputs": [
        {
          "internalType": "uint256",
          "name": "",
          "type": "uint256"
        }
      ],
      "payable": false,
      "stateMutability": "view",
      "type": "function"
    },
    {
      "constant": true,
      "inputs": [
        {
          "internalType": "address",
          "name": "",
          "type": "address"
        }
      ],
      "name": "businessMapping",
      "outputs": [
        {
          "internalType": "address",
          "name": "id",
          "type": "address"
        },
        {
          "internalType": "string",
          "name": "business_name",
          "type": "string"
        },
        {
          "internalType": "string",
          "name": "city",
          "type": "string"
        },
        {
          "internalType": "string",
          "name": "companyRegistrationNumber",
          "type": "string"
        },
        {
          "internalType": "string",
          "name": "GSTnumber",
          "type": "string"
        },
        {
          "internalType": "string",
          "name": "document",
          "type": "string"
        },
        {
          "internalType": "string",
          "name": "email",
          "type": "string"
        }
      ],
      "payable": false,
      "stateMutability": "view",
      "type": "function"
    },
    {
      "constant": true,
      "inputs": [
        {
          "internalType": "uint256",
          "name": "",
          "type": "uint256"
        }
      ],
      "name": "businesses",
      "outputs": [
        {
          "internalType": "address",
          "name": "",
          "type": "address"
        }
      ],
      "payable": false,
      "stateMutability": "view",
      "type": "function"
    },
    {
      "constant": true,
      "inputs": [],
      "name": "contract_admin",
      "outputs": [
        {
          "internalType": "address",
          "name": "",
          "type": "address"
        }
      ],
      "payable": false,
      "stateMutability": "view",
      "type": "function"
    },
    {
      "constant": true,
      "inputs": [],
      "name": "contractsCount",
      "outputs": [
        {
          "internalType": "uint256",
          "name": "",
          "type": "uint256"
        }
      ],
      "payable": false,
      "stateMutability": "view",
      "type": "function"
    },
    {
      "constant": true,
      "inputs": [
        {
          "internalType": "uint256",
          "name": "",
          "type": "uint256"
        }
      ],
      "name": "extensionReq",
      "outputs": [
        {
          "internalType": "bool",
          "name": "farmerReq",
          "type": "bool"
        },
        {
          "internalType": "bool",
          "name": "businessAcceptance",
          "type": "bool"
        },
        {
          "internalType": "uint256",
          "name": "time",
          "type": "uint256"
        }
      ],
      "payable": false,
      "stateMutability": "view",
      "type": "function"
    },
    {
      "constant": true,
      "inputs": [
        {
          "internalType": "address",
          "name": "",
          "type": "address"
        }
      ],
      "name": "farmerMapping",
      "outputs": [
        {
          "internalType": "address",
          "name": "id",
          "type": "address"
        },
        {
          "internalType": "string",
          "name": "name",
          "type": "string"
        },
        {
          "internalType": "uint256",
          "name": "age",
          "type": "uint256"
        },
        {
          "internalType": "string",
          "name": "city",
          "type": "string"
        },
        {
          "internalType": "string",
          "name": "aadharNumber",
          "type": "string"
        },
        {
          "internalType": "string",
          "name": "panNumber",
          "type": "string"
        },
        {
          "internalType": "string",
          "name": "land_document",
          "type": "string"
        }
      ],
      "payable": false,
      "stateMutability": "view",
      "type": "function"
    },
    {
      "constant": true,
      "inputs": [
        {
          "internalType": "uint256",
          "name": "",
          "type": "uint256"
        }
      ],
      "name": "farmers",
      "outputs": [
        {
          "internalType": "address",
          "name": "",
          "type": "address"
        }
      ],
      "payable": false,
      "stateMutability": "view",
      "type": "function"
    },
    {
      "constant": true,
      "inputs": [],
      "name": "farmersCount",
      "outputs": [
        {
          "internalType": "uint256",
          "name": "",
          "type": "uint256"
        }
      ],
      "payable": false,
      "stateMutability": "view",
      "type": "function"
    },
    {
      "constant": true,
      "inputs": [],
      "name": "inspectorsCount",
      "outputs": [
        {
          "internalType": "uint256",
          "name": "",
          "type": "uint256"
        }
      ],
      "payable": false,
      "stateMutability": "view",
      "type": "function"
    },
    {
      "constant": true,
      "inputs": [
        {
          "internalType": "uint256",
          "name": "",
          "type": "uint256"
        },
        {
          "internalType": "uint256",
          "name": "",
          "type": "uint256"
        }
      ],
      "name": "requestMapping",
      "outputs": [
        {
          "internalType": "address",
          "name": "",
          "type": "address"
        }
      ],
      "payable": false,
      "stateMutability": "view",
      "type": "function"
    },
    {
      "constant": true,
      "inputs": [],
      "name": "getBusinessCount",
      "outputs": [
        {
          "internalType": "uint256",
          "name": "",
          "type": "uint256"
        }
      ],
      "payable": false,
      "stateMutability": "view",
      "type": "function"
    },
    {
      "constant": true,
      "inputs": [],
      "name": "getInspectorCount",
      "outputs": [
        {
          "internalType": "uint256",
          "name": "",
          "type": "uint256"
        }
      ],
      "payable": false,
      "stateMutability": "view",
      "type": "function"
    },
    {
      "constant": true,
      "inputs": [],
      "name": "getFarmersCount",
      "outputs": [
        {
          "internalType": "uint256",
          "name": "",
          "type": "uint256"
        }
      ],
      "payable": false,
      "stateMutability": "view",
      "type": "function"
    },
    {
      "constant": true,
      "inputs": [],
      "name": "getCropReqCount",
      "outputs": [
        {
          "internalType": "uint256",
          "name": "",
          "type": "uint256"
        }
      ],
      "payable": false,
      "stateMutability": "view",
      "type": "function"
    },
    {
      "constant": false,
      "inputs": [
        {
          "internalType": "string",
          "name": "name",
          "type": "string"
        },
        {
          "internalType": "uint256",
          "name": "age",
          "type": "uint256"
        },
        {
          "internalType": "string",
          "name": "city",
          "type": "string"
        },
        {
          "internalType": "string",
          "name": "aadharNumber",
          "type": "string"
        },
        {
          "internalType": "string",
          "name": "panNumber",
          "type": "string"
        },
        {
          "internalType": "string",
          "name": "land_document",
          "type": "string"
        }
      ],
      "name": "addFarmer",
      "outputs": [],
      "payable": false,
      "stateMutability": "nonpayable",
      "type": "function"
    },
    {
      "constant": false,
      "inputs": [
        {
          "internalType": "string",
          "name": "_name",
          "type": "string"
        },
        {
          "internalType": "uint256",
          "name": "_age",
          "type": "uint256"
        },
        {
          "internalType": "string",
          "name": "_city",
          "type": "string"
        },
        {
          "internalType": "string",
          "name": "_aadharNumber",
          "type": "string"
        },
        {
          "internalType": "string",
          "name": "_panNumber",
          "type": "string"
        },
        {
          "internalType": "string",
          "name": "_land_document",
          "type": "string"
        }
      ],
      "name": "updateFarmer",
      "outputs": [],
      "payable": false,
      "stateMutability": "nonpayable",
      "type": "function"
    },
    {
      "constant": true,
      "inputs": [],
      "name": "getFarmers",
      "outputs": [
        {
          "internalType": "address[]",
          "name": "",
          "type": "address[]"
        }
      ],
      "payable": false,
      "stateMutability": "view",
      "type": "function"
    },
    {
      "constant": true,
      "inputs": [
        {
          "internalType": "address",
          "name": "i",
          "type": "address"
        }
      ],
      "name": "getFarmerDetails",
      "outputs": [
        {
          "internalType": "string",
          "name": "",
          "type": "string"
        },
        {
          "internalType": "uint256",
          "name": "",
          "type": "uint256"
        },
        {
          "internalType": "string",
          "name": "",
          "type": "string"
        },
        {
          "internalType": "string",
          "name": "",
          "type": "string"
        },
        {
          "internalType": "string",
          "name": "",
          "type": "string"
        },
        {
          "internalType": "string",
          "name": "",
          "type": "string"
        }
      ],
      "payable": false,
      "stateMutability": "view",
      "type": "function"
    },
    {
      "constant": false,
      "inputs": [
        {
          "internalType": "string",
          "name": "business_name",
          "type": "string"
        },
        {
          "internalType": "string",
          "name": "city",
          "type": "string"
        },
        {
          "internalType": "string",
          "name": "companyRegistrationNumber",
          "type": "string"
        },
        {
          "internalType": "string",
          "name": "GSTnumber",
          "type": "string"
        },
        {
          "internalType": "string",
          "name": "document",
          "type": "string"
        },
        {
          "internalType": "string",
          "name": "email",
          "type": "string"
        }
      ],
      "name": "addBusiness",
      "outputs": [],
      "payable": false,
      "stateMutability": "nonpayable",
      "type": "function"
    },
    {
      "constant": false,
      "inputs": [
        {
          "internalType": "string",
          "name": "_business_name",
          "type": "string"
        },
        {
          "internalType": "string",
          "name": "_city",
          "type": "string"
        },
        {
          "internalType": "string",
          "name": "_companyRegistrationNumber",
          "type": "string"
        },
        {
          "internalType": "string",
          "name": "_GSTnumber",
          "type": "string"
        },
        {
          "internalType": "string",
          "name": "_document",
          "type": "string"
        },
        {
          "internalType": "string",
          "name": "_email",
          "type": "string"
        }
      ],
      "name": "updateBusiness",
      "outputs": [],
      "payable": false,
      "stateMutability": "nonpayable",
      "type": "function"
    },
    {
      "constant": true,
      "inputs": [],
      "name": "getBusinesses",
      "outputs": [
        {
          "internalType": "address[]",
          "name": "",
          "type": "address[]"
        }
      ],
      "payable": false,
      "stateMutability": "view",
      "type": "function"
    },
    {
      "constant": true,
      "inputs": [
        {
          "internalType": "address",
          "name": "i",
          "type": "address"
        }
      ],
      "name": "getBusinessDetails",
      "outputs": [
        {
          "internalType": "string",
          "name": "",
          "type": "string"
        },
        {
          "internalType": "string",
          "name": "",
          "type": "string"
        },
        {
          "internalType": "string",
          "name": "",
          "type": "string"
        },
        {
          "internalType": "string",
          "name": "",
          "type": "string"
        },
        {
          "internalType": "string",
          "name": "",
          "type": "string"
        },
        {
          "internalType": "string",
          "name": "",
          "type": "string"
        }
      ],
      "payable": false,
      "stateMutability": "view",
      "type": "function"
    },
    {
      "constant": true,
      "inputs": [
        {
          "internalType": "address",
          "name": "_id",
          "type": "address"
        }
      ],
      "name": "isFarmer",
      "outputs": [
        {
          "internalType": "bool",
          "name": "",
          "type": "bool"
        }
      ],
      "payable": false,
      "stateMutability": "view",
      "type": "function"
    },
    {
      "constant": true,
      "inputs": [
        {
          "internalType": "address",
          "name": "_id",
          "type": "address"
        }
      ],
      "name": "isAdmin1",
      "outputs": [
        {
          "internalType": "bool",
          "name": "",
          "type": "bool"
        }
      ],
      "payable": false,
      "stateMutability": "view",
      "type": "function"
    },
    {
      "constant": true,
      "inputs": [
        {
          "internalType": "address",
          "name": "_id",
          "type": "address"
        }
      ],
      "name": "isBusiness",
      "outputs": [
        {
          "internalType": "bool",
          "name": "",
          "type": "bool"
        }
      ],
      "payable": false,
      "stateMutability": "view",
      "type": "function"
    },
    {
      "constant": true,
      "inputs": [
        {
          "internalType": "address",
          "name": "_id",
          "type": "address"
        }
      ],
      "name": "isVerified1",
      "outputs": [
        {
          "internalType": "bool",
          "name": "",
          "type": "bool"
        }
      ],
      "payable": false,
      "stateMutability": "view",
      "type": "function"
    },
    {
      "constant": false,
      "inputs": [
        {
          "internalType": "address",
          "name": "walletID",
          "type": "address"
        }
      ],
      "name": "Verify",
      "outputs": [],
      "payable": false,
      "stateMutability": "nonpayable",
      "type": "function"
    },
    {
      "constant": false,
      "inputs": [
        {
          "internalType": "string",
          "name": "crop_name",
          "type": "string"
        },
        {
          "internalType": "uint256",
          "name": "quantity_in_kg",
          "type": "uint256"
        },
        {
          "internalType": "uint256",
          "name": "price_per_kg",
          "type": "uint256"
        },
        {
          "internalType": "uint256",
          "name": "deliveryTime",
          "type": "uint256"
        },
        {
          "internalType": "uint256",
          "name": "_total",
          "type": "uint256"
        },
        {
          "internalType": "uint256",
          "name": "_advPayment",
          "type": "uint256"
        }
      ],
      "name": "addCropRequirement",
      "outputs": [],
      "payable": false,
      "stateMutability": "nonpayable",
      "type": "function"
    },
    {
      "constant": true,
      "inputs": [
        {
          "internalType": "uint256",
          "name": "i",
          "type": "uint256"
        }
      ],
      "name": "getCropRequirementBusiness",
      "outputs": [
        {
          "internalType": "uint256",
          "name": "",
          "type": "uint256"
        }
      ],
      "payable": false,
      "stateMutability": "view",
      "type": "function"
    },
    {
      "constant": true,
      "inputs": [
        {
          "internalType": "uint256",
          "name": "i",
          "type": "uint256"
        }
      ],
      "name": "getCropRequirementCropName",
      "outputs": [
        {
          "internalType": "string",
          "name": "",
          "type": "string"
        }
      ],
      "payable": false,
      "stateMutability": "view",
      "type": "function"
    },
    {
      "constant": true,
      "inputs": [
        {
          "internalType": "uint256",
          "name": "i",
          "type": "uint256"
        }
      ],
      "name": "getCropRequirementQuantity",
      "outputs": [
        {
          "internalType": "uint256",
          "name": "",
          "type": "uint256"
        }
      ],
      "payable": false,
      "stateMutability": "view",
      "type": "function"
    },
    {
      "constant": true,
      "inputs": [
        {
          "internalType": "uint256",
          "name": "i",
          "type": "uint256"
        }
      ],
      "name": "getCropRequirementPrice",
      "outputs": [
        {
          "internalType": "uint256",
          "name": "",
          "type": "uint256"
        }
      ],
      "payable": false,
      "stateMutability": "view",
      "type": "function"
    },
    {
      "constant": true,
      "inputs": [
        {
          "internalType": "uint256",
          "name": "i",
          "type": "uint256"
        }
      ],
      "name": "getCropRequirementDelTime",
      "outputs": [
        {
          "internalType": "uint256",
          "name": "",
          "type": "uint256"
        }
      ],
      "payable": false,
      "stateMutability": "view",
      "type": "function"
    },
    {
      "constant": true,
      "inputs": [
        {
          "internalType": "uint256",
          "name": "i",
          "type": "uint256"
        }
      ],
      "name": "getCropRequirementStatus",
      "outputs": [
        {
          "internalType": "bool",
          "name": "",
          "type": "bool"
        }
      ],
      "payable": false,
      "stateMutability": "view",
      "type": "function"
    },
    {
      "constant": true,
      "inputs": [
        {
          "internalType": "uint256",
          "name": "i",
          "type": "uint256"
        }
      ],
      "name": "getCropRequirementTotalPrice",
      "outputs": [
        {
          "internalType": "uint256",
          "name": "",
          "type": "uint256"
        }
      ],
      "payable": false,
      "stateMutability": "view",
      "type": "function"
    },
    {
      "constant": true,
      "inputs": [
        {
          "internalType": "uint256",
          "name": "i",
          "type": "uint256"
        }
      ],
      "name": "getCropRequirementAdvPayment",
      "outputs": [
        {
          "internalType": "uint256",
          "name": "",
          "type": "uint256"
        }
      ],
      "payable": false,
      "stateMutability": "view",
      "type": "function"
    },
    {
      "constant": false,
      "inputs": [
        {
          "internalType": "uint256",
          "name": "i",
          "type": "uint256"
        }
      ],
      "name": "requestContract",
      "outputs": [],
      "payable": false,
      "stateMutability": "nonpayable",
      "type": "function"
    },
    {
      "constant": false,
      "inputs": [
        {
          "internalType": "address payable",
          "name": "farmerAddress",
          "type": "address"
        },
        {
          "internalType": "uint256",
          "name": "i",
          "type": "uint256"
        }
      ],
      "name": "signContract",
      "outputs": [],
      "payable": true,
      "stateMutability": "payable",
      "type": "function"
    },
    {
      "constant": true,
      "inputs": [
        {
          "internalType": "uint256",
          "name": "i",
          "type": "uint256"
        }
      ],
      "name": "getContractBusiness",
      "outputs": [
        {
          "internalType": "address",
          "name": "",
          "type": "address"
        }
      ],
      "payable": false,
      "stateMutability": "view",
      "type": "function"
    },
    {
      "constant": true,
      "inputs": [
        {
          "internalType": "uint256",
          "name": "i",
          "type": "uint256"
        }
      ],
      "name": "getContractFarmer",
      "outputs": [
        {
          "internalType": "address",
          "name": "",
          "type": "address"
        }
      ],
      "payable": false,
      "stateMutability": "view",
      "type": "function"
    },
    {
      "constant": true,
      "inputs": [
        {
          "internalType": "uint256",
          "name": "i",
          "type": "uint256"
        }
      ],
      "name": "getContractId",
      "outputs": [
        {
          "internalType": "uint256",
          "name": "",
          "type": "uint256"
        }
      ],
      "payable": false,
      "stateMutability": "view",
      "type": "function"
    },
    {
      "constant": true,
      "inputs": [
        {
          "internalType": "uint256",
          "name": "i",
          "type": "uint256"
        }
      ],
      "name": "getContractCropName",
      "outputs": [
        {
          "internalType": "string",
          "name": "",
          "type": "string"
        }
      ],
      "payable": false,
      "stateMutability": "view",
      "type": "function"
    },
    {
      "constant": true,
      "inputs": [
        {
          "internalType": "uint256",
          "name": "i",
          "type": "uint256"
        }
      ],
      "name": "getContractQuantity",
      "outputs": [
        {
          "internalType": "uint256",
          "name": "",
          "type": "uint256"
        }
      ],
      "payable": false,
      "stateMutability": "view",
      "type": "function"
    },
    {
      "constant": true,
      "inputs": [
        {
          "internalType": "uint256",
          "name": "i",
          "type": "uint256"
        }
      ],
      "name": "getContractPrice",
      "outputs": [
        {
          "internalType": "uint256",
          "name": "",
          "type": "uint256"
        }
      ],
      "payable": false,
      "stateMutability": "view",
      "type": "function"
    },
    {
      "constant": true,
      "inputs": [
        {
          "internalType": "uint256",
          "name": "i",
          "type": "uint256"
        }
      ],
      "name": "getContractDeadLine",
      "outputs": [
        {
          "internalType": "uint256",
          "name": "",
          "type": "uint256"
        }
      ],
      "payable": false,
      "stateMutability": "view",
      "type": "function"
    },
    {
      "constant": true,
      "inputs": [
        {
          "internalType": "uint256",
          "name": "i",
          "type": "uint256"
        }
      ],
      "name": "getContractTotalPrice",
      "outputs": [
        {
          "internalType": "uint256",
          "name": "",
          "type": "uint256"
        }
      ],
      "payable": false,
      "stateMutability": "view",
      "type": "function"
    },
    {
      "constant": true,
      "inputs": [
        {
          "internalType": "uint256",
          "name": "i",
          "type": "uint256"
        }
      ],
      "name": "getContractAdvPayment",
      "outputs": [
        {
          "internalType": "uint256",
          "name": "",
          "type": "uint256"
        }
      ],
      "payable": false,
      "stateMutability": "view",
      "type": "function"
    },
    {
      "constant": false,
      "inputs": [
        {
          "internalType": "uint256",
          "name": "_i",
          "type": "uint256"
        },
        {
          "internalType": "uint256",
          "name": "_time",
          "type": "uint256"
        }
      ],
      "name": "requestExtension",
      "outputs": [],
      "payable": false,
      "stateMutability": "nonpayable",
      "type": "function"
    },
    {
      "constant": true,
      "inputs": [
        {
          "internalType": "uint256",
          "name": "_i",
          "type": "uint256"
        }
      ],
      "name": "getExtensionInformation",
      "outputs": [
        {
          "internalType": "bool",
          "name": "",
          "type": "bool"
        },
        {
          "internalType": "bool",
          "name": "",
          "type": "bool"
        },
        {
          "internalType": "uint256",
          "name": "",
          "type": "uint256"
        }
      ],
      "payable": false,
      "stateMutability": "view",
      "type": "function"
    },
    {
      "constant": false,
      "inputs": [
        {
          "internalType": "uint256",
          "name": "_i",
          "type": "uint256"
        }
      ],
      "name": "acceptExtension",
      "outputs": [],
      "payable": false,
      "stateMutability": "nonpayable",
      "type": "function"
    },
    {
      "constant": false,
      "inputs": [
        {
          "internalType": "uint256",
          "name": "_i",
          "type": "uint256"
        }
      ],
      "name": "updateContract",
      "outputs": [],
      "payable": false,
      "stateMutability": "nonpayable",
      "type": "function"
    },
    {
      "constant": false,
      "inputs": [
        {
          "internalType": "address payable",
          "name": "_farmer",
          "type": "address"
        },
        {
          "internalType": "uint256",
          "name": "id",
          "type": "uint256"
        }
      ],
      "name": "payRemaining",
      "outputs": [],
      "payable": true,
      "stateMutability": "payable",
      "type": "function"
    },
    {
      "constant": true,
      "inputs": [
        {
          "internalType": "uint256",
          "name": "id",
          "type": "uint256"
        }
      ],
      "name": "isComplete",
      "outputs": [
        {
          "internalType": "bool",
          "name": "",
          "type": "bool"
        }
      ],
      "payable": false,
      "stateMutability": "view",
      "type": "function"
    }
  ],
  "bytecode": "0x60806040526005600d5560006012553480156200001b57600080fd5b5060008054600160a060020a03191633179055604080518082018252600b81527f496e73706563746f7220310000000000000000000000000000000000000000006020808301919091528251808401909352600e83527f54656873696c204d616e6167657200000000000000000000000000000000000090830152620000ad91602d90640100000000620000b3810204565b620001e2565b600e805460019081019182905560408051608081018252838152602080820188815282840188905260608301879052600095865260028252929094208151815591518051919492936200010d93908501929101906200013d565b506040820151600282015560608201518051620001359160038401916020909101906200013d565b505050505050565b828054600181600116156101000203166002900490600052602060002090601f016020900481019282601f106200018057805160ff1916838001178555620001b0565b82800160010185558215620001b0579182015b82811115620001b057825182559160200191906001019062000193565b50620001be929150620001c2565b5090565b620001df91905b80821115620001be5760008155600101620001c9565b90565b61482c80620001f26000396000f3fe6080604052600436106103e0576000357c0100000000000000000000000000000000000000000000000000000000900480639f369aa91161020f578063bf9ede301161012a578063da2aff2a116100bd578063f1f3e5a91161008c578063f1f3e5a9146125f5578063f58f85b51461261f578063f6dc606814612652578063fc88210a14612685576103e0565b8063da2aff2a1461214a578063def936c31461215f578063e250fc7b14612275578063ef492ff61461229f576103e0565b8063d18264e9116100f9578063d18264e914611bea578063d335ccfa14611eac578063d399c54b146120f6578063d85e98e514612120576103e0565b8063bf9ede3014611b55578063c4fecdb614611b7f578063c697615714611b94578063cf2142e614611bbe576103e0565b8063b43b24fe116101a2578063b984c6ec11610171578063b984c6ec146117d6578063bc9e2b6d14611800578063bd75786014611a61578063be5df21414611b2b576103e0565b8063b43b24fe14611723578063b52e333b1461174d578063b8e25c1c14611777578063b9429069146117a3576103e0565b8063aab1418a116101de578063aab1418a146116a5578063ab95a748146116cf578063ab9ef11f146116e4578063af7862811461170e576103e0565b80639f369aa914611341578063a731fb0a14611371578063a8d16640146113a4578063a8f91604146113ce576103e0565b80634a1df9f9116102ff578063883436a11161029257806390db684c1161026157806390db684c1461121d5780639292551a1461125057806392d2473214611280578063941e24261461132c576103e0565b8063883436a114610e485780638a79550314610e925780638afdd66914610f905780638df9b6ee14610fba576103e0565b80636da36c06116102ce5780636da36c0614610ab35780636fb9e80314610ac8578063789f8d4014610e1e5780637b1d434814610e33576103e0565b80634a1df9f9146107715780634fe536a91461079b578063598fb0d6146107c757806367cb77e714610a9e576103e0565b806324d328fc1161037757806338f4e6c51161034657806338f4e6c5146106855780633a0be1a6146106b85780633ba18d7d146106e25780633e61265414610747576103e0565b806324d328fc146105f257806326cccdff1461061c578063285ab26614610631578063330820bc1461065b576103e0565b80631466d019116103b35780631466d019146104b05780631558b245146104e35780631a07f76e146105825780631ed0fca6146105ac576103e0565b80630419e7ef146103e5578063045b2c061461040c57806305cf45bd146104535780630835b56514610486575b600080fd5b3480156103f157600080fd5b506103fa6126af565b60408051918252519081900360200190f35b34801561041857600080fd5b5061043f6004803603602081101561042f57600080fd5b5035600160a060020a03166126b5565b604080519115158252519081900360200190f35b34801561045f57600080fd5b5061043f6004803603602081101561047657600080fd5b5035600160a060020a03166126dd565b34801561049257600080fd5b506103fa600480360360208110156104a957600080fd5b503561270b565b3480156104bc57600080fd5b5061043f600480360360208110156104d357600080fd5b5035600160a060020a0316612733565b3480156104ef57600080fd5b5061050d6004803603602081101561050657600080fd5b503561275c565b6040805160208082528351818301528351919283929083019185019080838360005b8381101561054757818101518382015260200161052f565b50505050905090810190601f1680156105745780820380516001836020036101000a031916815260200191505b509250505060405180910390f35b34801561058e57600080fd5b5061043f600480360360208110156105a557600080fd5b503561280f565b3480156105b857600080fd5b506105d6600480360360208110156105cf57600080fd5b5035612840565b60408051600160a060020a039092168252519081900360200190f35b3480156105fe57600080fd5b5061043f6004803603602081101561061557600080fd5b503561286f565b34801561062857600080fd5b506103fa61287c565b34801561063d57600080fd5b5061050d6004803603602081101561065457600080fd5b5035612882565b34801561066757600080fd5b5061043f6004803603602081101561067e57600080fd5b50356128fc565b34801561069157600080fd5b5061043f600480360360208110156106a857600080fd5b5035600160a060020a0316612928565b3480156106c457600080fd5b5061043f600480360360208110156106db57600080fd5b503561293d565b3480156106ee57600080fd5b506106f7612973565b60408051602080825283518183015283519192839290830191858101910280838360005b8381101561073357818101518382015260200161071b565b505050509050019250505060405180910390f35b34801561075357600080fd5b506103fa6004803603602081101561076a57600080fd5b50356129d6565b34801561077d57600080fd5b506103fa6004803603602081101561079457600080fd5b50356129fe565b3480156107a757600080fd5b506107c5600480360360208110156107be57600080fd5b5035612a26565b005b3480156107d357600080fd5b506107c5600480360360c08110156107ea57600080fd5b81019060208101813564010000000081111561080557600080fd5b82018360208201111561081757600080fd5b8035906020019184600183028401116401000000008311171561083957600080fd5b91908080601f0160208091040260200160405190810160405280939291908181526020018383808284376000920191909152509295843595909490935060408101925060200135905064010000000081111561089457600080fd5b8201836020820111156108a657600080fd5b803590602001918460018302840111640100000000831117156108c857600080fd5b91908080601f016020809104026020016040519081016040528093929190818152602001838380828437600092019190915250929594936020810193503591505064010000000081111561091b57600080fd5b82018360208201111561092d57600080fd5b8035906020019184600183028401116401000000008311171561094f57600080fd5b91908080601f01602080910402602001604051908101604052809392919081815260200183838082843760009201919091525092959493602081019350359150506401000000008111156109a257600080fd5b8201836020820111156109b457600080fd5b803590602001918460018302840111640100000000831117156109d657600080fd5b91908080601f0160208091040260200160405190810160405280939291908181526020018383808284376000920191909152509295949360208101935035915050640100000000811115610a2957600080fd5b820183602082011115610a3b57600080fd5b80359060200191846001830284011164010000000083111715610a5d57600080fd5b91908080601f016020809104026020016040519081016040528093929190818152602001838380828437600092019190915250929550612aa5945050505050565b348015610aaa57600080fd5b506103fa612c39565b348015610abf57600080fd5b506105d6612c3f565b348015610ad457600080fd5b506107c5600480360360c0811015610aeb57600080fd5b810190602081018135640100000000811115610b0657600080fd5b820183602082011115610b1857600080fd5b80359060200191846001830284011164010000000083111715610b3a57600080fd5b91908080601f0160208091040260200160405190810160405280939291908181526020018383808284376000920191909152509295949360208101935035915050640100000000811115610b8d57600080fd5b820183602082011115610b9f57600080fd5b80359060200191846001830284011164010000000083111715610bc157600080fd5b91908080601f0160208091040260200160405190810160405280939291908181526020018383808284376000920191909152509295949360208101935035915050640100000000811115610c1457600080fd5b820183602082011115610c2657600080fd5b80359060200191846001830284011164010000000083111715610c4857600080fd5b91908080601f0160208091040260200160405190810160405280939291908181526020018383808284376000920191909152509295949360208101935035915050640100000000811115610c9b57600080fd5b820183602082011115610cad57600080fd5b80359060200191846001830284011164010000000083111715610ccf57600080fd5b91908080601f0160208091040260200160405190810160405280939291908181526020018383808284376000920191909152509295949360208101935035915050640100000000811115610d2257600080fd5b820183602082011115610d3457600080fd5b80359060200191846001830284011164010000000083111715610d5657600080fd5b91908080601f0160208091040260200160405190810160405280939291908181526020018383808284376000920191909152509295949360208101935035915050640100000000811115610da957600080fd5b820183602082011115610dbb57600080fd5b80359060200191846001830284011164010000000083111715610ddd57600080fd5b91908080601f016020809104026020016040519081016040528093929190818152602001838380828437600092019190915250929550612c4e945050505050565b348015610e2a57600080fd5b506106f7612d95565b348015610e3f57600080fd5b506103fa612df5565b348015610e5457600080fd5b50610e7260048036036020811015610e6b57600080fd5b5035612dfb565b604080519315158452911515602084015282820152519081900360600190f35b348015610e9e57600080fd5b50610ebc60048036036020811015610eb557600080fd5b5035612e21565b604051808a600160a060020a0316600160a060020a0316815260200189600160a060020a0316600160a060020a0316815260200188815260200180602001878152602001868152602001858152602001848152602001838152602001828103825288818151815260200191508051906020019080838360005b83811015610f4d578181015183820152602001610f35565b50505050905090810190601f168015610f7a5780820380516001836020036101000a031916815260200191505b509a505050505050505050505060405180910390f35b348015610f9c57600080fd5b506105d660048036036020811015610fb357600080fd5b5035612f10565b348015610fc657600080fd5b50610fed60048036036020811015610fdd57600080fd5b5035600160a060020a0316612f37565b6040518088600160a060020a0316600160a060020a03168152602001806020018781526020018060200180602001806020018060200186810386528c818151815260200191508051906020019080838360005b83811015611058578181015183820152602001611040565b50505050905090810190601f1680156110855780820380516001836020036101000a031916815260200191505b5086810385528a5181528a516020918201918c019080838360005b838110156110b85781810151838201526020016110a0565b50505050905090810190601f1680156110e55780820380516001836020036101000a031916815260200191505b5086810384528951815289516020918201918b019080838360005b83811015611118578181015183820152602001611100565b50505050905090810190601f1680156111455780820380516001836020036101000a031916815260200191505b5086810383528851815288516020918201918a019080838360005b83811015611178578181015183820152602001611160565b50505050905090810190601f1680156111a55780820380516001836020036101000a031916815260200191505b50868103825287518152875160209182019189019080838360005b838110156111d85781810151838201526020016111c0565b50505050905090810190601f1680156112055780820380516001836020036101000a031916815260200191505b509c5050505050505050505050505060405180910390f35b34801561122957600080fd5b5061043f6004803603602081101561124057600080fd5b5035600160a060020a0316613233565b34801561125c57600080fd5b506105d66004803603604081101561127357600080fd5b5080359060200135613248565b34801561128c57600080fd5b506112aa600480360360208110156112a357600080fd5b503561327d565b604051808a815260200189600160a060020a0316600160a060020a0316815260200180602001888152602001878152602001868152602001851515151581526020018481526020018381526020018281038252898181518152602001915080519060200190808383600083811015610f4d578181015183820152602001610f35565b34801561133857600080fd5b506103fa61336f565b34801561134d57600080fd5b506107c56004803603604081101561136457600080fd5b5080359060200135613375565b34801561137d57600080fd5b506107c56004803603602081101561139457600080fd5b5035600160a060020a0316613410565b3480156113b057600080fd5b506103fa600480360360208110156113c757600080fd5b503561344b565b3480156113da57600080fd5b506107c5600480360360c08110156113f157600080fd5b81019060208101813564010000000081111561140c57600080fd5b82018360208201111561141e57600080fd5b8035906020019184600183028401116401000000008311171561144057600080fd5b91908080601f0160208091040260200160405190810160405280939291908181526020018383808284376000920191909152509295843595909490935060408101925060200135905064010000000081111561149b57600080fd5b8201836020820111156114ad57600080fd5b803590602001918460018302840111640100000000831117156114cf57600080fd5b91908080601f016020809104026020016040519081016040528093929190818152602001838380828437600092019190915250929594936020810193503591505064010000000081111561152257600080fd5b82018360208201111561153457600080fd5b8035906020019184600183028401116401000000008311171561155657600080fd5b91908080601f01602080910402602001604051908101604052809392919081815260200183838082843760009201919091525092959493602081019350359150506401000000008111156115a957600080fd5b8201836020820111156115bb57600080fd5b803590602001918460018302840111640100000000831117156115dd57600080fd5b91908080601f016020809104026020016040519081016040528093929190818152602001838380828437600092019190915250929594936020810193503591505064010000000081111561163057600080fd5b82018360208201111561164257600080fd5b8035906020019184600183028401116401000000008311171561166457600080fd5b91908080601f016020809104026020016040519081016040528093929190818152602001838380828437600092019190915250929550613473945050505050565b3480156116b157600080fd5b506103fa600480360360208110156116c857600080fd5b5035613583565b3480156116db57600080fd5b506103fa6135ab565b3480156116f057600080fd5b50610e726004803603602081101561170757600080fd5b50356135b1565b34801561171a57600080fd5b506103fa6135d7565b34801561172f57600080fd5b506103fa6004803603602081101561174657600080fd5b50356135dd565b34801561175957600080fd5b506105d66004803603602081101561177057600080fd5b5035613605565b6107c56004803603604081101561178d57600080fd5b50600160a060020a038135169060200135613637565b3480156117af57600080fd5b5061043f600480360360208110156117c657600080fd5b5035600160a060020a03166136a8565b3480156117e257600080fd5b506105d6600480360360208110156117f957600080fd5b50356136d1565b34801561180c57600080fd5b506118336004803603602081101561182357600080fd5b5035600160a060020a03166136de565b6040518080602001806020018060200180602001806020018060200187810387528d818151815260200191508051906020019080838360005b8381101561188457818101518382015260200161186c565b50505050905090810190601f1680156118b15780820380516001836020036101000a031916815260200191505b5087810386528c5181528c516020918201918e019080838360005b838110156118e45781810151838201526020016118cc565b50505050905090810190601f1680156119115780820380516001836020036101000a031916815260200191505b5087810385528b5181528b516020918201918d019080838360005b8381101561194457818101518382015260200161192c565b50505050905090810190601f1680156119715780820380516001836020036101000a031916815260200191505b5087810384528a5181528a516020918201918c019080838360005b838110156119a457818101518382015260200161198c565b50505050905090810190601f1680156119d15780820380516001836020036101000a031916815260200191505b5087810383528951815289516020918201918b019080838360005b83811015611a045781810151838201526020016119ec565b50505050905090810190601f168015611a315780820380516001836020036101000a031916815260200191505b5087810382528851815288516020918201918a0190808383600083156111d85781810151838201526020016111c0565b348015611a6d57600080fd5b506107c5600480360360c0811015611a8457600080fd5b810190602081018135640100000000811115611a9f57600080fd5b820183602082011115611ab157600080fd5b80359060200191846001830284011164010000000083111715611ad357600080fd5b91908080601f0160208091040260200160405190810160405280939291908181526020018383808284376000920191909152509295505082359350505060208101359060408101359060608101359060800135613a83565b348015611b3757600080fd5b506103fa60048036036020811015611b4e57600080fd5b5035613c3b565b348015611b6157600080fd5b506103fa60048036036020811015611b7857600080fd5b5035613c4a565b348015611b8b57600080fd5b506103fa613c59565b348015611ba057600080fd5b506103fa60048036036020811015611bb757600080fd5b5035613c5f565b6107c560048036036040811015611bd457600080fd5b50600160a060020a038135169060200135613c6e565b348015611bf657600080fd5b50611c1d60048036036020811015611c0d57600080fd5b5035600160a060020a0316614073565b6040518088600160a060020a0316600160a060020a0316815260200180602001806020018060200180602001806020018060200187810387528d818151815260200191508051906020019080838360005b83811015611c86578181015183820152602001611c6e565b50505050905090810190601f168015611cb35780820380516001836020036101000a031916815260200191505b5087810386528c5181528c516020918201918e019080838360005b83811015611ce6578181015183820152602001611cce565b50505050905090810190601f168015611d135780820380516001836020036101000a031916815260200191505b5087810385528b5181528b516020918201918d019080838360005b83811015611d46578181015183820152602001611d2e565b50505050905090810190601f168015611d735780820380516001836020036101000a031916815260200191505b5087810384528a5181528a516020918201918c019080838360005b83811015611da6578181015183820152602001611d8e565b50505050905090810190601f168015611dd35780820380516001836020036101000a031916815260200191505b5087810383528951815289516020918201918b019080838360005b83811015611e06578181015183820152602001611dee565b50505050905090810190601f168015611e335780820380516001836020036101000a031916815260200191505b5087810382528851815288516020918201918a019080838360005b83811015611e66578181015183820152602001611e4e565b50505050905090810190601f168015611e935780820380516001836020036101000a031916815260200191505b509d505050505050505050505050505060405180910390f35b348015611eb857600080fd5b50611edf60048036036020811015611ecf57600080fd5b5035600160a060020a0316614214565b60405180806020018781526020018060200180602001806020018060200186810386528c818151815260200191508051906020019080838360005b83811015611f32578181015183820152602001611f1a565b50505050905090810190601f168015611f5f5780820380516001836020036101000a031916815260200191505b5086810385528a5181528a516020918201918c019080838360005b83811015611f92578181015183820152602001611f7a565b50505050905090810190601f168015611fbf5780820380516001836020036101000a031916815260200191505b5086810384528951815289516020918201918b019080838360005b83811015611ff2578181015183820152602001611fda565b50505050905090810190601f16801561201f5780820380516001836020036101000a031916815260200191505b5086810383528851815288516020918201918a019080838360005b8381101561205257818101518382015260200161203a565b50505050905090810190601f16801561207f5780820380516001836020036101000a031916815260200191505b50868103825287518152875160209182019189019080838360005b838110156120b257818101518382015260200161209a565b50505050905090810190601f1680156120df5780820380516001836020036101000a031916815260200191505b509b50505050505050505050505060405180910390f35b34801561210257600080fd5b506107c56004803603602081101561211957600080fd5b503561433a565b34801561212c57600080fd5b506103fa6004803603602081101561214357600080fd5b50356143cf565b34801561215657600080fd5b506103fa6143f7565b34801561216b57600080fd5b506121896004803603602081101561218257600080fd5b50356143fd565b604051808581526020018060200184815260200180602001838103835286818151815260200191508051906020019080838360005b838110156121d65781810151838201526020016121be565b50505050905090810190601f1680156122035780820380516001836020036101000a031916815260200191505b50838103825284518152845160209182019186019080838360005b8381101561223657818101518382015260200161221e565b50505050905090810190601f1680156122635780820380516001836020036101000a031916815260200191505b50965050505050505060405180910390f35b34801561228157600080fd5b506103fa6004803603602081101561229857600080fd5b503561453a565b3480156122ab57600080fd5b506107c5600480360360c08110156122c257600080fd5b8101906020810181356401000000008111156122dd57600080fd5b8201836020820111156122ef57600080fd5b8035906020019184600183028401116401000000008311171561231157600080fd5b91908080601f016020809104026020016040519081016040528093929190818152602001838380828437600092019190915250929594936020810193503591505064010000000081111561236457600080fd5b82018360208201111561237657600080fd5b8035906020019184600183028401116401000000008311171561239857600080fd5b91908080601f01602080910402602001604051908101604052809392919081815260200183838082843760009201919091525092959493602081019350359150506401000000008111156123eb57600080fd5b8201836020820111156123fd57600080fd5b8035906020019184600183028401116401000000008311171561241f57600080fd5b91908080601f016020809104026020016040519081016040528093929190818152602001838380828437600092019190915250929594936020810193503591505064010000000081111561247257600080fd5b82018360208201111561248457600080fd5b803590602001918460018302840111640100000000831117156124a657600080fd5b91908080601f01602080910402602001604051908101604052809392919081815260200183838082843760009201919091525092959493602081019350359150506401000000008111156124f957600080fd5b82018360208201111561250b57600080fd5b8035906020019184600183028401116401000000008311171561252d57600080fd5b91908080601f016020809104026020016040519081016040528093929190818152602001838380828437600092019190915250929594936020810193503591505064010000000081111561258057600080fd5b82018360208201111561259257600080fd5b803590602001918460018302840111640100000000831117156125b457600080fd5b91908080601f016020809104026020016040519081016040528093929190818152602001838380828437600092019190915250929550614549945050505050565b34801561260157600080fd5b506107c56004803603602081101561261857600080fd5b5035614670565b34801561262b57600080fd5b5061043f6004803603602081101561264257600080fd5b5035600160a060020a031661470d565b34801561265e57600080fd5b5061043f6004803603602081101561267557600080fd5b5035600160a060020a0316614722565b34801561269157600080fd5b506103fa600480360360208110156126a857600080fd5b5035614737565b600f5481565b60008054600160a060020a03838116911614156126d4575060016126d8565b5060005b919050565b600160a060020a03811660009081526007602052604081205460ff161515600114156126d4575060016126d8565b6000600b828154811061271a57fe5b9060005260206000209060090201600801549050919050565b600160a060020a03811660009081526008602052604081205460ff16156126d4575060016126d8565b6060600b828154811061276b57fe5b600091825260209182902060026009909202018101805460408051601f6000196101006001861615020190931694909404918201859004850284018501905280835291929091908301828280156128035780601f106127d857610100808354040283529160200191612803565b820191906000526020600020905b8154815290600101906020018083116127e657829003601f168201915b50505050509050919050565b6015818154811061281c57fe5b9060005260206000209060209182820401919006915054906101000a900460ff1681565b60006001828154811061284f57fe5b6000918252602090912060099091020154600160a060020a031692915050565b6014818154811061281c57fe5b60115481565b60606001828154811061289157fe5b6000918252602091829020600360099092020101805460408051601f60026000196101006001871615020190941693909304928301859004850281018501909152818152928301828280156128035780601f106127d857610100808354040283529160200191612803565b6000600b828154811061290b57fe5b600091825260209091206009909102016006015460ff1692915050565b600a6020526000908152604090205460ff1681565b60006015828154811061294c57fe5b90600052602060002090602091828204019190069054906101000a900460ff169050919050565b606060038054806020026020016040519081016040528092919081815260200182805480156129cb57602002820191906000526020600020905b8154600160a060020a031681526001909101906020018083116129ad575b505050505090505b90565b6000600182815481106129e557fe5b9060005260206000209060090201600501549050919050565b6000600b8281548110612a0d57fe5b9060005260206000209060090201600001549050919050565b336000908152600a602052604090205460ff161515600114612a4757600080fd5b3360009081526009602052604090205460ff161515600114612a6857600080fd5b6000908152600c6020908152604082208054600181018255908352912001805473ffffffffffffffffffffffffffffffffffffffff191633179055565b3360009081526007602052604090205460ff1615612ac257600080fd5b600f80546001908101909155600580548083019091557f036b6384b5eca791c62761152d0c79bb0604c104a5fb6f4eb0703f3154bb3db00180543373ffffffffffffffffffffffffffffffffffffffff1991821681179092556000828152600760209081526040808320805460ff19908116881790915560098352818420805490911687179055805160e0810182528581528083018d81528183018d9052606082018c9052608082018b905260a082018a905260c0820189905295845260068352922082518154909416600160a060020a039094169390931783559251805191949293612bb49385019291019061475f565b506040820151600282015560608201518051612bda91600384019160209091019061475f565b5060808201518051612bf691600484019160209091019061475f565b5060a08201518051612c1291600584019160209091019061475f565b5060c08201518051612c2e91600684019160209091019061475f565b505050505050505050565b600f5490565b600054600160a060020a031681565b3360009081526007602052604090205460ff1615612c6b57600080fd5b601080546001908101909155600380548083019091557fc2575a0e9e593c00f959f8c92f12db2869c3395a3b0502d05e2516446f71f85b0180543373ffffffffffffffffffffffffffffffffffffffff1991821681179092556000828152600760209081526040808320805460ff19908116881790915560088352818420805490911687179055805160e0810182528581528083018d81528183018d9052606082018c9052608082018b905260a082018a905260c0820189905295845260048352922082518154909416600160a060020a039094169390931783559251805191949293612d5d9385019291019061475f565b5060408201518051612d7991600284019160209091019061475f565b5060608201518051612bda91600384019160209091019061475f565b606060058054806020026020016040519081016040528092919081815260200182805480156129cb57602002820191906000526020600020908154600160a060020a031681526001909101906020018083116129ad575050505050905090565b600e5490565b6000908152601360205260409020805460019091015460ff808316936101009093041691565b60018181548110612e2e57fe5b60009182526020918290206009919091020180546001808301546002808501546003860180546040805161010097831615979097026000190190911693909304601f8101899004890286018901909352828552600160a060020a039586169850949092169591949391830182828015612ee85780601f10612ebd57610100808354040283529160200191612ee8565b820191906000526020600020905b815481529060010190602001808311612ecb57829003601f168201915b5050505050908060040154908060050154908060060154908060070154908060080154905089565b60058181548110612f1d57fe5b600091825260209091200154600160a060020a0316905081565b6006602090815260009182526040918290208054600180830180548651600261010094831615949094026000190190911692909204601f8101869004860283018601909652858252600160a060020a03909216949293909290830182828015612fe15780601f10612fb657610100808354040283529160200191612fe1565b820191906000526020600020905b815481529060010190602001808311612fc457829003601f168201915b505050506002838101546003850180546040805160206001841615610100026000190190931695909504601f8101839004830286018301909152808552959692959294509091908301828280156130795780601f1061304e57610100808354040283529160200191613079565b820191906000526020600020905b81548152906001019060200180831161305c57829003601f168201915b5050505060048301805460408051602060026001851615610100026000190190941693909304601f81018490048402820184019092528181529495949350908301828280156131095780601f106130de57610100808354040283529160200191613109565b820191906000526020600020905b8154815290600101906020018083116130ec57829003601f168201915b5050505060058301805460408051602060026001851615610100026000190190941693909304601f81018490048402820184019092528181529495949350908301828280156131995780601f1061316e57610100808354040283529160200191613199565b820191906000526020600020905b81548152906001019060200180831161317c57829003601f168201915b5050505060068301805460408051602060026001851615610100026000190190941693909304601f81018490048402820184019092528181529495949350908301828280156132295780601f106131fe57610100808354040283529160200191613229565b820191906000526020600020905b81548152906001019060200180831161320c57829003601f168201915b5050505050905087565b60096020526000908152604090205460ff1681565b600c602052816000526040600020818154811061326157fe5b600091825260209091200154600160a060020a03169150829050565b600b818154811061328a57fe5b6000918252602091829020600991909102018054600180830154600280850180546040805161010096831615969096026000190190911692909204601f8101889004880285018801909252818452939650600160a060020a039091169491929183018282801561333b5780601f106133105761010080835404028352916020019161333b565b820191906000526020600020905b81548152906001019060200180831161331e57829003601f168201915b505050600384015460048501546005860154600687015460078801546008909801549697939692955090935060ff16919089565b600e5481565b3360009081526007602052604090205460ff1680156133aa575033600081815260066020526040902054600160a060020a0316145b80156133e7575033600160a060020a0316600183815481106133c857fe5b6000918252602090912060016009909202010154600160a060020a0316145b6133f057600080fd5b600091825260136020526040909120805460ff1916600190811782550155565b600054600160a060020a0316331461342757600080fd5b600160a060020a03166000908152600a60205260409020805460ff19166001179055565b6000600b828154811061345a57fe5b9060005260206000209060090201600401549050919050565b3360009081526007602052604090205460ff1680156134a8575033600081815260066020526040902054600160a060020a0316145b6134b157600080fd5b33600090815260066020908152604090912087516134d79260019092019189019061475f565b503360009081526006602090815260409091206002810187905585516135059260039092019187019061475f565b50336000908152600660209081526040909120845161352c9260049092019186019061475f565b5033600090815260066020908152604090912083516135539260059092019185019061475f565b50336000908152600660208181526040909220835161357a9391909201919084019061475f565b50505050505050565b6000600b828154811061359257fe5b9060005260206000209060090201600301549050919050565b60105490565b6013602052600090815260409020805460019091015460ff808316926101009004169083565b60115490565b6000600b82815481106135ec57fe5b9060005260206000209060090201600701549050919050565b60006001828154811061361457fe5b6000918252602090912060099091020160010154600160a060020a031692915050565b60016015828154811061364657fe5b90600052602060002090602091828204019190066101000a81548160ff02191690831515021790555081600160a060020a03166108fc349081150290604051600060405180830381858888f193505050501580156136a357600080fd5b505050565b600160a060020a03811660009081526009602052604081205460ff16156126d4575060016126d8565b60038181548110612f1d57fe5b600160a060020a0381166000908152600460208181526040928390206001808201805486516002938216156101000260001901909116839004601f810186900486028201860190975286815260609687968796879687968796959082019460038301948301936005840193600601929188918301828280156137a15780601f10613776576101008083540402835291602001916137a1565b820191906000526020600020905b81548152906001019060200180831161378457829003601f168201915b5050885460408051602060026001851615610100026000190190941693909304601f8101849004840282018401909252818152959b508a94509250840190508282801561382f5780601f106138045761010080835404028352916020019161382f565b820191906000526020600020905b81548152906001019060200180831161381257829003601f168201915b5050875460408051602060026001851615610100026000190190941693909304601f8101849004840282018401909252818152959a50899450925084019050828280156138bd5780601f10613892576101008083540402835291602001916138bd565b820191906000526020600020905b8154815290600101906020018083116138a057829003601f168201915b5050865460408051602060026001851615610100026000190190941693909304601f81018490048402820184019092528181529599508894509250840190508282801561394b5780601f106139205761010080835404028352916020019161394b565b820191906000526020600020905b81548152906001019060200180831161392e57829003601f168201915b5050855460408051602060026001851615610100026000190190941693909304601f8101849004840282018401909252818152959850879450925084019050828280156139d95780601f106139ae576101008083540402835291602001916139d9565b820191906000526020600020905b8154815290600101906020018083116139bc57829003601f168201915b5050845460408051602060026001851615610100026000190190941693909304601f810184900484028201840190925281815295975086945092508401905082828015613a675780601f10613a3c57610100808354040283529160200191613a67565b820191906000526020600020905b815481529060010190602001808311613a4a57829003601f168201915b5050505050905095509550955095509550955091939550919395565b336000908152600a602052604090205460ff161515600114613aa457600080fd5b3360009081526008602052604090205460ff161515600114613ac557600080fd5b601180546001908101909155600b805460408051610120810182529382018085523360208087019182529286018c8152606087018c9052608087018b9052428a0160a0880152600060c0880181905260e088018a905261010088018990528387559590955285517f0175b7a638427703f0dbe7bb9bbf987a2551717b34e79f33b5b1008d1fa01db9600990950294850190815590517f0175b7a638427703f0dbe7bb9bbf987a2551717b34e79f33b5b1008d1fa01dba8501805473ffffffffffffffffffffffffffffffffffffffff1916600160a060020a03909216919091179055935180519195869590949093613be3937f0175b7a638427703f0dbe7bb9bbf987a2551717b34e79f33b5b1008d1fa01dbb90920192019061475f565b50606082015160038201556080820151600482015560a0820151600582015560c082015160068201805460ff191691151591909117905560e08201516007820155610100909101516008909101555050505050505050565b6000600b82815481106129e557fe5b60006001828154811061271a57fe5b600d5481565b6000600182815481106135ec57fe5b336000908152600a602052604090205460ff161515600114613c8f57600080fd5b3360009081526008602052604090205460ff161515600114613cb057600080fd5b601280546001908101909155600b805483908110613cca57fe5b60009182526020808320600992909202909101600601805460ff19908116941515949094179055604080516060808201835284825281840185815282840186815288875260138652848720935184549251929098169715159790971761ff00191661010091151582021783559551600192830155601480548084019091557fce6d7b5282bd9a3661ae061feed1dbda4e52ab073b1f9285be6e155d9c38d4ec85820401805460ff601f9384168a0a81021990911690915560158054808601825597527f55f448fdea98c4d29eb340757ef0a66cd03dbb9538908a6a81d96026b71ec4758688040180549790921690970a90960219909416909455805161012081018252338152600160a060020a0387169281019290925260125490820152600b8054919283019185908110613dfb57fe5b600091825260209182902060026009909202018101805460408051601f600019610100600186161502019093169490940491820185900485028401850190528083529192909190830182828015613e935780601f10613e6857610100808354040283529160200191613e93565b820191906000526020600020905b815481529060010190602001808311613e7657829003601f168201915b50505050508152602001600b8481548110613eaa57fe5b9060005260206000209060090201600301548152602001600b8481548110613ece57fe5b9060005260206000209060090201600401548152602001600b8481548110613ef257fe5b9060005260206000209060090201600501548152602001600b8481548110613f1657fe5b9060005260206000209060090201600701548152602001600b8481548110613f3a57fe5b60009182526020808320600992830201600801549093528454600180820180885596845292849020855191909202909101805473ffffffffffffffffffffffffffffffffffffffff19908116600160a060020a039384161782558585015193820180549091169390921692909217905560408301516002820155606083015180519192613fcf9260038501929091019061475f565b506080820151600482015560a0820151600582015560c0820151600682015560e082015160078201556101009091015160089091015550604051600160a060020a038316903480156108fc02916000818181858888f1935050505015801561403657600080fd5b5060016014828154811061404657fe5b90600052602060002090602091828204019190066101000a81548160ff0219169083151502179055505050565b6004602090815260009182526040918290208054600180830180548651600261010094831615949094026000190190911692909204601f8101869004860283018601909652858252600160a060020a0390921694929390929083018282801561411d5780601f106140f25761010080835404028352916020019161411d565b820191906000526020600020905b81548152906001019060200180831161410057829003601f168201915b50505060028085018054604080516020601f60001961010060018716150201909416959095049283018590048502810185019091528181529596959450909250908301828280156141af5780601f10614184576101008083540402835291602001916141af565b820191906000526020600020905b81548152906001019060200180831161419257829003601f168201915b5050505060038301805460408051602060026001851615610100026000190190941693909304601f81018490048402820184019092528181529495949350908301828280156130795780601f1061304e57610100808354040283529160200191613079565b600160a060020a03811660009081526006602081815260408084206002808201546001808401805486519281161561010002600019011693909304601f81018790048702820187019095528481526060979688968796879687969594600382019460048301946005840194939091019288918301828280156142d75780601f106142ac576101008083540402835291602001916142d7565b820191906000526020600020905b8154815290600101906020018083116142ba57829003601f168201915b5050875460408051602060026001851615610100026000190190941693909304601f8101849004840282018401909252818152959b50899450925084019050828280156138bd5780601f10613892576101008083540402835291602001916138bd565b3360009081526007602052604090205460ff16801561436f575033600081815260046020526040902054600160a060020a0316145b80156143a9575033600160a060020a03166001828154811061438d57fe5b6000918252602090912060099091020154600160a060020a0316145b6143b257600080fd5b6000908152601360205260409020805461ff001916610100179055565b6000600182815481106143de57fe5b9060005260206000209060090201600601549050919050565b60105481565b60026020818152600092835260409283902080546001808301805487519281161561010002600019011695909504601f81018590048502820185019096528581529094919390929091908301828280156144985780601f1061446d57610100808354040283529160200191614498565b820191906000526020600020905b81548152906001019060200180831161447b57829003601f168201915b505050506002838101546003850180546040805160206001841615610100026000190190931695909504601f8101839004830286018301909152808552959692959294509091908301828280156145305780601f1061450557610100808354040283529160200191614530565b820191906000526020600020905b81548152906001019060200180831161451357829003601f168201915b5050505050905084565b60006001828154811061345a57fe5b3360009081526007602052604090205460ff16801561457e575033600081815260046020526040902054600160a060020a0316145b61458757600080fd5b33600090815260046020908152604090912087516145ad9260019092019189019061475f565b5033600090815260046020908152604090912086516145d49260029092019188019061475f565b5033600090815260046020908152604090912085516145fb9260039092019187019061475f565b5033600090815260046020818152604090922085516146229391909201919086019061475f565b5033600090815260046020908152604090912083516146499260059092019185019061475f565b50336000908152600460209081526040909120825161357a9260069092019184019061475f565b600054600160a060020a0316331461468757600080fd5b60008181526013602052604090205460ff16151560011480156146c3575060008181526013602052604090205460ff6101009091041615156001145b6146cc57600080fd5b6013600082815260200190815260200160002060010154600182815481106146f057fe5b600091825260209091206006600990920201018054909101905550565b60076020526000908152604090205460ff1681565b60086020526000908152604090205460ff1681565b60006001828154811061474657fe5b9060005260206000209060090201600201549050919050565b828054600181600116156101000203166002900490600052602060002090601f016020900481019282601f106147a057805160ff19168380011785556147cd565b828001600101855582156147cd579182015b828111156147cd5782518255916020019190600101906147b2565b506147d99291506147dd565b5090565b6129d391905b808211156147d957600081556001016147e356fea265627a7a7231582018697e496aa7b4132479f931016e98c98ffc71da405ac2c46c4c75b862df486b64736f6c63430005100032",
  "source": "// SPDX-License-Identifier: GPL-3.0\npragma solidity >= 0.5.2;\n// pragma experimental ABIEncoderV2;\ncontract Farm{\n    address public contract_admin;\n\n    constructor() public{\n        contract_admin = msg.sender;\n        add_admin(\"Inspector 1\", 45, \"Tehsil Manager\");\n    }\n\n    struct CropRequirement {\n        uint id;\n        address business;\n        string crop_name;\n        uint quantity_in_kg;\n        uint price_per_kg;\n        uint delivery_time;\n        bool status;//for tracking whether this crop requirement is completed or not.\n        uint totalPrice;\n        uint advancedPayment;\n    }\n\n    struct admin {\n        uint256 id;\n        string name;\n        uint256 age;\n        string designation;\n    }\n    \n    struct farmer {\n        address id;\n        string name;\n        uint256 age;\n        string city;\n        string aadharNumber;\n        string panNumber;\n        string land_document;\n    }\n\n    struct business {\n        address id;\n        string business_name;\n        string city;\n        string companyRegistrationNumber;\n        string GSTnumber;\n        string document;\n        string email;\n    }\n    \n    struct farmContract {\n        address business;\n        address farmer;\n        uint id;\n        string crop_name;\n        uint quantity_in_kg;\n        uint price_per_kg;\n        uint deadline;\n        uint totalPrice;\n        uint advancedPayment;\n    }\n\n    farmContract[] public Contracts;\n    \n    mapping(uint256 => admin) public InspectorMapping;\n\n    address[] public businesses;\n    mapping(address => business) public businessMapping;\n    \n\n    address[] public farmers;\n    mapping(address => farmer) public farmerMapping;\n\n    mapping(address => bool) public RegisteredAddressMapping;\n    mapping(address => bool) public RegisteredBusinessMapping;\n    mapping(address => bool) public RegisteredFarmerMapping;\n    mapping(address => bool) public Verification;\n    \n    // mapping(address => CropRequirement[]) public CropReqMap;//This map is for storing CropRequirements of particular company.\n    CropRequirement[] public CropReqMap;\n    // mapping(uint256 => bool) public CropReqMapComplete;\n\n    mapping(uint256 => address[]) public requestMapping;\n\n    \n    \n    uint256 public contractsCount = 5;\n    uint256 public inspectorsCount;\n    uint256 public farmersCount;\n    uint256 public businessCount;\n    uint256 public CropReqMapCount;\n\n    function getBusinessCount() public view returns(uint256){\n        return businessCount;\n    }\n\n    function getInspectorCount() public view returns(uint256){\n        return inspectorsCount;\n    }\n\n    function getFarmersCount() public view returns(uint256){\n        return farmersCount;\n    }\n    function getCropReqCount() public view returns(uint256){\n        return CropReqMapCount;\n    }\n\n    function add_admin(string memory _name, uint256 _age, string memory _designation) private{\n        inspectorsCount++;\n        InspectorMapping[inspectorsCount] = admin(\n            inspectorsCount,\n            _name,\n            _age,\n            _designation\n        );\n    }\n\n    function addFarmer( string memory name,\n                        uint256 age,\n                        string memory city,\n                        string memory aadharNumber,\n                        string memory panNumber,\n                        string memory land_document\n    ) public {\n        require(!RegisteredAddressMapping[msg.sender]);\n        farmersCount++;\n        farmers.push(msg.sender);\n        RegisteredAddressMapping[msg.sender] = true;\n        RegisteredFarmerMapping[msg.sender] = true;\n        farmerMapping[msg.sender] = farmer( msg.sender, name, age, city, aadharNumber, panNumber, land_document);\n    }\n\n    function updateFarmer( string memory _name,\n                        uint256 _age,\n                        string memory _city,\n                        string memory _aadharNumber,\n                        string memory _panNumber,\n                        string memory _land_document\n    ) public {\n        require(RegisteredAddressMapping[msg.sender] && farmerMapping[msg.sender].id == msg.sender);\n\n        \n        farmerMapping[msg.sender].name = _name;\n        farmerMapping[msg.sender].age = _age;\n        farmerMapping[msg.sender].city = _city;\n        farmerMapping[msg.sender].aadharNumber = _aadharNumber;\n        farmerMapping[msg.sender].panNumber = _panNumber;\n        farmerMapping[msg.sender].land_document = _land_document;\n    }\n\n    function getFarmers() public view returns (address[] memory) {\n        return (farmers);\n    }\n\n    //here we are returning the whole farmer struct to stop stack too deep error\n    function getFarmerDetails(address i) public view returns (string memory, uint, string memory, string memory, string memory, string memory) {\n        return (farmerMapping[i].name, \n                farmerMapping[i].age, \n                farmerMapping[i].city, \n                farmerMapping[i].aadharNumber, \n                farmerMapping[i].panNumber, \n                farmerMapping[i].land_document);\n    }\n\n    function addBusiness(string memory business_name,\n        string memory city,\n        string memory companyRegistrationNumber,\n        string memory GSTnumber,\n        string memory document,\n        string memory email\n    ) public {\n        require(!RegisteredAddressMapping[msg.sender]);\n\n        businessCount++;\n        businesses.push(msg.sender);\n        RegisteredAddressMapping[msg.sender] = true;\n        RegisteredBusinessMapping[msg.sender] = true;\n        businessMapping[msg.sender] = business( msg.sender, business_name, city, companyRegistrationNumber, GSTnumber, document, email);\n    }\n\n    function updateBusiness(string memory _business_name,\n        string memory _city,\n        string memory _companyRegistrationNumber,\n        string memory _GSTnumber,\n        string memory _document,\n        string memory _email\n    ) public {\n        require(RegisteredAddressMapping[msg.sender] && businessMapping[msg.sender].id == msg.sender);\n\n        businessMapping[msg.sender].business_name = _business_name;\n        businessMapping[msg.sender].city = _city;\n        businessMapping[msg.sender].companyRegistrationNumber = _companyRegistrationNumber;\n        businessMapping[msg.sender].GSTnumber = _GSTnumber;\n        businessMapping[msg.sender].document = _document;\n        businessMapping[msg.sender].email = _email;\n    }\n\n    function getBusinesses() public view returns (address[] memory) {\n        return (businesses);\n    }\n\n    function getBusinessDetails(address i)\n        public\n        view\n        returns (\n            string memory,\n            string memory,\n            string memory,\n            string memory,\n            string memory,\n            string memory\n        )\n    {\n        return (\n            businessMapping[i].business_name,\n            businessMapping[i].city,\n            businessMapping[i].companyRegistrationNumber,\n            businessMapping[i].GSTnumber,\n            businessMapping[i].document,\n            businessMapping[i].email\n        );\n    }\n\n    function isFarmer(address _id) public view returns (bool) {\n        if (RegisteredFarmerMapping[_id]) {\n            return true;\n        } else {\n            // Handle the case where it's not verified\n            return false;\n        }\n    }\n\n    function isAdmin1 (address _id) public view returns (bool) {\n        if(_id == contract_admin) return true;\n        else return false;\n    }\n\n    function isBusiness(address _id) public view returns (bool) {\n        if (RegisteredBusinessMapping[_id]) {\n            return true;\n        } else {\n            // Handle the case where it's not verified\n            return false;\n        }\n    }\n\n    modifier isAdmin {\n        require(msg.sender == contract_admin);\n        _;\n    }\n\n    modifier isVerified{\n        require(Verification[msg.sender] == true);\n        _;\n    }\n\n    function isVerified1(address _id) public view returns (bool) {\n        if(RegisteredAddressMapping[_id] == true) return true; \n        else return false;\n    }\n\n    function Verify(address walletID) isAdmin public{\n        Verification[walletID] = true;\n    }\n\n    function addCropRequirement (\n        string memory crop_name,\n        uint quantity_in_kg,\n        uint price_per_kg,\n        uint256 deliveryTime, \n        uint256 _total,\n        uint256 _advPayment) public isVerified{\n            require(RegisteredBusinessMapping[msg.sender] == true);\n            \n            CropReqMapCount++;\n            uint id_temp = CropReqMap.length + 1;\n            // CropReqMapComplete[id_temp] = false;\n            CropReqMap.push(CropRequirement(id_temp, msg.sender, crop_name, quantity_in_kg, price_per_kg, block.timestamp+deliveryTime, false, _total, _advPayment));    \n    }\n\n    \n\n    \n\n    //below set of functions is for getting information about cropRequirement.\n    function getCropRequirementBusiness(uint256 i) public view returns(uint256){\n        return CropReqMap[i].id;\n    }\n    function getCropRequirementCropName(uint256 i) public view returns(string memory){\n        return CropReqMap[i].crop_name;\n    }\n    function getCropRequirementQuantity(uint256 i) public view returns(uint256){\n        return CropReqMap[i].quantity_in_kg;\n    }\n    function getCropRequirementPrice(uint256 i) public view returns(uint256){\n        return CropReqMap[i].price_per_kg;\n    }\n    function getCropRequirementDelTime(uint256 i) public view returns(uint256){\n        return CropReqMap[i].delivery_time;\n    }\n    function getCropRequirementStatus(uint256 i) public view returns (bool){\n        return CropReqMap[i].status;\n    }\n    function getCropRequirementTotalPrice(uint256 i) public view returns (uint256) {\n        return CropReqMap[i].totalPrice;\n    }\n    function getCropRequirementAdvPayment(uint256 i) public view returns (uint256) {\n        return CropReqMap[i].advancedPayment;\n    }\n    //end\n\n    function requestContract(uint256 i) public isVerified{\n        require(RegisteredFarmerMapping[msg.sender] == true);\n        requestMapping[i].push(msg.sender);  \n    }\n\n    uint256 ContractsCount = 0;\n\n    struct forExtension {\n        bool farmerReq;\n        bool businessAcceptance;\n        uint256 time;\n    }\n    \n    mapping(uint256 => forExtension) public extensionReq;//This array is for extension requests.\n    bool[] public advancedPaymentReceived; \n    bool[] public PaymentReceived; \n\n\n    function signContract(address payable farmerAddress, uint256 i) public payable isVerified{\n        require(RegisteredBusinessMapping[msg.sender] == true);\n\n        ContractsCount++;\n        CropReqMap[i].status = true;\n        extensionReq[i] = forExtension(false, false, 0);\n        advancedPaymentReceived.push(false);\n        PaymentReceived.push(false);\n        Contracts.push(farmContract(msg.sender, \n                                    farmerAddress, \n                                    ContractsCount, //id of contract\n                                    CropReqMap[i].crop_name, \n                                    CropReqMap[i].quantity_in_kg, \n                                    CropReqMap[i].price_per_kg, \n                                    CropReqMap[i].delivery_time, \n                                    CropReqMap[i].totalPrice, \n                                    CropReqMap[i].advancedPayment));\n        \n        //Triggering advanced payment\n        //we have to take care of msg.value from frontend.\n            /* First access the advancedPayment value from CropReqMap using index i \n               and pass it using web3.js frontend(refer \"makePayment.js\" for this)*/\n        farmerAddress.transfer(msg.value);\n        advancedPaymentReceived[i] = true;\n    }\n\n\n    //below are the functions for displaying contracts data to the frontend\n    function getContractBusiness(uint i) public view returns (address) {\n        return Contracts[i].business;\n    }\n    function getContractFarmer(uint i) public view returns (address) {\n        return Contracts[i].farmer;\n    }\n    function getContractId(uint i) public view returns (uint) {\n        return Contracts[i].id;\n    }\n    function getContractCropName(uint i) public view returns (string memory) {\n        return Contracts[i].crop_name;\n    }\n    function getContractQuantity(uint i) public view returns (uint) {\n        return Contracts[i].quantity_in_kg;\n    }\n    function getContractPrice(uint i) public view returns (uint) {\n        return Contracts[i].price_per_kg;\n    }\n    function getContractDeadLine(uint i) public view returns (uint) {\n        return Contracts[i].deadline;\n    }\n    function getContractTotalPrice(uint i) public view returns (uint) {\n        return Contracts[i].totalPrice;\n    }\n    function getContractAdvPayment(uint i) public view returns (uint) {\n        return Contracts[i].advancedPayment;\n    }\n    //----------end--------------(these functions will be used to display the contracts data to the frontend)\n\n\n\n    //Below Implementation is for extension part.\n    function requestExtension(uint _i, uint256 _time) public {\n        require(RegisteredAddressMapping[msg.sender] && farmerMapping[msg.sender].id == msg.sender && Contracts[_i].farmer == msg.sender);\n\n        extensionReq[_i].farmerReq = true;\n        extensionReq[_i].time = _time;\n    }\n\n    function getExtensionInformation(uint _i) public view returns (bool, bool, uint) {\n        return (extensionReq[_i].farmerReq,\n                extensionReq[_i].businessAcceptance,\n                extensionReq[_i].time);\n    }\n\n    function acceptExtension(uint _i) public {\n        require(RegisteredAddressMapping[msg.sender] && businessMapping[msg.sender].id == msg.sender && Contracts[_i].business == msg.sender);\n        extensionReq[_i].businessAcceptance = true;\n    }\n\n    function updateContract(uint _i) public isAdmin {\n        require(extensionReq[_i].farmerReq == true && extensionReq[_i].businessAcceptance == true);\n        Contracts[_i].deadline += extensionReq[_i].time;\n    }\n\n    //function for remaining payment\n    function payRemaining(address payable _farmer, uint256 id) public payable {\n        PaymentReceived[id] = true;\n        _farmer.transfer(msg.value);\n    }\n\n    function isComplete(uint256 id) public view returns (bool) {\n        return PaymentReceived[id];\n    }\n    \n}",
  "sourcePath": "/home/ashwin/Contract Farming Project/contracts/Farm.sol",
  "compiler": {
    "name": "solc",
    "version": "0.5.16+commit.9c3226ce.Emscripten.clang"
  },
  "schemaVersion": "3.4.16",
  "updatedAt": "2024-02-15T13:00:01.126Z",
  "networkType": "ethereum",
  "devdoc": {
    "methods": {}
  },
  "userdoc": {
    "methods": {}
  }
}