{
  "contractName": "Farm",
  "abi": [
    {
      "inputs": [],
      "payable": false,
      "stateMutability": "nonpayable",
      "type": "constructor"
    },
    {
      "constant": true,
      "inputs": [
        {
          "internalType": "uint256",
          "name": "",
          "type": "uint256"
        }
      ],
      "name": "Contracts",
      "outputs": [
        {
          "internalType": "address",
          "name": "business",
          "type": "address"
        },
        {
          "internalType": "address",
          "name": "farmer",
          "type": "address"
        },
        {
          "internalType": "uint256",
          "name": "id",
          "type": "uint256"
        },
        {
          "internalType": "string",
          "name": "crop_name",
          "type": "string"
        },
        {
          "internalType": "uint256",
          "name": "quantity_in_kg",
          "type": "uint256"
        },
        {
          "internalType": "uint256",
          "name": "price_per_kg",
          "type": "uint256"
        },
        {
          "internalType": "uint256",
          "name": "deadline",
          "type": "uint256"
        },
        {
          "internalType": "uint256",
          "name": "totalPrice",
          "type": "uint256"
        },
        {
          "internalType": "uint256",
          "name": "advancedPayment",
          "type": "uint256"
        }
      ],
      "payable": false,
      "stateMutability": "view",
      "type": "function"
    },
    {
      "constant": true,
      "inputs": [
        {
          "internalType": "uint256",
          "name": "",
          "type": "uint256"
        }
      ],
      "name": "CropReqMap",
      "outputs": [
        {
          "internalType": "uint256",
          "name": "id",
          "type": "uint256"
        },
        {
          "internalType": "address",
          "name": "business",
          "type": "address"
        },
        {
          "internalType": "string",
          "name": "crop_name",
          "type": "string"
        },
        {
          "internalType": "uint256",
          "name": "quantity_in_kg",
          "type": "uint256"
        },
        {
          "internalType": "uint256",
          "name": "price_per_kg",
          "type": "uint256"
        },
        {
          "internalType": "uint256",
          "name": "delivery_time",
          "type": "uint256"
        },
        {
          "internalType": "bool",
          "name": "status",
          "type": "bool"
        },
        {
          "internalType": "uint256",
          "name": "totalPrice",
          "type": "uint256"
        },
        {
          "internalType": "uint256",
          "name": "advancedPayment",
          "type": "uint256"
        }
      ],
      "payable": false,
      "stateMutability": "view",
      "type": "function"
    },
    {
      "constant": true,
      "inputs": [],
      "name": "CropReqMapCount",
      "outputs": [
        {
          "internalType": "uint256",
          "name": "",
          "type": "uint256"
        }
      ],
      "payable": false,
      "stateMutability": "view",
      "type": "function"
    },
    {
      "constant": true,
      "inputs": [
        {
          "internalType": "uint256",
          "name": "",
          "type": "uint256"
        }
      ],
      "name": "InspectorMapping",
      "outputs": [
        {
          "internalType": "uint256",
          "name": "id",
          "type": "uint256"
        },
        {
          "internalType": "string",
          "name": "name",
          "type": "string"
        },
        {
          "internalType": "uint256",
          "name": "age",
          "type": "uint256"
        },
        {
          "internalType": "string",
          "name": "designation",
          "type": "string"
        }
      ],
      "payable": false,
      "stateMutability": "view",
      "type": "function"
    },
    {
      "constant": true,
      "inputs": [
        {
          "internalType": "uint256",
          "name": "",
          "type": "uint256"
        }
      ],
      "name": "PaymentReceived",
      "outputs": [
        {
          "internalType": "bool",
          "name": "",
          "type": "bool"
        }
      ],
      "payable": false,
      "stateMutability": "view",
      "type": "function"
    },
    {
      "constant": true,
      "inputs": [
        {
          "internalType": "address",
          "name": "",
          "type": "address"
        }
      ],
      "name": "RegisteredAddressMapping",
      "outputs": [
        {
          "internalType": "bool",
          "name": "",
          "type": "bool"
        }
      ],
      "payable": false,
      "stateMutability": "view",
      "type": "function"
    },
    {
      "constant": true,
      "inputs": [
        {
          "internalType": "address",
          "name": "",
          "type": "address"
        }
      ],
      "name": "RegisteredBusinessMapping",
      "outputs": [
        {
          "internalType": "bool",
          "name": "",
          "type": "bool"
        }
      ],
      "payable": false,
      "stateMutability": "view",
      "type": "function"
    },
    {
      "constant": true,
      "inputs": [
        {
          "internalType": "address",
          "name": "",
          "type": "address"
        }
      ],
      "name": "RegisteredFarmerMapping",
      "outputs": [
        {
          "internalType": "bool",
          "name": "",
          "type": "bool"
        }
      ],
      "payable": false,
      "stateMutability": "view",
      "type": "function"
    },
    {
      "constant": true,
      "inputs": [
        {
          "internalType": "address",
          "name": "",
          "type": "address"
        }
      ],
      "name": "Verification",
      "outputs": [
        {
          "internalType": "bool",
          "name": "",
          "type": "bool"
        }
      ],
      "payable": false,
      "stateMutability": "view",
      "type": "function"
    },
    {
      "constant": true,
      "inputs": [
        {
          "internalType": "uint256",
          "name": "",
          "type": "uint256"
        }
      ],
      "name": "advancedPaymentReceived",
      "outputs": [
        {
          "internalType": "bool",
          "name": "",
          "type": "bool"
        }
      ],
      "payable": false,
      "stateMutability": "view",
      "type": "function"
    },
    {
      "constant": true,
      "inputs": [],
      "name": "businessCount",
      "outputs": [
        {
          "internalType": "uint256",
          "name": "",
          "type": "uint256"
        }
      ],
      "payable": false,
      "stateMutability": "view",
      "type": "function"
    },
    {
      "constant": true,
      "inputs": [
        {
          "internalType": "address",
          "name": "",
          "type": "address"
        }
      ],
      "name": "businessMapping",
      "outputs": [
        {
          "internalType": "address",
          "name": "id",
          "type": "address"
        },
        {
          "internalType": "string",
          "name": "business_name",
          "type": "string"
        },
        {
          "internalType": "string",
          "name": "city",
          "type": "string"
        },
        {
          "internalType": "string",
          "name": "companyRegistrationNumber",
          "type": "string"
        },
        {
          "internalType": "string",
          "name": "GSTnumber",
          "type": "string"
        },
        {
          "internalType": "string",
          "name": "document",
          "type": "string"
        },
        {
          "internalType": "string",
          "name": "email",
          "type": "string"
        }
      ],
      "payable": false,
      "stateMutability": "view",
      "type": "function"
    },
    {
      "constant": true,
      "inputs": [
        {
          "internalType": "uint256",
          "name": "",
          "type": "uint256"
        }
      ],
      "name": "businesses",
      "outputs": [
        {
          "internalType": "address",
          "name": "",
          "type": "address"
        }
      ],
      "payable": false,
      "stateMutability": "view",
      "type": "function"
    },
    {
      "constant": true,
      "inputs": [],
      "name": "contract_admin",
      "outputs": [
        {
          "internalType": "address",
          "name": "",
          "type": "address"
        }
      ],
      "payable": false,
      "stateMutability": "view",
      "type": "function"
    },
    {
      "constant": true,
      "inputs": [],
      "name": "contractsCount",
      "outputs": [
        {
          "internalType": "uint256",
          "name": "",
          "type": "uint256"
        }
      ],
      "payable": false,
      "stateMutability": "view",
      "type": "function"
    },
    {
      "constant": true,
      "inputs": [
        {
          "internalType": "uint256",
          "name": "",
          "type": "uint256"
        }
      ],
      "name": "extensionReq",
      "outputs": [
        {
          "internalType": "bool",
          "name": "farmerReq",
          "type": "bool"
        },
        {
          "internalType": "bool",
          "name": "businessAcceptance",
          "type": "bool"
        },
        {
          "internalType": "uint256",
          "name": "time",
          "type": "uint256"
        }
      ],
      "payable": false,
      "stateMutability": "view",
      "type": "function"
    },
    {
      "constant": true,
      "inputs": [
        {
          "internalType": "address",
          "name": "",
          "type": "address"
        }
      ],
      "name": "farmerMapping",
      "outputs": [
        {
          "internalType": "address",
          "name": "id",
          "type": "address"
        },
        {
          "internalType": "string",
          "name": "name",
          "type": "string"
        },
        {
          "internalType": "uint256",
          "name": "age",
          "type": "uint256"
        },
        {
          "internalType": "string",
          "name": "city",
          "type": "string"
        },
        {
          "internalType": "string",
          "name": "aadharNumber",
          "type": "string"
        },
        {
          "internalType": "string",
          "name": "panNumber",
          "type": "string"
        },
        {
          "internalType": "string",
          "name": "land_document",
          "type": "string"
        }
      ],
      "payable": false,
      "stateMutability": "view",
      "type": "function"
    },
    {
      "constant": true,
      "inputs": [
        {
          "internalType": "uint256",
          "name": "",
          "type": "uint256"
        }
      ],
      "name": "farmers",
      "outputs": [
        {
          "internalType": "address",
          "name": "",
          "type": "address"
        }
      ],
      "payable": false,
      "stateMutability": "view",
      "type": "function"
    },
    {
      "constant": true,
      "inputs": [],
      "name": "farmersCount",
      "outputs": [
        {
          "internalType": "uint256",
          "name": "",
          "type": "uint256"
        }
      ],
      "payable": false,
      "stateMutability": "view",
      "type": "function"
    },
    {
      "constant": true,
      "inputs": [],
      "name": "inspectorsCount",
      "outputs": [
        {
          "internalType": "uint256",
          "name": "",
          "type": "uint256"
        }
      ],
      "payable": false,
      "stateMutability": "view",
      "type": "function"
    },
    {
      "constant": true,
      "inputs": [
        {
          "internalType": "address",
          "name": "",
          "type": "address"
        }
      ],
      "name": "rejection",
      "outputs": [
        {
          "internalType": "bool",
          "name": "",
          "type": "bool"
        }
      ],
      "payable": false,
      "stateMutability": "view",
      "type": "function"
    },
    {
      "constant": true,
      "inputs": [
        {
          "internalType": "uint256",
          "name": "",
          "type": "uint256"
        }
      ],
      "name": "requestMapping",
      "outputs": [
        {
          "internalType": "address",
          "name": "",
          "type": "address"
        }
      ],
      "payable": false,
      "stateMutability": "view",
      "type": "function"
    },
    {
      "constant": true,
      "inputs": [
        {
          "internalType": "uint256",
          "name": "",
          "type": "uint256"
        }
      ],
      "name": "requested",
      "outputs": [
        {
          "internalType": "bool",
          "name": "",
          "type": "bool"
        }
      ],
      "payable": false,
      "stateMutability": "view",
      "type": "function"
    },
    {
      "constant": true,
      "inputs": [],
      "name": "totalRequest",
      "outputs": [
        {
          "internalType": "uint256",
          "name": "",
          "type": "uint256"
        }
      ],
      "payable": false,
      "stateMutability": "view",
      "type": "function"
    },
    {
      "constant": true,
      "inputs": [],
      "name": "getBusinessCount",
      "outputs": [
        {
          "internalType": "uint256",
          "name": "",
          "type": "uint256"
        }
      ],
      "payable": false,
      "stateMutability": "view",
      "type": "function"
    },
    {
      "constant": true,
      "inputs": [],
      "name": "getInspectorCount",
      "outputs": [
        {
          "internalType": "uint256",
          "name": "",
          "type": "uint256"
        }
      ],
      "payable": false,
      "stateMutability": "view",
      "type": "function"
    },
    {
      "constant": true,
      "inputs": [],
      "name": "getFarmersCount",
      "outputs": [
        {
          "internalType": "uint256",
          "name": "",
          "type": "uint256"
        }
      ],
      "payable": false,
      "stateMutability": "view",
      "type": "function"
    },
    {
      "constant": true,
      "inputs": [],
      "name": "getCropReqCount",
      "outputs": [
        {
          "internalType": "uint256",
          "name": "",
          "type": "uint256"
        }
      ],
      "payable": false,
      "stateMutability": "view",
      "type": "function"
    },
    {
      "constant": true,
      "inputs": [],
      "name": "getTotalRequestCount",
      "outputs": [
        {
          "internalType": "uint256",
          "name": "",
          "type": "uint256"
        }
      ],
      "payable": false,
      "stateMutability": "view",
      "type": "function"
    },
    {
      "constant": false,
      "inputs": [
        {
          "internalType": "string",
          "name": "name",
          "type": "string"
        },
        {
          "internalType": "uint256",
          "name": "age",
          "type": "uint256"
        },
        {
          "internalType": "string",
          "name": "city",
          "type": "string"
        },
        {
          "internalType": "string",
          "name": "aadharNumber",
          "type": "string"
        },
        {
          "internalType": "string",
          "name": "panNumber",
          "type": "string"
        },
        {
          "internalType": "string",
          "name": "land_document",
          "type": "string"
        }
      ],
      "name": "addFarmer",
      "outputs": [],
      "payable": false,
      "stateMutability": "nonpayable",
      "type": "function"
    },
    {
      "constant": false,
      "inputs": [
        {
          "internalType": "string",
          "name": "_name",
          "type": "string"
        },
        {
          "internalType": "uint256",
          "name": "_age",
          "type": "uint256"
        },
        {
          "internalType": "string",
          "name": "_city",
          "type": "string"
        },
        {
          "internalType": "string",
          "name": "_aadharNumber",
          "type": "string"
        },
        {
          "internalType": "string",
          "name": "_panNumber",
          "type": "string"
        },
        {
          "internalType": "string",
          "name": "_land_document",
          "type": "string"
        }
      ],
      "name": "updateFarmer",
      "outputs": [],
      "payable": false,
      "stateMutability": "nonpayable",
      "type": "function"
    },
    {
      "constant": true,
      "inputs": [],
      "name": "getFarmers",
      "outputs": [
        {
          "internalType": "address[]",
          "name": "",
          "type": "address[]"
        }
      ],
      "payable": false,
      "stateMutability": "view",
      "type": "function"
    },
    {
      "constant": true,
      "inputs": [
        {
          "internalType": "address",
          "name": "i",
          "type": "address"
        }
      ],
      "name": "getFarmerDetails",
      "outputs": [
        {
          "internalType": "string",
          "name": "",
          "type": "string"
        },
        {
          "internalType": "uint256",
          "name": "",
          "type": "uint256"
        },
        {
          "internalType": "string",
          "name": "",
          "type": "string"
        },
        {
          "internalType": "string",
          "name": "",
          "type": "string"
        },
        {
          "internalType": "string",
          "name": "",
          "type": "string"
        },
        {
          "internalType": "string",
          "name": "",
          "type": "string"
        }
      ],
      "payable": false,
      "stateMutability": "view",
      "type": "function"
    },
    {
      "constant": false,
      "inputs": [
        {
          "internalType": "string",
          "name": "business_name",
          "type": "string"
        },
        {
          "internalType": "string",
          "name": "city",
          "type": "string"
        },
        {
          "internalType": "string",
          "name": "companyRegistrationNumber",
          "type": "string"
        },
        {
          "internalType": "string",
          "name": "GSTnumber",
          "type": "string"
        },
        {
          "internalType": "string",
          "name": "document",
          "type": "string"
        },
        {
          "internalType": "string",
          "name": "email",
          "type": "string"
        }
      ],
      "name": "addBusiness",
      "outputs": [],
      "payable": false,
      "stateMutability": "nonpayable",
      "type": "function"
    },
    {
      "constant": false,
      "inputs": [
        {
          "internalType": "string",
          "name": "_business_name",
          "type": "string"
        },
        {
          "internalType": "string",
          "name": "_city",
          "type": "string"
        },
        {
          "internalType": "string",
          "name": "_companyRegistrationNumber",
          "type": "string"
        },
        {
          "internalType": "string",
          "name": "_GSTnumber",
          "type": "string"
        },
        {
          "internalType": "string",
          "name": "_document",
          "type": "string"
        },
        {
          "internalType": "string",
          "name": "_email",
          "type": "string"
        }
      ],
      "name": "updateBusiness",
      "outputs": [],
      "payable": false,
      "stateMutability": "nonpayable",
      "type": "function"
    },
    {
      "constant": true,
      "inputs": [],
      "name": "getBusinesses",
      "outputs": [
        {
          "internalType": "address[]",
          "name": "",
          "type": "address[]"
        }
      ],
      "payable": false,
      "stateMutability": "view",
      "type": "function"
    },
    {
      "constant": true,
      "inputs": [
        {
          "internalType": "address",
          "name": "i",
          "type": "address"
        }
      ],
      "name": "getBusinessDetails",
      "outputs": [
        {
          "internalType": "string",
          "name": "",
          "type": "string"
        },
        {
          "internalType": "string",
          "name": "",
          "type": "string"
        },
        {
          "internalType": "string",
          "name": "",
          "type": "string"
        },
        {
          "internalType": "string",
          "name": "",
          "type": "string"
        },
        {
          "internalType": "string",
          "name": "",
          "type": "string"
        },
        {
          "internalType": "string",
          "name": "",
          "type": "string"
        }
      ],
      "payable": false,
      "stateMutability": "view",
      "type": "function"
    },
    {
      "constant": true,
      "inputs": [
        {
          "internalType": "address",
          "name": "_id",
          "type": "address"
        }
      ],
      "name": "isFarmer",
      "outputs": [
        {
          "internalType": "bool",
          "name": "",
          "type": "bool"
        }
      ],
      "payable": false,
      "stateMutability": "view",
      "type": "function"
    },
    {
      "constant": true,
      "inputs": [
        {
          "internalType": "address",
          "name": "_id",
          "type": "address"
        }
      ],
      "name": "isAdmin1",
      "outputs": [
        {
          "internalType": "bool",
          "name": "",
          "type": "bool"
        }
      ],
      "payable": false,
      "stateMutability": "view",
      "type": "function"
    },
    {
      "constant": true,
      "inputs": [
        {
          "internalType": "address",
          "name": "_id",
          "type": "address"
        }
      ],
      "name": "isBusiness",
      "outputs": [
        {
          "internalType": "bool",
          "name": "",
          "type": "bool"
        }
      ],
      "payable": false,
      "stateMutability": "view",
      "type": "function"
    },
    {
      "constant": true,
      "inputs": [
        {
          "internalType": "address",
          "name": "_id",
          "type": "address"
        }
      ],
      "name": "isVerified1",
      "outputs": [
        {
          "internalType": "bool",
          "name": "",
          "type": "bool"
        }
      ],
      "payable": false,
      "stateMutability": "view",
      "type": "function"
    },
    {
      "constant": false,
      "inputs": [
        {
          "internalType": "address",
          "name": "walletID",
          "type": "address"
        }
      ],
      "name": "verify",
      "outputs": [],
      "payable": false,
      "stateMutability": "nonpayable",
      "type": "function"
    },
    {
      "constant": false,
      "inputs": [
        {
          "internalType": "address",
          "name": "walletID",
          "type": "address"
        }
      ],
      "name": "reject",
      "outputs": [],
      "payable": false,
      "stateMutability": "nonpayable",
      "type": "function"
    },
    {
      "constant": true,
      "inputs": [
        {
          "internalType": "address",
          "name": "walletID",
          "type": "address"
        }
      ],
      "name": "isRejected",
      "outputs": [
        {
          "internalType": "bool",
          "name": "",
          "type": "bool"
        }
      ],
      "payable": false,
      "stateMutability": "view",
      "type": "function"
    },
    {
      "constant": false,
      "inputs": [
        {
          "internalType": "string",
          "name": "crop_name",
          "type": "string"
        },
        {
          "internalType": "uint256",
          "name": "quantity_in_kg",
          "type": "uint256"
        },
        {
          "internalType": "uint256",
          "name": "price_per_kg",
          "type": "uint256"
        },
        {
          "internalType": "uint256",
          "name": "deliveryTime",
          "type": "uint256"
        },
        {
          "internalType": "uint256",
          "name": "_total",
          "type": "uint256"
        },
        {
          "internalType": "uint256",
          "name": "_advPayment",
          "type": "uint256"
        }
      ],
      "name": "addCropRequirement",
      "outputs": [],
      "payable": false,
      "stateMutability": "nonpayable",
      "type": "function"
    },
    {
      "constant": true,
      "inputs": [
        {
          "internalType": "uint256",
          "name": "i",
          "type": "uint256"
        }
      ],
      "name": "getCropRequirementBusiness",
      "outputs": [
        {
          "internalType": "address",
          "name": "",
          "type": "address"
        }
      ],
      "payable": false,
      "stateMutability": "view",
      "type": "function"
    },
    {
      "constant": true,
      "inputs": [
        {
          "internalType": "uint256",
          "name": "i",
          "type": "uint256"
        }
      ],
      "name": "getCropRequirementCropName",
      "outputs": [
        {
          "internalType": "string",
          "name": "",
          "type": "string"
        }
      ],
      "payable": false,
      "stateMutability": "view",
      "type": "function"
    },
    {
      "constant": true,
      "inputs": [
        {
          "internalType": "uint256",
          "name": "i",
          "type": "uint256"
        }
      ],
      "name": "getCropRequirementQuantity",
      "outputs": [
        {
          "internalType": "uint256",
          "name": "",
          "type": "uint256"
        }
      ],
      "payable": false,
      "stateMutability": "view",
      "type": "function"
    },
    {
      "constant": true,
      "inputs": [
        {
          "internalType": "uint256",
          "name": "i",
          "type": "uint256"
        }
      ],
      "name": "getCropRequirementPrice",
      "outputs": [
        {
          "internalType": "uint256",
          "name": "",
          "type": "uint256"
        }
      ],
      "payable": false,
      "stateMutability": "view",
      "type": "function"
    },
    {
      "constant": true,
      "inputs": [
        {
          "internalType": "uint256",
          "name": "i",
          "type": "uint256"
        }
      ],
      "name": "getCropRequirementDelTime",
      "outputs": [
        {
          "internalType": "uint256",
          "name": "",
          "type": "uint256"
        }
      ],
      "payable": false,
      "stateMutability": "view",
      "type": "function"
    },
    {
      "constant": true,
      "inputs": [
        {
          "internalType": "uint256",
          "name": "i",
          "type": "uint256"
        }
      ],
      "name": "getCropRequirementStatus",
      "outputs": [
        {
          "internalType": "bool",
          "name": "",
          "type": "bool"
        }
      ],
      "payable": false,
      "stateMutability": "view",
      "type": "function"
    },
    {
      "constant": true,
      "inputs": [
        {
          "internalType": "uint256",
          "name": "i",
          "type": "uint256"
        }
      ],
      "name": "getCropRequirementTotalPrice",
      "outputs": [
        {
          "internalType": "uint256",
          "name": "",
          "type": "uint256"
        }
      ],
      "payable": false,
      "stateMutability": "view",
      "type": "function"
    },
    {
      "constant": true,
      "inputs": [
        {
          "internalType": "uint256",
          "name": "i",
          "type": "uint256"
        }
      ],
      "name": "getCropRequirementAdvPayment",
      "outputs": [
        {
          "internalType": "uint256",
          "name": "",
          "type": "uint256"
        }
      ],
      "payable": false,
      "stateMutability": "view",
      "type": "function"
    },
    {
      "constant": false,
      "inputs": [
        {
          "internalType": "uint256",
          "name": "i",
          "type": "uint256"
        }
      ],
      "name": "requestContract",
      "outputs": [],
      "payable": false,
      "stateMutability": "nonpayable",
      "type": "function"
    },
    {
      "constant": true,
      "inputs": [
        {
          "internalType": "uint256",
          "name": "index",
          "type": "uint256"
        }
      ],
      "name": "isRequested",
      "outputs": [
        {
          "internalType": "bool",
          "name": "",
          "type": "bool"
        }
      ],
      "payable": false,
      "stateMutability": "view",
      "type": "function"
    },
    {
      "constant": false,
      "inputs": [
        {
          "internalType": "address payable",
          "name": "farmerAddress",
          "type": "address"
        },
        {
          "internalType": "uint256",
          "name": "i",
          "type": "uint256"
        }
      ],
      "name": "signContract",
      "outputs": [],
      "payable": true,
      "stateMutability": "payable",
      "type": "function"
    },
    {
      "constant": true,
      "inputs": [
        {
          "internalType": "uint256",
          "name": "i",
          "type": "uint256"
        }
      ],
      "name": "getContractBusiness",
      "outputs": [
        {
          "internalType": "address",
          "name": "",
          "type": "address"
        }
      ],
      "payable": false,
      "stateMutability": "view",
      "type": "function"
    },
    {
      "constant": true,
      "inputs": [
        {
          "internalType": "uint256",
          "name": "i",
          "type": "uint256"
        }
      ],
      "name": "getContractFarmer",
      "outputs": [
        {
          "internalType": "address",
          "name": "",
          "type": "address"
        }
      ],
      "payable": false,
      "stateMutability": "view",
      "type": "function"
    },
    {
      "constant": true,
      "inputs": [
        {
          "internalType": "uint256",
          "name": "i",
          "type": "uint256"
        }
      ],
      "name": "getContractId",
      "outputs": [
        {
          "internalType": "uint256",
          "name": "",
          "type": "uint256"
        }
      ],
      "payable": false,
      "stateMutability": "view",
      "type": "function"
    },
    {
      "constant": true,
      "inputs": [
        {
          "internalType": "uint256",
          "name": "i",
          "type": "uint256"
        }
      ],
      "name": "getContractCropName",
      "outputs": [
        {
          "internalType": "string",
          "name": "",
          "type": "string"
        }
      ],
      "payable": false,
      "stateMutability": "view",
      "type": "function"
    },
    {
      "constant": true,
      "inputs": [
        {
          "internalType": "uint256",
          "name": "i",
          "type": "uint256"
        }
      ],
      "name": "getContractQuantity",
      "outputs": [
        {
          "internalType": "uint256",
          "name": "",
          "type": "uint256"
        }
      ],
      "payable": false,
      "stateMutability": "view",
      "type": "function"
    },
    {
      "constant": true,
      "inputs": [
        {
          "internalType": "uint256",
          "name": "i",
          "type": "uint256"
        }
      ],
      "name": "getContractPrice",
      "outputs": [
        {
          "internalType": "uint256",
          "name": "",
          "type": "uint256"
        }
      ],
      "payable": false,
      "stateMutability": "view",
      "type": "function"
    },
    {
      "constant": true,
      "inputs": [
        {
          "internalType": "uint256",
          "name": "i",
          "type": "uint256"
        }
      ],
      "name": "getContractDeadLine",
      "outputs": [
        {
          "internalType": "uint256",
          "name": "",
          "type": "uint256"
        }
      ],
      "payable": false,
      "stateMutability": "view",
      "type": "function"
    },
    {
      "constant": true,
      "inputs": [
        {
          "internalType": "uint256",
          "name": "i",
          "type": "uint256"
        }
      ],
      "name": "getContractTotalPrice",
      "outputs": [
        {
          "internalType": "uint256",
          "name": "",
          "type": "uint256"
        }
      ],
      "payable": false,
      "stateMutability": "view",
      "type": "function"
    },
    {
      "constant": true,
      "inputs": [
        {
          "internalType": "uint256",
          "name": "i",
          "type": "uint256"
        }
      ],
      "name": "getContractAdvPayment",
      "outputs": [
        {
          "internalType": "uint256",
          "name": "",
          "type": "uint256"
        }
      ],
      "payable": false,
      "stateMutability": "view",
      "type": "function"
    },
    {
      "constant": false,
      "inputs": [
        {
          "internalType": "uint256",
          "name": "_i",
          "type": "uint256"
        },
        {
          "internalType": "uint256",
          "name": "_time",
          "type": "uint256"
        }
      ],
      "name": "requestExtension",
      "outputs": [],
      "payable": false,
      "stateMutability": "nonpayable",
      "type": "function"
    },
    {
      "constant": true,
      "inputs": [
        {
          "internalType": "uint256",
          "name": "_i",
          "type": "uint256"
        }
      ],
      "name": "getExtensionInformation",
      "outputs": [
        {
          "internalType": "bool",
          "name": "",
          "type": "bool"
        },
        {
          "internalType": "bool",
          "name": "",
          "type": "bool"
        },
        {
          "internalType": "uint256",
          "name": "",
          "type": "uint256"
        }
      ],
      "payable": false,
      "stateMutability": "view",
      "type": "function"
    },
    {
      "constant": false,
      "inputs": [
        {
          "internalType": "uint256",
          "name": "_i",
          "type": "uint256"
        }
      ],
      "name": "acceptExtension",
      "outputs": [],
      "payable": false,
      "stateMutability": "nonpayable",
      "type": "function"
    },
    {
      "constant": false,
      "inputs": [
        {
          "internalType": "uint256",
          "name": "_i",
          "type": "uint256"
        }
      ],
      "name": "updateContract",
      "outputs": [],
      "payable": false,
      "stateMutability": "nonpayable",
      "type": "function"
    },
    {
      "constant": false,
      "inputs": [
        {
          "internalType": "address payable",
          "name": "_farmer",
          "type": "address"
        },
        {
          "internalType": "uint256",
          "name": "id",
          "type": "uint256"
        }
      ],
      "name": "payRemaining",
      "outputs": [],
      "payable": true,
      "stateMutability": "payable",
      "type": "function"
    },
    {
      "constant": true,
      "inputs": [
        {
          "internalType": "uint256",
          "name": "id",
          "type": "uint256"
        }
      ],
      "name": "isComplete",
      "outputs": [
        {
          "internalType": "bool",
          "name": "",
          "type": "bool"
        }
      ],
      "payable": false,
      "stateMutability": "view",
      "type": "function"
    }
  ],
  "bytecode": "0x60806040526005600f5560006015553480156200001b57600080fd5b5060008054600160a060020a03191633179055604080518082018252600b81527f496e73706563746f7220310000000000000000000000000000000000000000006020808301919091528251808401909352600e83527f54656873696c204d616e6167657200000000000000000000000000000000000090830152620000ad91602d90640100000000620000b3810204565b620001e2565b6010805460019081019182905560408051608081018252838152602080820188815282840188905260608301879052600095865260028252929094208151815591518051919492936200010d93908501929101906200013d565b506040820151600282015560608201518051620001359160038401916020909101906200013d565b505050505050565b828054600181600116156101000203166002900490600052602060002090601f016020900481019282601f106200018057805160ff1916838001178555620001b0565b82800160010185558215620001b0579182015b82811115620001b057825182559160200191906001019062000193565b50620001be929150620001c2565b5090565b620001df91905b80821115620001be5760008155600101620001c9565b90565b614ad380620001f26000396000f3fe60806040526004361061049d576000357c01000000000000000000000000000000000000000000000000000000009004806390db684c1161027b578063be5df21411610160578063da2aff2a116100d8578063ef492ff6116100a7578063f58f85b51161008c578063f58f85b5146127ed578063f6dc606814612820578063fc88210a146128535761049d565b8063ef492ff61461246d578063f1f3e5a9146127c35761049d565b8063da2aff2a146122ee578063def936c314612303578063e250fc7b14612419578063e65a57f1146124435761049d565b8063cf2142e61161012f578063d335ccfa11610114578063d335ccfa14612050578063d399c54b1461229a578063d85e98e5146122c45761049d565b8063cf2142e614611d62578063d18264e914611d8e5761049d565b8063be5df21414611ccf578063bf9ede3014611cf9578063c4fecdb614611d23578063c697615714611d385761049d565b8063ab9ef11f116101f3578063b8e25c1c116101c2578063b984c6ec116101a7578063b984c6ec1461197a578063bc9e2b6d146119a4578063bd75786014611c055761049d565b8063b8e25c1c1461191b578063b9429069146119475761049d565b8063ab9ef11f14611888578063af786281146118b2578063b43b24fe146118c7578063b52e333b146118f15761049d565b8063a8d166401161024a578063aab1418a1161022f578063aab1418a14611816578063ab0da5a914611840578063ab95a748146118735761049d565b8063a8d1664014611515578063a8f916041461153f5761049d565b806390db684c146113f157806392d2473214611424578063941e2426146114d05780639f369aa9146114e55761049d565b806348a46bd3116103a1578063789f8d401161031957806386b7da2f116102e85780638a795503116102cd5780638a795503146110665780638afdd669146111645780638df9b6ee1461118e5761049d565b806386b7da2f14610fe9578063883436a11461101c5761049d565b8063789f8d4014610f805780637b1d434814610f955780637ced45d114610faa57806382e215ab14610fbf5761049d565b8063612597451161037057806367cb77e71161035557806367cb77e714610c005780636da36c0614610c155780636fb9e80314610c2a5761049d565b80636125974514610bb857806363a9c3d714610bcd5761049d565b806348a46bd3146108585780634a1df9f91461088b5780634fe536a9146108b5578063598fb0d6146108e15761049d565b80631ed0fca611610434578063330820bc116104035780633a0be1a6116103e85780633a0be1a61461079f5780633ba18d7d146107c95780633e6126541461082e5761049d565b8063330820bc1461074257806338f4e6c51461076c5761049d565b80631ed0fca61461069357806324d328fc146106d957806326cccdff14610703578063285ab266146107185761049d565b80631466d019116104705780631466d0191461056d5780631558b245146105a0578063155fec721461063f5780631a07f76e146106695761049d565b80630419e7ef146104a2578063045b2c06146104c957806305cf45bd146105105780630835b56514610543575b600080fd5b3480156104ae57600080fd5b506104b761287d565b60408051918252519081900360200190f35b3480156104d557600080fd5b506104fc600480360360208110156104ec57600080fd5b5035600160a060020a0316612883565b604080519115158252519081900360200190f35b34801561051c57600080fd5b506104fc6004803603602081101561053357600080fd5b5035600160a060020a03166128ab565b34801561054f57600080fd5b506104b76004803603602081101561056657600080fd5b50356128d9565b34801561057957600080fd5b506104fc6004803603602081101561059057600080fd5b5035600160a060020a0316612901565b3480156105ac57600080fd5b506105ca600480360360208110156105c357600080fd5b503561292a565b6040805160208082528351818301528351919283929083019185019080838360005b838110156106045781810151838201526020016105ec565b50505050905090810190601f1680156106315780820380516001836020036101000a031916815260200191505b509250505060405180910390f35b34801561064b57600080fd5b506104fc6004803603602081101561066257600080fd5b50356129dd565b34801561067557600080fd5b506104fc6004803603602081101561068c57600080fd5b5035612a1f565b34801561069f57600080fd5b506106bd600480360360208110156106b657600080fd5b5035612a50565b60408051600160a060020a039092168252519081900360200190f35b3480156106e557600080fd5b506104fc600480360360208110156106fc57600080fd5b5035612a7f565b34801561070f57600080fd5b506104b7612a8c565b34801561072457600080fd5b506105ca6004803603602081101561073b57600080fd5b5035612a92565b34801561074e57600080fd5b506104fc6004803603602081101561076557600080fd5b5035612b0c565b34801561077857600080fd5b506104fc6004803603602081101561078f57600080fd5b5035600160a060020a0316612b38565b3480156107ab57600080fd5b506104fc600480360360208110156107c257600080fd5b5035612b4d565b3480156107d557600080fd5b506107de612b83565b60408051602080825283518183015283519192839290830191858101910280838360005b8381101561081a578181015183820152602001610802565b505050509050019250505060405180910390f35b34801561083a57600080fd5b506104b76004803603602081101561085157600080fd5b5035612be6565b34801561086457600080fd5b506104fc6004803603602081101561087b57600080fd5b5035600160a060020a0316612c0e565b34801561089757600080fd5b506106bd600480360360208110156108ae57600080fd5b5035612c37565b3480156108c157600080fd5b506108df600480360360208110156108d857600080fd5b5035612c69565b005b3480156108ed57600080fd5b506108df600480360360c081101561090457600080fd5b81019060208101813564010000000081111561091f57600080fd5b82018360208201111561093157600080fd5b8035906020019184600183028401116401000000008311171561095357600080fd5b91908080601f016020809104026020016040519081016040528093929190818152602001838380828437600092019190915250929584359590949093506040810192506020013590506401000000008111156109ae57600080fd5b8201836020820111156109c057600080fd5b803590602001918460018302840111640100000000831117156109e257600080fd5b91908080601f0160208091040260200160405190810160405280939291908181526020018383808284376000920191909152509295949360208101935035915050640100000000811115610a3557600080fd5b820183602082011115610a4757600080fd5b80359060200191846001830284011164010000000083111715610a6957600080fd5b91908080601f0160208091040260200160405190810160405280939291908181526020018383808284376000920191909152509295949360208101935035915050640100000000811115610abc57600080fd5b820183602082011115610ace57600080fd5b80359060200191846001830284011164010000000083111715610af057600080fd5b91908080601f0160208091040260200160405190810160405280939291908181526020018383808284376000920191909152509295949360208101935035915050640100000000811115610b4357600080fd5b820183602082011115610b5557600080fd5b80359060200191846001830284011164010000000083111715610b7757600080fd5b91908080601f016020809104026020016040519081016040528093929190818152602001838380828437600092019190915250929550612d15945050505050565b348015610bc457600080fd5b506104b7612ea9565b348015610bd957600080fd5b506108df60048036036020811015610bf057600080fd5b5035600160a060020a0316612eaf565b348015610c0c57600080fd5b506104b7612eea565b348015610c2157600080fd5b506106bd612ef0565b348015610c3657600080fd5b506108df600480360360c0811015610c4d57600080fd5b810190602081018135640100000000811115610c6857600080fd5b820183602082011115610c7a57600080fd5b80359060200191846001830284011164010000000083111715610c9c57600080fd5b91908080601f0160208091040260200160405190810160405280939291908181526020018383808284376000920191909152509295949360208101935035915050640100000000811115610cef57600080fd5b820183602082011115610d0157600080fd5b80359060200191846001830284011164010000000083111715610d2357600080fd5b91908080601f0160208091040260200160405190810160405280939291908181526020018383808284376000920191909152509295949360208101935035915050640100000000811115610d7657600080fd5b820183602082011115610d8857600080fd5b80359060200191846001830284011164010000000083111715610daa57600080fd5b91908080601f0160208091040260200160405190810160405280939291908181526020018383808284376000920191909152509295949360208101935035915050640100000000811115610dfd57600080fd5b820183602082011115610e0f57600080fd5b80359060200191846001830284011164010000000083111715610e3157600080fd5b91908080601f0160208091040260200160405190810160405280939291908181526020018383808284376000920191909152509295949360208101935035915050640100000000811115610e8457600080fd5b820183602082011115610e9657600080fd5b80359060200191846001830284011164010000000083111715610eb857600080fd5b91908080601f0160208091040260200160405190810160405280939291908181526020018383808284376000920191909152509295949360208101935035915050640100000000811115610f0b57600080fd5b820183602082011115610f1d57600080fd5b80359060200191846001830284011164010000000083111715610f3f57600080fd5b91908080601f016020809104026020016040519081016040528093929190818152602001838380828437600092019190915250929550612eff945050505050565b348015610f8c57600080fd5b506107de613046565b348015610fa157600080fd5b506104b76130a6565b348015610fb657600080fd5b506104b76130ac565b348015610fcb57600080fd5b506106bd60048036036020811015610fe257600080fd5b50356130b2565b348015610ff557600080fd5b506104fc6004803603602081101561100c57600080fd5b5035600160a060020a03166130cd565b34801561102857600080fd5b506110466004803603602081101561103f57600080fd5b50356130e2565b604080519315158452911515602084015282820152519081900360600190f35b34801561107257600080fd5b506110906004803603602081101561108957600080fd5b5035613108565b604051808a600160a060020a0316600160a060020a0316815260200189600160a060020a0316600160a060020a0316815260200188815260200180602001878152602001868152602001858152602001848152602001838152602001828103825288818151815260200191508051906020019080838360005b83811015611121578181015183820152602001611109565b50505050905090810190601f16801561114e5780820380516001836020036101000a031916815260200191505b509a505050505050505050505060405180910390f35b34801561117057600080fd5b506106bd6004803603602081101561118757600080fd5b50356131f7565b34801561119a57600080fd5b506111c1600480360360208110156111b157600080fd5b5035600160a060020a031661321e565b6040518088600160a060020a0316600160a060020a03168152602001806020018781526020018060200180602001806020018060200186810386528c818151815260200191508051906020019080838360005b8381101561122c578181015183820152602001611214565b50505050905090810190601f1680156112595780820380516001836020036101000a031916815260200191505b5086810385528a5181528a516020918201918c019080838360005b8381101561128c578181015183820152602001611274565b50505050905090810190601f1680156112b95780820380516001836020036101000a031916815260200191505b5086810384528951815289516020918201918b019080838360005b838110156112ec5781810151838201526020016112d4565b50505050905090810190601f1680156113195780820380516001836020036101000a031916815260200191505b5086810383528851815288516020918201918a019080838360005b8381101561134c578181015183820152602001611334565b50505050905090810190601f1680156113795780820380516001836020036101000a031916815260200191505b50868103825287518152875160209182019189019080838360005b838110156113ac578181015183820152602001611394565b50505050905090810190601f1680156113d95780820380516001836020036101000a031916815260200191505b509c5050505050505050505050505060405180910390f35b3480156113fd57600080fd5b506104fc6004803603602081101561141457600080fd5b5035600160a060020a031661351a565b34801561143057600080fd5b5061144e6004803603602081101561144757600080fd5b503561352f565b604051808a815260200189600160a060020a0316600160a060020a0316815260200180602001888152602001878152602001868152602001851515151581526020018481526020018381526020018281038252898181518152602001915080519060200190808383600083811015611121578181015183820152602001611109565b3480156114dc57600080fd5b506104b7613621565b3480156114f157600080fd5b506108df6004803603604081101561150857600080fd5b5080359060200135613627565b34801561152157600080fd5b506104b76004803603602081101561153857600080fd5b50356136c2565b34801561154b57600080fd5b506108df600480360360c081101561156257600080fd5b81019060208101813564010000000081111561157d57600080fd5b82018360208201111561158f57600080fd5b803590602001918460018302840111640100000000831117156115b157600080fd5b91908080601f0160208091040260200160405190810160405280939291908181526020018383808284376000920191909152509295843595909490935060408101925060200135905064010000000081111561160c57600080fd5b82018360208201111561161e57600080fd5b8035906020019184600183028401116401000000008311171561164057600080fd5b91908080601f016020809104026020016040519081016040528093929190818152602001838380828437600092019190915250929594936020810193503591505064010000000081111561169357600080fd5b8201836020820111156116a557600080fd5b803590602001918460018302840111640100000000831117156116c757600080fd5b91908080601f016020809104026020016040519081016040528093929190818152602001838380828437600092019190915250929594936020810193503591505064010000000081111561171a57600080fd5b82018360208201111561172c57600080fd5b8035906020019184600183028401116401000000008311171561174e57600080fd5b91908080601f01602080910402602001604051908101604052809392919081815260200183838082843760009201919091525092959493602081019350359150506401000000008111156117a157600080fd5b8201836020820111156117b357600080fd5b803590602001918460018302840111640100000000831117156117d557600080fd5b91908080601f0160208091040260200160405190810160405280939291908181526020018383808284376000920191909152509295506136ea945050505050565b34801561182257600080fd5b506104b76004803603602081101561183957600080fd5b50356137fa565b34801561184c57600080fd5b506108df6004803603602081101561186357600080fd5b5035600160a060020a0316613822565b34801561187f57600080fd5b506104b761385d565b34801561189457600080fd5b50611046600480360360208110156118ab57600080fd5b5035613863565b3480156118be57600080fd5b506104b7613889565b3480156118d357600080fd5b506104b7600480360360208110156118ea57600080fd5b503561388f565b3480156118fd57600080fd5b506106bd6004803603602081101561191457600080fd5b50356138b7565b6108df6004803603604081101561193157600080fd5b50600160a060020a0381351690602001356138c6565b34801561195357600080fd5b506104fc6004803603602081101561196a57600080fd5b5035600160a060020a0316613937565b34801561198657600080fd5b506106bd6004803603602081101561199d57600080fd5b5035613960565b3480156119b057600080fd5b506119d7600480360360208110156119c757600080fd5b5035600160a060020a031661396d565b6040518080602001806020018060200180602001806020018060200187810387528d818151815260200191508051906020019080838360005b83811015611a28578181015183820152602001611a10565b50505050905090810190601f168015611a555780820380516001836020036101000a031916815260200191505b5087810386528c5181528c516020918201918e019080838360005b83811015611a88578181015183820152602001611a70565b50505050905090810190601f168015611ab55780820380516001836020036101000a031916815260200191505b5087810385528b5181528b516020918201918d019080838360005b83811015611ae8578181015183820152602001611ad0565b50505050905090810190601f168015611b155780820380516001836020036101000a031916815260200191505b5087810384528a5181528a516020918201918c019080838360005b83811015611b48578181015183820152602001611b30565b50505050905090810190601f168015611b755780820380516001836020036101000a031916815260200191505b5087810383528951815289516020918201918b019080838360005b83811015611ba8578181015183820152602001611b90565b50505050905090810190601f168015611bd55780820380516001836020036101000a031916815260200191505b5087810382528851815288516020918201918a0190808383600083156113ac578181015183820152602001611394565b348015611c1157600080fd5b506108df600480360360c0811015611c2857600080fd5b810190602081018135640100000000811115611c4357600080fd5b820183602082011115611c5557600080fd5b80359060200191846001830284011164010000000083111715611c7757600080fd5b91908080601f0160208091040260200160405190810160405280939291908181526020018383808284376000920191909152509295505082359350505060208101359060408101359060608101359060800135613d12565b348015611cdb57600080fd5b506104b760048036036020811015611cf257600080fd5b5035613ecd565b348015611d0557600080fd5b506104b760048036036020811015611d1c57600080fd5b5035613edc565b348015611d2f57600080fd5b506104b7613eeb565b348015611d4457600080fd5b506104b760048036036020811015611d5b57600080fd5b5035613ef1565b6108df60048036036040811015611d7857600080fd5b50600160a060020a038135169060200135613f00565b348015611d9a57600080fd5b50611dc160048036036020811015611db157600080fd5b5035600160a060020a0316614305565b6040518088600160a060020a0316600160a060020a0316815260200180602001806020018060200180602001806020018060200187810387528d818151815260200191508051906020019080838360005b83811015611e2a578181015183820152602001611e12565b50505050905090810190601f168015611e575780820380516001836020036101000a031916815260200191505b5087810386528c5181528c516020918201918e019080838360005b83811015611e8a578181015183820152602001611e72565b50505050905090810190601f168015611eb75780820380516001836020036101000a031916815260200191505b5087810385528b5181528b516020918201918d019080838360005b83811015611eea578181015183820152602001611ed2565b50505050905090810190601f168015611f175780820380516001836020036101000a031916815260200191505b5087810384528a5181528a516020918201918c019080838360005b83811015611f4a578181015183820152602001611f32565b50505050905090810190601f168015611f775780820380516001836020036101000a031916815260200191505b5087810383528951815289516020918201918b019080838360005b83811015611faa578181015183820152602001611f92565b50505050905090810190601f168015611fd75780820380516001836020036101000a031916815260200191505b5087810382528851815288516020918201918a019080838360005b8381101561200a578181015183820152602001611ff2565b50505050905090810190601f1680156120375780820380516001836020036101000a031916815260200191505b509d505050505050505050505050505060405180910390f35b34801561205c57600080fd5b506120836004803603602081101561207357600080fd5b5035600160a060020a03166144a6565b60405180806020018781526020018060200180602001806020018060200186810386528c818151815260200191508051906020019080838360005b838110156120d65781810151838201526020016120be565b50505050905090810190601f1680156121035780820380516001836020036101000a031916815260200191505b5086810385528a5181528a516020918201918c019080838360005b8381101561213657818101518382015260200161211e565b50505050905090810190601f1680156121635780820380516001836020036101000a031916815260200191505b5086810384528951815289516020918201918b019080838360005b8381101561219657818101518382015260200161217e565b50505050905090810190601f1680156121c35780820380516001836020036101000a031916815260200191505b5086810383528851815288516020918201918a019080838360005b838110156121f65781810151838201526020016121de565b50505050905090810190601f1680156122235780820380516001836020036101000a031916815260200191505b50868103825287518152875160209182019189019080838360005b8381101561225657818101518382015260200161223e565b50505050905090810190601f1680156122835780820380516001836020036101000a031916815260200191505b509b50505050505050505050505060405180910390f35b3480156122a657600080fd5b506108df600480360360208110156122bd57600080fd5b50356145cc565b3480156122d057600080fd5b506104b7600480360360208110156122e757600080fd5b5035614661565b3480156122fa57600080fd5b506104b7614689565b34801561230f57600080fd5b5061232d6004803603602081101561232657600080fd5b503561468f565b604051808581526020018060200184815260200180602001838103835286818151815260200191508051906020019080838360005b8381101561237a578181015183820152602001612362565b50505050905090810190601f1680156123a75780820380516001836020036101000a031916815260200191505b50838103825284518152845160209182019186019080838360005b838110156123da5781810151838201526020016123c2565b50505050905090810190601f1680156124075780820380516001836020036101000a031916815260200191505b50965050505050505060405180910390f35b34801561242557600080fd5b506104b76004803603602081101561243c57600080fd5b50356147cc565b34801561244f57600080fd5b506104fc6004803603602081101561246657600080fd5b50356147db565b34801561247957600080fd5b506108df600480360360c081101561249057600080fd5b8101906020810181356401000000008111156124ab57600080fd5b8201836020820111156124bd57600080fd5b803590602001918460018302840111640100000000831117156124df57600080fd5b91908080601f016020809104026020016040519081016040528093929190818152602001838380828437600092019190915250929594936020810193503591505064010000000081111561253257600080fd5b82018360208201111561254457600080fd5b8035906020019184600183028401116401000000008311171561256657600080fd5b91908080601f01602080910402602001604051908101604052809392919081815260200183838082843760009201919091525092959493602081019350359150506401000000008111156125b957600080fd5b8201836020820111156125cb57600080fd5b803590602001918460018302840111640100000000831117156125ed57600080fd5b91908080601f016020809104026020016040519081016040528093929190818152602001838380828437600092019190915250929594936020810193503591505064010000000081111561264057600080fd5b82018360208201111561265257600080fd5b8035906020019184600183028401116401000000008311171561267457600080fd5b91908080601f01602080910402602001604051908101604052809392919081815260200183838082843760009201919091525092959493602081019350359150506401000000008111156126c757600080fd5b8201836020820111156126d957600080fd5b803590602001918460018302840111640100000000831117156126fb57600080fd5b91908080601f016020809104026020016040519081016040528093929190818152602001838380828437600092019190915250929594936020810193503591505064010000000081111561274e57600080fd5b82018360208201111561276057600080fd5b8035906020019184600183028401116401000000008311171561278257600080fd5b91908080601f0160208091040260200160405190810160405280939291908181526020018383808284376000920191909152509295506147f0945050505050565b3480156127cf57600080fd5b506108df600480360360208110156127e657600080fd5b5035614917565b3480156127f957600080fd5b506104fc6004803603602081101561281057600080fd5b5035600160a060020a03166149b4565b34801561282c57600080fd5b506104fc6004803603602081101561284357600080fd5b5035600160a060020a03166149c9565b34801561285f57600080fd5b506104b76004803603602081101561287657600080fd5b50356149de565b60115481565b60008054600160a060020a03838116911614156128a2575060016128a6565b5060005b919050565b600160a060020a0381166000908152600a602052604081205460ff161515600114156128a2575060016128a6565b6000600b82815481106128e857fe5b9060005260206000209060090201600801549050919050565b600160a060020a03811660009081526008602052604081205460ff16156128a2575060016128a6565b6060600b828154811061293957fe5b600091825260209182902060026009909202018101805460408051601f6000196101006001861615020190931694909404918201859004850284018501905280835291929091908301828280156129d15780601f106129a6576101008083540402835291602001916129d1565b820191906000526020600020905b8154815290600101906020018083116129b457829003601f168201915b50505050509050919050565b6000818152600e602052604081205460ff166129fb575060006128a6565b6000828152600e602052604090205460ff161515600114156128a6575060016128a6565b60188181548110612a2c57fe5b9060005260206000209060209182820401919006915054906101000a900460ff1681565b600060018281548110612a5f57fe5b6000918252602090912060099091020154600160a060020a031692915050565b60178181548110612a2c57fe5b60135481565b606060018281548110612aa157fe5b6000918252602091829020600360099092020101805460408051601f60026000196101006001871615020190941693909304928301859004850281018501909152818152928301828280156129d15780601f106129a6576101008083540402835291602001916129d1565b6000600b8281548110612b1b57fe5b600091825260209091206009909102016006015460ff1692915050565b600a6020526000908152604090205460ff1681565b600060188281548110612b5c57fe5b90600052602060002090602091828204019190069054906101000a900460ff169050919050565b60606003805480602002602001604051908101604052809291908181526020018280548015612bdb57602002820191906000526020600020905b8154600160a060020a03168152600190910190602001808311612bbd575b505050505090505b90565b600060018281548110612bf557fe5b9060005260206000209060090201600501549050919050565b600160a060020a0381166000908152600c602052604081205460ff16156128a2575060016128a6565b6000600b8281548110612c4657fe5b6000918252602090912060099091020160010154600160a060020a031692915050565b336000908152600a602052604090205460ff161515600114612c8a57600080fd5b3360009081526009602052604090205460ff1615156001148015612cbd57506000818152600e602052604090205460ff16155b612cc657600080fd5b6014805460019081019091556000918252600d60209081526040808420805473ffffffffffffffffffffffffffffffffffffffff191633179055600e909152909120805460ff19169091179055565b3360009081526007602052604090205460ff1615612d3257600080fd5b601180546001908101909155600580548083019091557f036b6384b5eca791c62761152d0c79bb0604c104a5fb6f4eb0703f3154bb3db00180543373ffffffffffffffffffffffffffffffffffffffff1991821681179092556000828152600760209081526040808320805460ff19908116881790915560098352818420805490911687179055805160e0810182528581528083018d81528183018d9052606082018c9052608082018b905260a082018a905260c0820189905295845260068352922082518154909416600160a060020a039094169390931783559251805191949293612e2493850192910190614a06565b506040820151600282015560608201518051612e4a916003840191602090910190614a06565b5060808201518051612e66916004840191602090910190614a06565b5060a08201518051612e82916005840191602090910190614a06565b5060c08201518051612e9e916006840191602090910190614a06565b505050505050505050565b60145481565b600054600160a060020a03163314612ec657600080fd5b600160a060020a03166000908152600a60205260409020805460ff19166001179055565b60115490565b600054600160a060020a031681565b3360009081526007602052604090205460ff1615612f1c57600080fd5b601280546001908101909155600380548083019091557fc2575a0e9e593c00f959f8c92f12db2869c3395a3b0502d05e2516446f71f85b0180543373ffffffffffffffffffffffffffffffffffffffff1991821681179092556000828152600760209081526040808320805460ff19908116881790915560088352818420805490911687179055805160e0810182528581528083018d81528183018d9052606082018c9052608082018b905260a082018a905260c0820189905295845260048352922082518154909416600160a060020a03909416939093178355925180519194929361300e93850192910190614a06565b506040820151805161302a916002840191602090910190614a06565b5060608201518051612e4a916003840191602090910190614a06565b60606005805480602002602001604051908101604052809291908181526020018280548015612bdb57602002820191906000526020600020908154600160a060020a03168152600190910190602001808311612bbd575050505050905090565b60105490565b60145490565b600d60205260009081526040902054600160a060020a031681565b600c6020526000908152604090205460ff1681565b6000908152601660205260409020805460019091015460ff808316936101009093041691565b6001818154811061311557fe5b60009182526020918290206009919091020180546001808301546002808501546003860180546040805161010097831615979097026000190190911693909304601f8101899004890286018901909352828552600160a060020a0395861698509490921695919493918301828280156131cf5780601f106131a4576101008083540402835291602001916131cf565b820191906000526020600020905b8154815290600101906020018083116131b257829003601f168201915b5050505050908060040154908060050154908060060154908060070154908060080154905089565b6005818154811061320457fe5b600091825260209091200154600160a060020a0316905081565b6006602090815260009182526040918290208054600180830180548651600261010094831615949094026000190190911692909204601f8101869004860283018601909652858252600160a060020a039092169492939092908301828280156132c85780601f1061329d576101008083540402835291602001916132c8565b820191906000526020600020905b8154815290600101906020018083116132ab57829003601f168201915b505050506002838101546003850180546040805160206001841615610100026000190190931695909504601f8101839004830286018301909152808552959692959294509091908301828280156133605780601f1061333557610100808354040283529160200191613360565b820191906000526020600020905b81548152906001019060200180831161334357829003601f168201915b5050505060048301805460408051602060026001851615610100026000190190941693909304601f81018490048402820184019092528181529495949350908301828280156133f05780601f106133c5576101008083540402835291602001916133f0565b820191906000526020600020905b8154815290600101906020018083116133d357829003601f168201915b5050505060058301805460408051602060026001851615610100026000190190941693909304601f81018490048402820184019092528181529495949350908301828280156134805780601f1061345557610100808354040283529160200191613480565b820191906000526020600020905b81548152906001019060200180831161346357829003601f168201915b5050505060068301805460408051602060026001851615610100026000190190941693909304601f81018490048402820184019092528181529495949350908301828280156135105780601f106134e557610100808354040283529160200191613510565b820191906000526020600020905b8154815290600101906020018083116134f357829003601f168201915b5050505050905087565b60096020526000908152604090205460ff1681565b600b818154811061353c57fe5b6000918252602091829020600991909102018054600180830154600280850180546040805161010096831615969096026000190190911692909204601f8101889004880285018801909252818452939650600160a060020a03909116949192918301828280156135ed5780601f106135c2576101008083540402835291602001916135ed565b820191906000526020600020905b8154815290600101906020018083116135d057829003601f168201915b505050600384015460048501546005860154600687015460078801546008909801549697939692955090935060ff16919089565b60105481565b3360009081526007602052604090205460ff16801561365c575033600081815260066020526040902054600160a060020a0316145b8015613699575033600160a060020a03166001838154811061367a57fe5b6000918252602090912060016009909202010154600160a060020a0316145b6136a257600080fd5b600091825260166020526040909120805460ff1916600190811782550155565b6000600b82815481106136d157fe5b9060005260206000209060090201600401549050919050565b3360009081526007602052604090205460ff16801561371f575033600081815260066020526040902054600160a060020a0316145b61372857600080fd5b336000908152600660209081526040909120875161374e92600190920191890190614a06565b5033600090815260066020908152604090912060028101879055855161377c92600390920191870190614a06565b5033600090815260066020908152604090912084516137a392600490920191860190614a06565b5033600090815260066020908152604090912083516137ca92600590920191850190614a06565b5033600090815260066020818152604090922083516137f193919092019190840190614a06565b50505050505050565b6000600b828154811061380957fe5b9060005260206000209060090201600301549050919050565b600054600160a060020a0316331461383957600080fd5b600160a060020a03166000908152600c60205260409020805460ff19166001179055565b60125490565b6016602052600090815260409020805460019091015460ff808316926101009004169083565b60135490565b6000600b828154811061389e57fe5b9060005260206000209060090201600701549050919050565b600060018281548110612c4657fe5b6001601882815481106138d557fe5b90600052602060002090602091828204019190066101000a81548160ff02191690831515021790555081600160a060020a03166108fc349081150290604051600060405180830381858888f1935050505015801561393257600080fd5b505050565b600160a060020a03811660009081526009602052604081205460ff16156128a2575060016128a6565b6003818154811061320457fe5b600160a060020a0381166000908152600460208181526040928390206001808201805486516002938216156101000260001901909116839004601f81018690048602820186019097528681526060968796879687968796879695908201946003830194830193600584019360060192918891830182828015613a305780601f10613a0557610100808354040283529160200191613a30565b820191906000526020600020905b815481529060010190602001808311613a1357829003601f168201915b5050885460408051602060026001851615610100026000190190941693909304601f8101849004840282018401909252818152959b508a945092508401905082828015613abe5780601f10613a9357610100808354040283529160200191613abe565b820191906000526020600020905b815481529060010190602001808311613aa157829003601f168201915b5050875460408051602060026001851615610100026000190190941693909304601f8101849004840282018401909252818152959a5089945092508401905082828015613b4c5780601f10613b2157610100808354040283529160200191613b4c565b820191906000526020600020905b815481529060010190602001808311613b2f57829003601f168201915b5050865460408051602060026001851615610100026000190190941693909304601f810184900484028201840190925281815295995088945092508401905082828015613bda5780601f10613baf57610100808354040283529160200191613bda565b820191906000526020600020905b815481529060010190602001808311613bbd57829003601f168201915b5050855460408051602060026001851615610100026000190190941693909304601f810184900484028201840190925281815295985087945092508401905082828015613c685780601f10613c3d57610100808354040283529160200191613c68565b820191906000526020600020905b815481529060010190602001808311613c4b57829003601f168201915b5050845460408051602060026001851615610100026000190190941693909304601f810184900484028201840190925281815295975086945092508401905082828015613cf65780601f10613ccb57610100808354040283529160200191613cf6565b820191906000526020600020905b815481529060010190602001808311613cd957829003601f168201915b5050505050905095509550955095509550955091939550919395565b336000908152600a602052604090205460ff161515600114613d3357600080fd5b3360009081526008602052604090205460ff161515600114613d5457600080fd5b601380546001908101909155600b8054600e60209081526040805161012081018252948301808652338684019081529186018c8152606087018c9052608087018b9052428a0160a0880152600060c0880181905260e088018a905261010088018990528287559590955285517f0175b7a638427703f0dbe7bb9bbf987a2551717b34e79f33b5b1008d1fa01db9600990950294850190815591517f0175b7a638427703f0dbe7bb9bbf987a2551717b34e79f33b5b1008d1fa01dba8501805473ffffffffffffffffffffffffffffffffffffffff1916600160a060020a03909216919091179055935180519495869590949293613e75937f0175b7a638427703f0dbe7bb9bbf987a2551717b34e79f33b5b1008d1fa01dbb01920190614a06565b50606082015160038201556080820151600482015560a0820151600582015560c082015160068201805460ff191691151591909117905560e08201516007820155610100909101516008909101555050505050505050565b6000600b8281548110612bf557fe5b6000600182815481106128e857fe5b600f5481565b60006001828154811061389e57fe5b336000908152600a602052604090205460ff161515600114613f2157600080fd5b3360009081526008602052604090205460ff161515600114613f4257600080fd5b601580546001908101909155600b805483908110613f5c57fe5b60009182526020808320600992909202909101600601805460ff19908116941515949094179055604080516060808201835284825281840185815282840186815288875260168652848720935184549251929098169715159790971761ff00191661010091151582021783559551600192830155601780548084019091557fc624b66cc0138b8fabc209247f72d758e1cf3343756d543badbf24212bed8c1585820401805460ff601f9384168a0a81021990911690915560188054808601825597527fb13d2d76d1f4b7be834882e410b3e3a8afaf69f83600ae24db354391d2378d2e8688040180549790921690970a90960219909416909455805161012081018252338152600160a060020a0387169281019290925260155490820152600b805491928301918590811061408d57fe5b600091825260209182902060026009909202018101805460408051601f6000196101006001861615020190931694909404918201859004850284018501905280835291929091908301828280156141255780601f106140fa57610100808354040283529160200191614125565b820191906000526020600020905b81548152906001019060200180831161410857829003601f168201915b50505050508152602001600b848154811061413c57fe5b9060005260206000209060090201600301548152602001600b848154811061416057fe5b9060005260206000209060090201600401548152602001600b848154811061418457fe5b9060005260206000209060090201600501548152602001600b84815481106141a857fe5b9060005260206000209060090201600701548152602001600b84815481106141cc57fe5b60009182526020808320600992830201600801549093528454600180820180885596845292849020855191909202909101805473ffffffffffffffffffffffffffffffffffffffff19908116600160a060020a03938416178255858501519382018054909116939092169290921790556040830151600282015560608301518051919261426192600385019290910190614a06565b506080820151600482015560a0820151600582015560c0820151600682015560e082015160078201556101009091015160089091015550604051600160a060020a038316903480156108fc02916000818181858888f193505050501580156142c857600080fd5b506001601782815481106142d857fe5b90600052602060002090602091828204019190066101000a81548160ff0219169083151502179055505050565b6004602090815260009182526040918290208054600180830180548651600261010094831615949094026000190190911692909204601f8101869004860283018601909652858252600160a060020a039092169492939092908301828280156143af5780601f10614384576101008083540402835291602001916143af565b820191906000526020600020905b81548152906001019060200180831161439257829003601f168201915b50505060028085018054604080516020601f60001961010060018716150201909416959095049283018590048502810185019091528181529596959450909250908301828280156144415780601f1061441657610100808354040283529160200191614441565b820191906000526020600020905b81548152906001019060200180831161442457829003601f168201915b5050505060038301805460408051602060026001851615610100026000190190941693909304601f81018490048402820184019092528181529495949350908301828280156133605780601f1061333557610100808354040283529160200191613360565b600160a060020a03811660009081526006602081815260408084206002808201546001808401805486519281161561010002600019011693909304601f81018790048702820187019095528481526060979688968796879687969594600382019460048301946005840194939091019288918301828280156145695780601f1061453e57610100808354040283529160200191614569565b820191906000526020600020905b81548152906001019060200180831161454c57829003601f168201915b5050875460408051602060026001851615610100026000190190941693909304601f8101849004840282018401909252818152959b5089945092508401905082828015613b4c5780601f10613b2157610100808354040283529160200191613b4c565b3360009081526007602052604090205460ff168015614601575033600081815260046020526040902054600160a060020a0316145b801561463b575033600160a060020a03166001828154811061461f57fe5b6000918252602090912060099091020154600160a060020a0316145b61464457600080fd5b6000908152601660205260409020805461ff001916610100179055565b60006001828154811061467057fe5b9060005260206000209060090201600601549050919050565b60125481565b60026020818152600092835260409283902080546001808301805487519281161561010002600019011695909504601f810185900485028201850190965285815290949193909290919083018282801561472a5780601f106146ff5761010080835404028352916020019161472a565b820191906000526020600020905b81548152906001019060200180831161470d57829003601f168201915b505050506002838101546003850180546040805160206001841615610100026000190190931695909504601f8101839004830286018301909152808552959692959294509091908301828280156147c25780601f10614797576101008083540402835291602001916147c2565b820191906000526020600020905b8154815290600101906020018083116147a557829003601f168201915b5050505050905084565b6000600182815481106136d157fe5b600e6020526000908152604090205460ff1681565b3360009081526007602052604090205460ff168015614825575033600081815260046020526040902054600160a060020a0316145b61482e57600080fd5b336000908152600460209081526040909120875161485492600190920191890190614a06565b50336000908152600460209081526040909120865161487b92600290920191880190614a06565b5033600090815260046020908152604090912085516148a292600390920191870190614a06565b5033600090815260046020818152604090922085516148c993919092019190860190614a06565b5033600090815260046020908152604090912083516148f092600590920191850190614a06565b5033600090815260046020908152604090912082516137f192600690920191840190614a06565b600054600160a060020a0316331461492e57600080fd5b60008181526016602052604090205460ff161515600114801561496a575060008181526016602052604090205460ff6101009091041615156001145b61497357600080fd5b60166000828152602001908152602001600020600101546001828154811061499757fe5b600091825260209091206006600990920201018054909101905550565b60076020526000908152604090205460ff1681565b60086020526000908152604090205460ff1681565b6000600182815481106149ed57fe5b9060005260206000209060090201600201549050919050565b828054600181600116156101000203166002900490600052602060002090601f016020900481019282601f10614a4757805160ff1916838001178555614a74565b82800160010185558215614a74579182015b82811115614a74578251825591602001919060010190614a59565b50614a80929150614a84565b5090565b612be391905b80821115614a805760008155600101614a8a56fea265627a7a723158206916a39d74cdeef00ea5181c9d4b16df1b03f4f668a22c9f73fd7e0e0126265164736f6c63430005100032",
  "source": "// SPDX-License-Identifier: GPL-3.0\npragma solidity >= 0.5.2;\n// pragma experimental ABIEncoderV2;\ncontract Farm{\n    address public contract_admin;\n\n    constructor() public{\n        contract_admin = msg.sender;\n        add_admin(\"Inspector 1\", 45, \"Tehsil Manager\");\n    }\n\n    struct CropRequirement {\n        uint id;\n        address business;\n        string crop_name;\n        uint quantity_in_kg;\n        uint price_per_kg;\n        uint delivery_time;\n        bool status;//for tracking whether this crop requirement is completed or not.\n        uint totalPrice;\n        uint advancedPayment;\n    }\n\n    struct admin {\n        uint256 id;\n        string name;\n        uint256 age;\n        string designation;\n    }\n    \n    struct farmer {\n        address id;\n        string name;\n        uint256 age;\n        string city;\n        string aadharNumber;\n        string panNumber;\n        string land_document;\n    }\n\n    struct business {\n        address id;\n        string business_name;\n        string city;\n        string companyRegistrationNumber;\n        string GSTnumber;\n        string document;\n        string email;\n    }\n    \n    struct farmContract {\n        address business;\n        address farmer;\n        uint id;\n        string crop_name;\n        uint quantity_in_kg;\n        uint price_per_kg;\n        uint deadline;\n        uint totalPrice;\n        uint advancedPayment;\n    }\n\n    farmContract[] public Contracts;\n    \n    mapping(uint256 => admin) public InspectorMapping;\n\n    address[] public businesses;\n    mapping(address => business) public businessMapping;\n    \n\n    address[] public farmers;\n    mapping(address => farmer) public farmerMapping;\n\n    mapping(address => bool) public RegisteredAddressMapping;\n    mapping(address => bool) public RegisteredBusinessMapping;\n    mapping(address => bool) public RegisteredFarmerMapping;\n    mapping(address => bool) public Verification;\n    \n    // mapping(address => CropRequirement[]) public CropReqMap;//This map is for storing CropRequirements of particular company.\n    CropRequirement[] public CropReqMap;\n    mapping(address => bool) public rejection;\n\n    mapping(uint256 => address) public requestMapping;  \n    mapping(uint256 => bool) public requested;  \n    \n    uint256 public contractsCount = 5;\n    uint256 public inspectorsCount;\n    uint256 public farmersCount;\n    uint256 public businessCount;\n    uint256 public CropReqMapCount;\n    uint256 public totalRequest;\n\n    function getBusinessCount() public view returns(uint256){\n        return businessCount;\n    }\n\n    function getInspectorCount() public view returns(uint256){\n        return inspectorsCount;\n    }\n\n    function getFarmersCount() public view returns(uint256){\n        return farmersCount;\n    }\n    function getCropReqCount() public view returns(uint256){\n        return CropReqMapCount;\n    }\n\n    function getTotalRequestCount() public view returns(uint256){\n        return totalRequest;\n    }\n\n    // function getRequestCount(uint index) public view returns(uint256) {\n    //     return requestMapping[index].length;\n    // } \n\n    function add_admin(string memory _name, uint256 _age, string memory _designation) private{\n        inspectorsCount++;\n        InspectorMapping[inspectorsCount] = admin(\n            inspectorsCount,\n            _name,\n            _age,\n            _designation\n        );\n    }\n\n    function addFarmer( string memory name,\n                        uint256 age,\n                        string memory city,\n                        string memory aadharNumber,\n                        string memory panNumber,\n                        string memory land_document\n    ) public {\n        require(!RegisteredAddressMapping[msg.sender]);\n        farmersCount++;\n        farmers.push(msg.sender);\n        RegisteredAddressMapping[msg.sender] = true;\n        RegisteredFarmerMapping[msg.sender] = true;\n        farmerMapping[msg.sender] = farmer( msg.sender, name, age, city, aadharNumber, panNumber, land_document);\n    }\n\n    function updateFarmer( string memory _name,\n                        uint256 _age,\n                        string memory _city,\n                        string memory _aadharNumber,\n                        string memory _panNumber,\n                        string memory _land_document\n    ) public {\n        require(RegisteredAddressMapping[msg.sender] && farmerMapping[msg.sender].id == msg.sender);\n\n        \n        farmerMapping[msg.sender].name = _name;\n        farmerMapping[msg.sender].age = _age;\n        farmerMapping[msg.sender].city = _city;\n        farmerMapping[msg.sender].aadharNumber = _aadharNumber;\n        farmerMapping[msg.sender].panNumber = _panNumber;\n        farmerMapping[msg.sender].land_document = _land_document;\n    }\n\n    function getFarmers() public view returns (address[] memory) {\n        return (farmers);\n    }\n\n    //here we are returning the whole farmer struct to stop stack too deep error\n    function getFarmerDetails(address i) public view returns (string memory, uint, string memory, string memory, string memory, string memory) {\n        return (farmerMapping[i].name, \n                farmerMapping[i].age, \n                farmerMapping[i].city, \n                farmerMapping[i].aadharNumber, \n                farmerMapping[i].panNumber, \n                farmerMapping[i].land_document);\n    }\n\n    function addBusiness(string memory business_name,\n        string memory city,\n        string memory companyRegistrationNumber,\n        string memory GSTnumber,\n        string memory document,\n        string memory email\n    ) public {\n        require(!RegisteredAddressMapping[msg.sender]);\n\n        businessCount++;\n        businesses.push(msg.sender);\n        RegisteredAddressMapping[msg.sender] = true;\n        RegisteredBusinessMapping[msg.sender] = true;\n        businessMapping[msg.sender] = business( msg.sender, business_name, city, companyRegistrationNumber, GSTnumber, document, email);\n    }\n\n    function updateBusiness(string memory _business_name,\n        string memory _city,\n        string memory _companyRegistrationNumber,\n        string memory _GSTnumber,\n        string memory _document,\n        string memory _email\n    ) public {\n        require(RegisteredAddressMapping[msg.sender] && businessMapping[msg.sender].id == msg.sender);\n\n        businessMapping[msg.sender].business_name = _business_name;\n        businessMapping[msg.sender].city = _city;\n        businessMapping[msg.sender].companyRegistrationNumber = _companyRegistrationNumber;\n        businessMapping[msg.sender].GSTnumber = _GSTnumber;\n        businessMapping[msg.sender].document = _document;\n        businessMapping[msg.sender].email = _email;\n    }\n\n    function getBusinesses() public view returns (address[] memory) {\n        return (businesses);\n    }\n\n    function getBusinessDetails(address i)\n        public\n        view\n        returns (\n            string memory,\n            string memory,\n            string memory,\n            string memory,\n            string memory,\n            string memory\n        )\n    {\n        return (\n            businessMapping[i].business_name,\n            businessMapping[i].city,\n            businessMapping[i].companyRegistrationNumber,\n            businessMapping[i].GSTnumber,\n            businessMapping[i].document,\n            businessMapping[i].email\n        );\n    }\n\n    function isFarmer(address _id) public view returns (bool) {\n        if (RegisteredFarmerMapping[_id]) {\n            return true;\n        } else {\n            // Handle the case where it's not verified\n            return false;\n        }\n    }\n\n    function isAdmin1 (address _id) public view returns (bool) {\n        if(_id == contract_admin) return true;\n        else return false;\n    }\n\n    function isBusiness(address _id) public view returns (bool) {\n        if (RegisteredBusinessMapping[_id]) {\n            return true;\n        } else {\n            // Handle the case where it's not verified\n            return false;\n        }\n    }\n\n    modifier isAdmin {\n        require(msg.sender == contract_admin);\n        _;\n    }\n\n    modifier isVerified{\n        require(Verification[msg.sender] == true);\n        _;\n    }\n\n    function isVerified1(address _id) public view returns (bool) {\n        if(Verification[_id] == true) return true; \n        else return false;\n    }\n\n    function verify(address walletID) isAdmin public{\n        Verification[walletID] = true;\n    }\n\n    function reject(address walletID) isAdmin public {\n        rejection[walletID] = true;\n    }\n\n    function isRejected(address walletID) public view returns (bool)  {\n        if(rejection[walletID]) return true;\n        else return false;\n    }\n\n    function addCropRequirement (\n        string memory crop_name,\n        uint quantity_in_kg,\n        uint price_per_kg,\n        uint256 deliveryTime, \n        uint256 _total,\n        uint256 _advPayment) public isVerified{\n            require(RegisteredBusinessMapping[msg.sender] == true);\n            \n            CropReqMapCount++;\n            uint id_temp = CropReqMap.length + 1;\n            // CropReqMapComplete[id_temp] = false;\n            requested[CropReqMap.length] == false;\n            CropReqMap.push(CropRequirement(id_temp, msg.sender, crop_name, quantity_in_kg, price_per_kg, block.timestamp+deliveryTime, false, _total, _advPayment));    \n    }\n\n    //below set of functions is for getting information about cropRequirement.\n    function getCropRequirementBusiness(uint256 i) public view returns(address){\n        return CropReqMap[i].business;\n    }\n    \n    function getCropRequirementCropName(uint256 i) public view returns(string memory){\n        return CropReqMap[i].crop_name;\n    }\n    function getCropRequirementQuantity(uint256 i) public view returns(uint256){\n        return CropReqMap[i].quantity_in_kg;\n    }\n    function getCropRequirementPrice(uint256 i) public view returns(uint256){\n        return CropReqMap[i].price_per_kg;\n    }\n    function getCropRequirementDelTime(uint256 i) public view returns(uint256){\n        return CropReqMap[i].delivery_time;\n    }\n    function getCropRequirementStatus(uint256 i) public view returns (bool){\n        return CropReqMap[i].status;\n    }\n    function getCropRequirementTotalPrice(uint256 i) public view returns (uint256) {\n        return CropReqMap[i].totalPrice;\n    }\n    function getCropRequirementAdvPayment(uint256 i) public view returns (uint256) {\n        return CropReqMap[i].advancedPayment;\n    }\n    //end\n\n    function requestContract(uint256 i) public isVerified{\n        require(RegisteredFarmerMapping[msg.sender] == true && requested[i] == false);\n        totalRequest++;\n        requestMapping[i] = msg.sender;  \n        requested[i] = true;\n    }\n\n    function isRequested(uint256 index) public view returns (bool){\n        if(requested[index] == false) return false;\n        if(requested[index] == true) return true;\n    }\n\n    uint256 ContractsCount = 0;\n\n    struct forExtension {\n        bool farmerReq;\n        bool businessAcceptance;\n        uint256 time;\n    }\n    \n    mapping(uint256 => forExtension) public extensionReq;//This array is for extension requests.\n    bool[] public advancedPaymentReceived; \n    bool[] public PaymentReceived; \n\n\n    function signContract(address payable farmerAddress, uint256 i) public payable isVerified{\n        require(RegisteredBusinessMapping[msg.sender] == true);\n\n        ContractsCount++;\n        CropReqMap[i].status = true;\n        extensionReq[i] = forExtension(false, false, 0);\n        advancedPaymentReceived.push(false);\n        PaymentReceived.push(false);\n        Contracts.push(farmContract(msg.sender, \n                                    farmerAddress, \n                                    ContractsCount, //id of contract\n                                    CropReqMap[i].crop_name, \n                                    CropReqMap[i].quantity_in_kg, \n                                    CropReqMap[i].price_per_kg, \n                                    CropReqMap[i].delivery_time, \n                                    CropReqMap[i].totalPrice, \n                                    CropReqMap[i].advancedPayment));\n        \n        //Triggering advanced payment\n        //we have to take care of msg.value from frontend.\n            /* First access the advancedPayment value from CropReqMap using index i \n               and pass it using web3.js frontend(refer \"makePayment.js\" for this)*/\n        farmerAddress.transfer(msg.value);\n        advancedPaymentReceived[i] = true;\n    }\n\n\n    //below are the functions for displaying contracts data to the frontend\n    function getContractBusiness(uint i) public view returns (address) {\n        return Contracts[i].business;\n    }\n    function getContractFarmer(uint i) public view returns (address) {\n        return Contracts[i].farmer;\n    }\n    function getContractId(uint i) public view returns (uint) {\n        return Contracts[i].id;\n    }\n    function getContractCropName(uint i) public view returns (string memory) {\n        return Contracts[i].crop_name;\n    }\n    function getContractQuantity(uint i) public view returns (uint) {\n        return Contracts[i].quantity_in_kg;\n    }\n    function getContractPrice(uint i) public view returns (uint) {\n        return Contracts[i].price_per_kg;\n    }\n    function getContractDeadLine(uint i) public view returns (uint) {\n        return Contracts[i].deadline;\n    }\n    function getContractTotalPrice(uint i) public view returns (uint) {\n        return Contracts[i].totalPrice;\n    }\n    function getContractAdvPayment(uint i) public view returns (uint) {\n        return Contracts[i].advancedPayment;\n    }\n    //----------end--------------(these functions will be used to display the contracts data to the frontend)\n\n\n\n    //Below Implementation is for extension part.\n    function requestExtension(uint _i, uint256 _time) public {\n        require(RegisteredAddressMapping[msg.sender] && farmerMapping[msg.sender].id == msg.sender && Contracts[_i].farmer == msg.sender);\n\n        extensionReq[_i].farmerReq = true;\n        extensionReq[_i].time = _time;\n    }\n\n    function getExtensionInformation(uint _i) public view returns (bool, bool, uint) {\n        return (extensionReq[_i].farmerReq,\n                extensionReq[_i].businessAcceptance,\n                extensionReq[_i].time);\n    }\n\n    function acceptExtension(uint _i) public {\n        require(RegisteredAddressMapping[msg.sender] && businessMapping[msg.sender].id == msg.sender && Contracts[_i].business == msg.sender);\n        extensionReq[_i].businessAcceptance = true;\n    }\n\n    function updateContract(uint _i) public isAdmin {\n        require(extensionReq[_i].farmerReq == true && extensionReq[_i].businessAcceptance == true);\n        Contracts[_i].deadline += extensionReq[_i].time;\n    }\n\n    //function for remaining payment\n    function payRemaining(address payable _farmer, uint256 id) public payable {\n        PaymentReceived[id] = true;\n        _farmer.transfer(msg.value);\n    }\n\n    function isComplete(uint256 id) public view returns (bool) {\n        return PaymentReceived[id];\n    }\n    \n}",
  "sourcePath": "/home/ashwin/Contract Farming Project/contracts/Farm.sol",
  "compiler": {
    "name": "solc",
    "version": "0.5.16+commit.9c3226ce.Emscripten.clang"
  },
  "schemaVersion": "3.4.16",
  "updatedAt": "2024-04-04T17:36:01.699Z",
  "networkType": "ethereum",
  "devdoc": {
    "methods": {}
  },
  "userdoc": {
    "methods": {}
  }
}