{
  "contractName": "Farm",
  "abi": [
    {
      "inputs": [],
      "payable": false,
      "stateMutability": "nonpayable",
      "type": "constructor"
    },
    {
      "constant": true,
      "inputs": [
        {
          "internalType": "uint256",
          "name": "",
          "type": "uint256"
        }
      ],
      "name": "Contracts",
      "outputs": [
        {
          "internalType": "address",
          "name": "business",
          "type": "address"
        },
        {
          "internalType": "address",
          "name": "farmer",
          "type": "address"
        },
        {
          "internalType": "uint256",
          "name": "id",
          "type": "uint256"
        },
        {
          "internalType": "string",
          "name": "crop_name",
          "type": "string"
        },
        {
          "internalType": "uint256",
          "name": "quantity_in_kg",
          "type": "uint256"
        },
        {
          "internalType": "uint256",
          "name": "price_per_kg",
          "type": "uint256"
        },
        {
          "internalType": "uint256",
          "name": "deadline",
          "type": "uint256"
        },
        {
          "internalType": "uint256",
          "name": "totalPrice",
          "type": "uint256"
        },
        {
          "internalType": "uint256",
          "name": "advancedPayment",
          "type": "uint256"
        }
      ],
      "payable": false,
      "stateMutability": "view",
      "type": "function"
    },
    {
      "constant": true,
      "inputs": [
        {
          "internalType": "uint256",
          "name": "",
          "type": "uint256"
        }
      ],
      "name": "CropReqMap",
      "outputs": [
        {
          "internalType": "uint256",
          "name": "id",
          "type": "uint256"
        },
        {
          "internalType": "address",
          "name": "business",
          "type": "address"
        },
        {
          "internalType": "string",
          "name": "crop_name",
          "type": "string"
        },
        {
          "internalType": "uint256",
          "name": "quantity_in_kg",
          "type": "uint256"
        },
        {
          "internalType": "uint256",
          "name": "price_per_kg",
          "type": "uint256"
        },
        {
          "internalType": "uint256",
          "name": "delivery_time",
          "type": "uint256"
        },
        {
          "internalType": "bool",
          "name": "status",
          "type": "bool"
        },
        {
          "internalType": "uint256",
          "name": "totalPrice",
          "type": "uint256"
        },
        {
          "internalType": "uint256",
          "name": "advancedPayment",
          "type": "uint256"
        }
      ],
      "payable": false,
      "stateMutability": "view",
      "type": "function"
    },
    {
      "constant": true,
      "inputs": [],
      "name": "CropReqMapCount",
      "outputs": [
        {
          "internalType": "uint256",
          "name": "",
          "type": "uint256"
        }
      ],
      "payable": false,
      "stateMutability": "view",
      "type": "function"
    },
    {
      "constant": true,
      "inputs": [
        {
          "internalType": "uint256",
          "name": "",
          "type": "uint256"
        }
      ],
      "name": "InspectorMapping",
      "outputs": [
        {
          "internalType": "uint256",
          "name": "id",
          "type": "uint256"
        },
        {
          "internalType": "string",
          "name": "name",
          "type": "string"
        },
        {
          "internalType": "uint256",
          "name": "age",
          "type": "uint256"
        },
        {
          "internalType": "string",
          "name": "designation",
          "type": "string"
        }
      ],
      "payable": false,
      "stateMutability": "view",
      "type": "function"
    },
    {
      "constant": true,
      "inputs": [
        {
          "internalType": "uint256",
          "name": "",
          "type": "uint256"
        }
      ],
      "name": "PaymentReceived",
      "outputs": [
        {
          "internalType": "bool",
          "name": "",
          "type": "bool"
        }
      ],
      "payable": false,
      "stateMutability": "view",
      "type": "function"
    },
    {
      "constant": true,
      "inputs": [
        {
          "internalType": "address",
          "name": "",
          "type": "address"
        }
      ],
      "name": "RegisteredAddressMapping",
      "outputs": [
        {
          "internalType": "bool",
          "name": "",
          "type": "bool"
        }
      ],
      "payable": false,
      "stateMutability": "view",
      "type": "function"
    },
    {
      "constant": true,
      "inputs": [
        {
          "internalType": "address",
          "name": "",
          "type": "address"
        }
      ],
      "name": "RegisteredBusinessMapping",
      "outputs": [
        {
          "internalType": "bool",
          "name": "",
          "type": "bool"
        }
      ],
      "payable": false,
      "stateMutability": "view",
      "type": "function"
    },
    {
      "constant": true,
      "inputs": [
        {
          "internalType": "address",
          "name": "",
          "type": "address"
        }
      ],
      "name": "RegisteredFarmerMapping",
      "outputs": [
        {
          "internalType": "bool",
          "name": "",
          "type": "bool"
        }
      ],
      "payable": false,
      "stateMutability": "view",
      "type": "function"
    },
    {
      "constant": true,
      "inputs": [
        {
          "internalType": "address",
          "name": "",
          "type": "address"
        }
      ],
      "name": "Verification",
      "outputs": [
        {
          "internalType": "bool",
          "name": "",
          "type": "bool"
        }
      ],
      "payable": false,
      "stateMutability": "view",
      "type": "function"
    },
    {
      "constant": true,
      "inputs": [
        {
          "internalType": "uint256",
          "name": "",
          "type": "uint256"
        }
      ],
      "name": "advancedPaymentReceived",
      "outputs": [
        {
          "internalType": "bool",
          "name": "",
          "type": "bool"
        }
      ],
      "payable": false,
      "stateMutability": "view",
      "type": "function"
    },
    {
      "constant": true,
      "inputs": [],
      "name": "businessCount",
      "outputs": [
        {
          "internalType": "uint256",
          "name": "",
          "type": "uint256"
        }
      ],
      "payable": false,
      "stateMutability": "view",
      "type": "function"
    },
    {
      "constant": true,
      "inputs": [
        {
          "internalType": "address",
          "name": "",
          "type": "address"
        }
      ],
      "name": "businessMapping",
      "outputs": [
        {
          "internalType": "address",
          "name": "id",
          "type": "address"
        },
        {
          "internalType": "string",
          "name": "business_name",
          "type": "string"
        },
        {
          "internalType": "string",
          "name": "city",
          "type": "string"
        },
        {
          "internalType": "string",
          "name": "companyRegistrationNumber",
          "type": "string"
        },
        {
          "internalType": "string",
          "name": "GSTnumber",
          "type": "string"
        },
        {
          "internalType": "string",
          "name": "document",
          "type": "string"
        },
        {
          "internalType": "string",
          "name": "email",
          "type": "string"
        }
      ],
      "payable": false,
      "stateMutability": "view",
      "type": "function"
    },
    {
      "constant": true,
      "inputs": [
        {
          "internalType": "uint256",
          "name": "",
          "type": "uint256"
        }
      ],
      "name": "businesses",
      "outputs": [
        {
          "internalType": "address",
          "name": "",
          "type": "address"
        }
      ],
      "payable": false,
      "stateMutability": "view",
      "type": "function"
    },
    {
      "constant": true,
      "inputs": [],
      "name": "contract_admin",
      "outputs": [
        {
          "internalType": "address",
          "name": "",
          "type": "address"
        }
      ],
      "payable": false,
      "stateMutability": "view",
      "type": "function"
    },
    {
      "constant": true,
      "inputs": [],
      "name": "contractsCount",
      "outputs": [
        {
          "internalType": "uint256",
          "name": "",
          "type": "uint256"
        }
      ],
      "payable": false,
      "stateMutability": "view",
      "type": "function"
    },
    {
      "constant": true,
      "inputs": [
        {
          "internalType": "uint256",
          "name": "",
          "type": "uint256"
        }
      ],
      "name": "extensionReq",
      "outputs": [
        {
          "internalType": "bool",
          "name": "farmerReq",
          "type": "bool"
        },
        {
          "internalType": "bool",
          "name": "businessAcceptance",
          "type": "bool"
        },
        {
          "internalType": "uint256",
          "name": "time",
          "type": "uint256"
        }
      ],
      "payable": false,
      "stateMutability": "view",
      "type": "function"
    },
    {
      "constant": true,
      "inputs": [
        {
          "internalType": "address",
          "name": "",
          "type": "address"
        }
      ],
      "name": "farmerMapping",
      "outputs": [
        {
          "internalType": "address",
          "name": "id",
          "type": "address"
        },
        {
          "internalType": "string",
          "name": "name",
          "type": "string"
        },
        {
          "internalType": "uint256",
          "name": "age",
          "type": "uint256"
        },
        {
          "internalType": "string",
          "name": "city",
          "type": "string"
        },
        {
          "internalType": "string",
          "name": "aadharNumber",
          "type": "string"
        },
        {
          "internalType": "string",
          "name": "panNumber",
          "type": "string"
        },
        {
          "internalType": "string",
          "name": "land_document",
          "type": "string"
        }
      ],
      "payable": false,
      "stateMutability": "view",
      "type": "function"
    },
    {
      "constant": true,
      "inputs": [
        {
          "internalType": "uint256",
          "name": "",
          "type": "uint256"
        }
      ],
      "name": "farmers",
      "outputs": [
        {
          "internalType": "address",
          "name": "",
          "type": "address"
        }
      ],
      "payable": false,
      "stateMutability": "view",
      "type": "function"
    },
    {
      "constant": true,
      "inputs": [],
      "name": "farmersCount",
      "outputs": [
        {
          "internalType": "uint256",
          "name": "",
          "type": "uint256"
        }
      ],
      "payable": false,
      "stateMutability": "view",
      "type": "function"
    },
    {
      "constant": true,
      "inputs": [],
      "name": "inspectorsCount",
      "outputs": [
        {
          "internalType": "uint256",
          "name": "",
          "type": "uint256"
        }
      ],
      "payable": false,
      "stateMutability": "view",
      "type": "function"
    },
    {
      "constant": true,
      "inputs": [
        {
          "internalType": "address",
          "name": "",
          "type": "address"
        }
      ],
      "name": "rejection",
      "outputs": [
        {
          "internalType": "bool",
          "name": "",
          "type": "bool"
        }
      ],
      "payable": false,
      "stateMutability": "view",
      "type": "function"
    },
    {
      "constant": true,
      "inputs": [
        {
          "internalType": "uint256",
          "name": "",
          "type": "uint256"
        }
      ],
      "name": "requestMapping",
      "outputs": [
        {
          "internalType": "address",
          "name": "",
          "type": "address"
        }
      ],
      "payable": false,
      "stateMutability": "view",
      "type": "function"
    },
    {
      "constant": true,
      "inputs": [],
      "name": "totalRequest",
      "outputs": [
        {
          "internalType": "uint256",
          "name": "",
          "type": "uint256"
        }
      ],
      "payable": false,
      "stateMutability": "view",
      "type": "function"
    },
    {
      "constant": true,
      "inputs": [],
      "name": "getBusinessCount",
      "outputs": [
        {
          "internalType": "uint256",
          "name": "",
          "type": "uint256"
        }
      ],
      "payable": false,
      "stateMutability": "view",
      "type": "function"
    },
    {
      "constant": true,
      "inputs": [],
      "name": "getInspectorCount",
      "outputs": [
        {
          "internalType": "uint256",
          "name": "",
          "type": "uint256"
        }
      ],
      "payable": false,
      "stateMutability": "view",
      "type": "function"
    },
    {
      "constant": true,
      "inputs": [],
      "name": "getFarmersCount",
      "outputs": [
        {
          "internalType": "uint256",
          "name": "",
          "type": "uint256"
        }
      ],
      "payable": false,
      "stateMutability": "view",
      "type": "function"
    },
    {
      "constant": true,
      "inputs": [],
      "name": "getCropReqCount",
      "outputs": [
        {
          "internalType": "uint256",
          "name": "",
          "type": "uint256"
        }
      ],
      "payable": false,
      "stateMutability": "view",
      "type": "function"
    },
    {
      "constant": true,
      "inputs": [],
      "name": "getTotalRequestCount",
      "outputs": [
        {
          "internalType": "uint256",
          "name": "",
          "type": "uint256"
        }
      ],
      "payable": false,
      "stateMutability": "view",
      "type": "function"
    },
    {
      "constant": false,
      "inputs": [
        {
          "internalType": "string",
          "name": "name",
          "type": "string"
        },
        {
          "internalType": "uint256",
          "name": "age",
          "type": "uint256"
        },
        {
          "internalType": "string",
          "name": "city",
          "type": "string"
        },
        {
          "internalType": "string",
          "name": "aadharNumber",
          "type": "string"
        },
        {
          "internalType": "string",
          "name": "panNumber",
          "type": "string"
        },
        {
          "internalType": "string",
          "name": "land_document",
          "type": "string"
        }
      ],
      "name": "addFarmer",
      "outputs": [],
      "payable": false,
      "stateMutability": "nonpayable",
      "type": "function"
    },
    {
      "constant": false,
      "inputs": [
        {
          "internalType": "string",
          "name": "_name",
          "type": "string"
        },
        {
          "internalType": "uint256",
          "name": "_age",
          "type": "uint256"
        },
        {
          "internalType": "string",
          "name": "_city",
          "type": "string"
        },
        {
          "internalType": "string",
          "name": "_aadharNumber",
          "type": "string"
        },
        {
          "internalType": "string",
          "name": "_panNumber",
          "type": "string"
        },
        {
          "internalType": "string",
          "name": "_land_document",
          "type": "string"
        }
      ],
      "name": "updateFarmer",
      "outputs": [],
      "payable": false,
      "stateMutability": "nonpayable",
      "type": "function"
    },
    {
      "constant": true,
      "inputs": [],
      "name": "getFarmers",
      "outputs": [
        {
          "internalType": "address[]",
          "name": "",
          "type": "address[]"
        }
      ],
      "payable": false,
      "stateMutability": "view",
      "type": "function"
    },
    {
      "constant": true,
      "inputs": [
        {
          "internalType": "address",
          "name": "i",
          "type": "address"
        }
      ],
      "name": "getFarmerDetails",
      "outputs": [
        {
          "internalType": "string",
          "name": "",
          "type": "string"
        },
        {
          "internalType": "uint256",
          "name": "",
          "type": "uint256"
        },
        {
          "internalType": "string",
          "name": "",
          "type": "string"
        },
        {
          "internalType": "string",
          "name": "",
          "type": "string"
        },
        {
          "internalType": "string",
          "name": "",
          "type": "string"
        },
        {
          "internalType": "string",
          "name": "",
          "type": "string"
        }
      ],
      "payable": false,
      "stateMutability": "view",
      "type": "function"
    },
    {
      "constant": false,
      "inputs": [
        {
          "internalType": "string",
          "name": "business_name",
          "type": "string"
        },
        {
          "internalType": "string",
          "name": "city",
          "type": "string"
        },
        {
          "internalType": "string",
          "name": "companyRegistrationNumber",
          "type": "string"
        },
        {
          "internalType": "string",
          "name": "GSTnumber",
          "type": "string"
        },
        {
          "internalType": "string",
          "name": "document",
          "type": "string"
        },
        {
          "internalType": "string",
          "name": "email",
          "type": "string"
        }
      ],
      "name": "addBusiness",
      "outputs": [],
      "payable": false,
      "stateMutability": "nonpayable",
      "type": "function"
    },
    {
      "constant": false,
      "inputs": [
        {
          "internalType": "string",
          "name": "_business_name",
          "type": "string"
        },
        {
          "internalType": "string",
          "name": "_city",
          "type": "string"
        },
        {
          "internalType": "string",
          "name": "_companyRegistrationNumber",
          "type": "string"
        },
        {
          "internalType": "string",
          "name": "_GSTnumber",
          "type": "string"
        },
        {
          "internalType": "string",
          "name": "_document",
          "type": "string"
        },
        {
          "internalType": "string",
          "name": "_email",
          "type": "string"
        }
      ],
      "name": "updateBusiness",
      "outputs": [],
      "payable": false,
      "stateMutability": "nonpayable",
      "type": "function"
    },
    {
      "constant": true,
      "inputs": [],
      "name": "getBusinesses",
      "outputs": [
        {
          "internalType": "address[]",
          "name": "",
          "type": "address[]"
        }
      ],
      "payable": false,
      "stateMutability": "view",
      "type": "function"
    },
    {
      "constant": true,
      "inputs": [
        {
          "internalType": "address",
          "name": "i",
          "type": "address"
        }
      ],
      "name": "getBusinessDetails",
      "outputs": [
        {
          "internalType": "string",
          "name": "",
          "type": "string"
        },
        {
          "internalType": "string",
          "name": "",
          "type": "string"
        },
        {
          "internalType": "string",
          "name": "",
          "type": "string"
        },
        {
          "internalType": "string",
          "name": "",
          "type": "string"
        },
        {
          "internalType": "string",
          "name": "",
          "type": "string"
        },
        {
          "internalType": "string",
          "name": "",
          "type": "string"
        }
      ],
      "payable": false,
      "stateMutability": "view",
      "type": "function"
    },
    {
      "constant": true,
      "inputs": [
        {
          "internalType": "address",
          "name": "_id",
          "type": "address"
        }
      ],
      "name": "isFarmer",
      "outputs": [
        {
          "internalType": "bool",
          "name": "",
          "type": "bool"
        }
      ],
      "payable": false,
      "stateMutability": "view",
      "type": "function"
    },
    {
      "constant": true,
      "inputs": [
        {
          "internalType": "address",
          "name": "_id",
          "type": "address"
        }
      ],
      "name": "isAdmin1",
      "outputs": [
        {
          "internalType": "bool",
          "name": "",
          "type": "bool"
        }
      ],
      "payable": false,
      "stateMutability": "view",
      "type": "function"
    },
    {
      "constant": true,
      "inputs": [
        {
          "internalType": "address",
          "name": "_id",
          "type": "address"
        }
      ],
      "name": "isBusiness",
      "outputs": [
        {
          "internalType": "bool",
          "name": "",
          "type": "bool"
        }
      ],
      "payable": false,
      "stateMutability": "view",
      "type": "function"
    },
    {
      "constant": true,
      "inputs": [
        {
          "internalType": "address",
          "name": "_id",
          "type": "address"
        }
      ],
      "name": "isVerified1",
      "outputs": [
        {
          "internalType": "bool",
          "name": "",
          "type": "bool"
        }
      ],
      "payable": false,
      "stateMutability": "view",
      "type": "function"
    },
    {
      "constant": false,
      "inputs": [
        {
          "internalType": "address",
          "name": "walletID",
          "type": "address"
        }
      ],
      "name": "verify",
      "outputs": [],
      "payable": false,
      "stateMutability": "nonpayable",
      "type": "function"
    },
    {
      "constant": false,
      "inputs": [
        {
          "internalType": "address",
          "name": "walletID",
          "type": "address"
        }
      ],
      "name": "reject",
      "outputs": [],
      "payable": false,
      "stateMutability": "nonpayable",
      "type": "function"
    },
    {
      "constant": true,
      "inputs": [
        {
          "internalType": "address",
          "name": "walletID",
          "type": "address"
        }
      ],
      "name": "isRejected",
      "outputs": [
        {
          "internalType": "bool",
          "name": "",
          "type": "bool"
        }
      ],
      "payable": false,
      "stateMutability": "view",
      "type": "function"
    },
    {
      "constant": false,
      "inputs": [
        {
          "internalType": "string",
          "name": "crop_name",
          "type": "string"
        },
        {
          "internalType": "uint256",
          "name": "quantity_in_kg",
          "type": "uint256"
        },
        {
          "internalType": "uint256",
          "name": "price_per_kg",
          "type": "uint256"
        },
        {
          "internalType": "uint256",
          "name": "deliveryTime",
          "type": "uint256"
        },
        {
          "internalType": "uint256",
          "name": "_total",
          "type": "uint256"
        },
        {
          "internalType": "uint256",
          "name": "_advPayment",
          "type": "uint256"
        }
      ],
      "name": "addCropRequirement",
      "outputs": [],
      "payable": false,
      "stateMutability": "nonpayable",
      "type": "function"
    },
    {
      "constant": true,
      "inputs": [
        {
          "internalType": "uint256",
          "name": "i",
          "type": "uint256"
        }
      ],
      "name": "getCropRequirementBusiness",
      "outputs": [
        {
          "internalType": "address",
          "name": "",
          "type": "address"
        }
      ],
      "payable": false,
      "stateMutability": "view",
      "type": "function"
    },
    {
      "constant": true,
      "inputs": [
        {
          "internalType": "uint256",
          "name": "i",
          "type": "uint256"
        }
      ],
      "name": "getCropRequirementCropName",
      "outputs": [
        {
          "internalType": "string",
          "name": "",
          "type": "string"
        }
      ],
      "payable": false,
      "stateMutability": "view",
      "type": "function"
    },
    {
      "constant": true,
      "inputs": [
        {
          "internalType": "uint256",
          "name": "i",
          "type": "uint256"
        }
      ],
      "name": "getCropRequirementQuantity",
      "outputs": [
        {
          "internalType": "uint256",
          "name": "",
          "type": "uint256"
        }
      ],
      "payable": false,
      "stateMutability": "view",
      "type": "function"
    },
    {
      "constant": true,
      "inputs": [
        {
          "internalType": "uint256",
          "name": "i",
          "type": "uint256"
        }
      ],
      "name": "getCropRequirementPrice",
      "outputs": [
        {
          "internalType": "uint256",
          "name": "",
          "type": "uint256"
        }
      ],
      "payable": false,
      "stateMutability": "view",
      "type": "function"
    },
    {
      "constant": true,
      "inputs": [
        {
          "internalType": "uint256",
          "name": "i",
          "type": "uint256"
        }
      ],
      "name": "getCropRequirementDelTime",
      "outputs": [
        {
          "internalType": "uint256",
          "name": "",
          "type": "uint256"
        }
      ],
      "payable": false,
      "stateMutability": "view",
      "type": "function"
    },
    {
      "constant": true,
      "inputs": [
        {
          "internalType": "uint256",
          "name": "i",
          "type": "uint256"
        }
      ],
      "name": "getCropRequirementStatus",
      "outputs": [
        {
          "internalType": "bool",
          "name": "",
          "type": "bool"
        }
      ],
      "payable": false,
      "stateMutability": "view",
      "type": "function"
    },
    {
      "constant": true,
      "inputs": [
        {
          "internalType": "uint256",
          "name": "i",
          "type": "uint256"
        }
      ],
      "name": "getCropRequirementTotalPrice",
      "outputs": [
        {
          "internalType": "uint256",
          "name": "",
          "type": "uint256"
        }
      ],
      "payable": false,
      "stateMutability": "view",
      "type": "function"
    },
    {
      "constant": true,
      "inputs": [
        {
          "internalType": "uint256",
          "name": "i",
          "type": "uint256"
        }
      ],
      "name": "getCropRequirementAdvPayment",
      "outputs": [
        {
          "internalType": "uint256",
          "name": "",
          "type": "uint256"
        }
      ],
      "payable": false,
      "stateMutability": "view",
      "type": "function"
    },
    {
      "constant": false,
      "inputs": [
        {
          "internalType": "uint256",
          "name": "i",
          "type": "uint256"
        }
      ],
      "name": "requestContract",
      "outputs": [],
      "payable": false,
      "stateMutability": "nonpayable",
      "type": "function"
    },
    {
      "constant": true,
      "inputs": [
        {
          "internalType": "uint256",
          "name": "index",
          "type": "uint256"
        }
      ],
      "name": "isRequested",
      "outputs": [
        {
          "internalType": "bool",
          "name": "",
          "type": "bool"
        }
      ],
      "payable": false,
      "stateMutability": "view",
      "type": "function"
    },
    {
      "constant": false,
      "inputs": [
        {
          "internalType": "address payable",
          "name": "farmerAddress",
          "type": "address"
        },
        {
          "internalType": "uint256",
          "name": "i",
          "type": "uint256"
        }
      ],
      "name": "signContract",
      "outputs": [],
      "payable": true,
      "stateMutability": "payable",
      "type": "function"
    },
    {
      "constant": true,
      "inputs": [
        {
          "internalType": "uint256",
          "name": "i",
          "type": "uint256"
        }
      ],
      "name": "getContractBusiness",
      "outputs": [
        {
          "internalType": "address",
          "name": "",
          "type": "address"
        }
      ],
      "payable": false,
      "stateMutability": "view",
      "type": "function"
    },
    {
      "constant": true,
      "inputs": [
        {
          "internalType": "uint256",
          "name": "i",
          "type": "uint256"
        }
      ],
      "name": "getContractFarmer",
      "outputs": [
        {
          "internalType": "address",
          "name": "",
          "type": "address"
        }
      ],
      "payable": false,
      "stateMutability": "view",
      "type": "function"
    },
    {
      "constant": true,
      "inputs": [
        {
          "internalType": "uint256",
          "name": "i",
          "type": "uint256"
        }
      ],
      "name": "getContractId",
      "outputs": [
        {
          "internalType": "uint256",
          "name": "",
          "type": "uint256"
        }
      ],
      "payable": false,
      "stateMutability": "view",
      "type": "function"
    },
    {
      "constant": true,
      "inputs": [
        {
          "internalType": "uint256",
          "name": "i",
          "type": "uint256"
        }
      ],
      "name": "getContractCropName",
      "outputs": [
        {
          "internalType": "string",
          "name": "",
          "type": "string"
        }
      ],
      "payable": false,
      "stateMutability": "view",
      "type": "function"
    },
    {
      "constant": true,
      "inputs": [
        {
          "internalType": "uint256",
          "name": "i",
          "type": "uint256"
        }
      ],
      "name": "getContractQuantity",
      "outputs": [
        {
          "internalType": "uint256",
          "name": "",
          "type": "uint256"
        }
      ],
      "payable": false,
      "stateMutability": "view",
      "type": "function"
    },
    {
      "constant": true,
      "inputs": [
        {
          "internalType": "uint256",
          "name": "i",
          "type": "uint256"
        }
      ],
      "name": "getContractPrice",
      "outputs": [
        {
          "internalType": "uint256",
          "name": "",
          "type": "uint256"
        }
      ],
      "payable": false,
      "stateMutability": "view",
      "type": "function"
    },
    {
      "constant": true,
      "inputs": [
        {
          "internalType": "uint256",
          "name": "i",
          "type": "uint256"
        }
      ],
      "name": "getContractDeadLine",
      "outputs": [
        {
          "internalType": "uint256",
          "name": "",
          "type": "uint256"
        }
      ],
      "payable": false,
      "stateMutability": "view",
      "type": "function"
    },
    {
      "constant": true,
      "inputs": [
        {
          "internalType": "uint256",
          "name": "i",
          "type": "uint256"
        }
      ],
      "name": "getContractTotalPrice",
      "outputs": [
        {
          "internalType": "uint256",
          "name": "",
          "type": "uint256"
        }
      ],
      "payable": false,
      "stateMutability": "view",
      "type": "function"
    },
    {
      "constant": true,
      "inputs": [
        {
          "internalType": "uint256",
          "name": "i",
          "type": "uint256"
        }
      ],
      "name": "getContractAdvPayment",
      "outputs": [
        {
          "internalType": "uint256",
          "name": "",
          "type": "uint256"
        }
      ],
      "payable": false,
      "stateMutability": "view",
      "type": "function"
    },
    {
      "constant": false,
      "inputs": [
        {
          "internalType": "uint256",
          "name": "_i",
          "type": "uint256"
        },
        {
          "internalType": "uint256",
          "name": "_time",
          "type": "uint256"
        }
      ],
      "name": "requestExtension",
      "outputs": [],
      "payable": false,
      "stateMutability": "nonpayable",
      "type": "function"
    },
    {
      "constant": true,
      "inputs": [
        {
          "internalType": "uint256",
          "name": "_i",
          "type": "uint256"
        }
      ],
      "name": "getExtensionInformation",
      "outputs": [
        {
          "internalType": "bool",
          "name": "",
          "type": "bool"
        },
        {
          "internalType": "bool",
          "name": "",
          "type": "bool"
        },
        {
          "internalType": "uint256",
          "name": "",
          "type": "uint256"
        }
      ],
      "payable": false,
      "stateMutability": "view",
      "type": "function"
    },
    {
      "constant": false,
      "inputs": [
        {
          "internalType": "uint256",
          "name": "_i",
          "type": "uint256"
        }
      ],
      "name": "acceptExtension",
      "outputs": [],
      "payable": false,
      "stateMutability": "nonpayable",
      "type": "function"
    },
    {
      "constant": false,
      "inputs": [
        {
          "internalType": "uint256",
          "name": "_i",
          "type": "uint256"
        }
      ],
      "name": "updateContract",
      "outputs": [],
      "payable": false,
      "stateMutability": "nonpayable",
      "type": "function"
    },
    {
      "constant": false,
      "inputs": [
        {
          "internalType": "address payable",
          "name": "_farmer",
          "type": "address"
        },
        {
          "internalType": "uint256",
          "name": "id",
          "type": "uint256"
        }
      ],
      "name": "payRemaining",
      "outputs": [],
      "payable": true,
      "stateMutability": "payable",
      "type": "function"
    },
    {
      "constant": true,
      "inputs": [
        {
          "internalType": "uint256",
          "name": "id",
          "type": "uint256"
        }
      ],
      "name": "isComplete",
      "outputs": [
        {
          "internalType": "bool",
          "name": "",
          "type": "bool"
        }
      ],
      "payable": false,
      "stateMutability": "view",
      "type": "function"
    }
  ],
  "bytecode": "0x60806040526005600e5560006014553480156200001b57600080fd5b5060008054600160a060020a03191633179055604080518082018252600b81527f496e73706563746f7220310000000000000000000000000000000000000000006020808301919091528251808401909352600e83527f54656873696c204d616e6167657200000000000000000000000000000000000090830152620000ad91602d90640100000000620000b3810204565b620001e2565b600f805460019081019182905560408051608081018252838152602080820188815282840188905260608301879052600095865260028252929094208151815591518051919492936200010d93908501929101906200013d565b506040820151600282015560608201518051620001359160038401916020909101906200013d565b505050505050565b828054600181600116156101000203166002900490600052602060002090601f016020900481019282601f106200018057805160ff1916838001178555620001b0565b82800160010185558215620001b0579182015b82811115620001b057825182559160200191906001019062000193565b50620001be929150620001c2565b5090565b620001df91905b80821115620001be5760008155600101620001c9565b90565b614a2780620001f26000396000f3fe608060405260043610610482576000357c01000000000000000000000000000000000000000000000000000000009004806390db684c11610260578063bd75786011610160578063d85e98e5116100d8578063ef492ff6116100a7578063f58f85b51161008c578063f58f85b5146127a8578063f6dc6068146127db578063fc88210a1461280e57610482565b8063ef492ff614612428578063f1f3e5a91461277e57610482565b8063d85e98e5146122a9578063da2aff2a146122d3578063def936c3146122e8578063e250fc7b146123fe57610482565b8063c69761571161012f578063d18264e911610114578063d18264e914611d73578063d335ccfa14612035578063d399c54b1461227f57610482565b8063c697615714611d1d578063cf2142e614611d4757610482565b8063bd75786014611bea578063be5df21414611cb4578063bf9ede3014611cde578063c4fecdb614611d0857610482565b8063ab95a748116101f3578063b52e333b116101c2578063b9429069116101a7578063b94290691461192c578063b984c6ec1461195f578063bc9e2b6d1461198957610482565b8063b52e333b146118d6578063b8e25c1c1461190057610482565b8063ab95a74814611858578063ab9ef11f1461186d578063af78628114611897578063b43b24fe146118ac57610482565b8063a8d166401161022f578063a8d16640146114fa578063a8f9160414611524578063aab1418a146117fb578063ab0da5a91461182557610482565b806390db684c146113d657806392d2473214611409578063941e2426146114b55780639f369aa9146114ca57610482565b806348a46bd311610386578063789f8d40116102fe57806386b7da2f116102cd5780638a795503116102b25780638a7955031461104b5780638afdd669146111495780638df9b6ee1461117357610482565b806386b7da2f14610fce578063883436a11461100157610482565b8063789f8d4014610f655780637b1d434814610f7a5780637ced45d114610f8f57806382e215ab14610fa457610482565b8063612597451161035557806367cb77e71161033a57806367cb77e714610be55780636da36c0614610bfa5780636fb9e80314610c0f57610482565b80636125974514610b9d57806363a9c3d714610bb257610482565b806348a46bd31461083d5780634a1df9f9146108705780634fe536a91461089a578063598fb0d6146108c657610482565b80631ed0fca611610419578063330820bc116103e85780633a0be1a6116103cd5780633a0be1a6146107845780633ba18d7d146107ae5780633e6126541461081357610482565b8063330820bc1461072757806338f4e6c51461075157610482565b80631ed0fca61461067857806324d328fc146106be57806326cccdff146106e8578063285ab266146106fd57610482565b80631466d019116104555780631466d019146105525780631558b24514610585578063155fec72146106245780631a07f76e1461064e57610482565b80630419e7ef14610487578063045b2c06146104ae57806305cf45bd146104f55780630835b56514610528575b600080fd5b34801561049357600080fd5b5061049c612838565b60408051918252519081900360200190f35b3480156104ba57600080fd5b506104e1600480360360208110156104d157600080fd5b5035600160a060020a031661283e565b604080519115158252519081900360200190f35b34801561050157600080fd5b506104e16004803603602081101561051857600080fd5b5035600160a060020a0316612866565b34801561053457600080fd5b5061049c6004803603602081101561054b57600080fd5b5035612894565b34801561055e57600080fd5b506104e16004803603602081101561057557600080fd5b5035600160a060020a03166128bc565b34801561059157600080fd5b506105af600480360360208110156105a857600080fd5b50356128e5565b6040805160208082528351818301528351919283929083019185019080838360005b838110156105e95781810151838201526020016105d1565b50505050905090810190601f1680156106165780820380516001836020036101000a031916815260200191505b509250505060405180910390f35b34801561063057600080fd5b506104e16004803603602081101561064757600080fd5b5035612998565b34801561065a57600080fd5b506104e16004803603602081101561067157600080fd5b50356129bf565b34801561068457600080fd5b506106a26004803603602081101561069b57600080fd5b50356129f0565b60408051600160a060020a039092168252519081900360200190f35b3480156106ca57600080fd5b506104e1600480360360208110156106e157600080fd5b5035612a1f565b3480156106f457600080fd5b5061049c612a2c565b34801561070957600080fd5b506105af6004803603602081101561072057600080fd5b5035612a32565b34801561073357600080fd5b506104e16004803603602081101561074a57600080fd5b5035612aac565b34801561075d57600080fd5b506104e16004803603602081101561077457600080fd5b5035600160a060020a0316612ad8565b34801561079057600080fd5b506104e1600480360360208110156107a757600080fd5b5035612aed565b3480156107ba57600080fd5b506107c3612b23565b60408051602080825283518183015283519192839290830191858101910280838360005b838110156107ff5781810151838201526020016107e7565b505050509050019250505060405180910390f35b34801561081f57600080fd5b5061049c6004803603602081101561083657600080fd5b5035612b86565b34801561084957600080fd5b506104e16004803603602081101561086057600080fd5b5035600160a060020a0316612bae565b34801561087c57600080fd5b506106a26004803603602081101561089357600080fd5b5035612bd7565b3480156108a657600080fd5b506108c4600480360360208110156108bd57600080fd5b5035612c09565b005b3480156108d257600080fd5b506108c4600480360360c08110156108e957600080fd5b81019060208101813564010000000081111561090457600080fd5b82018360208201111561091657600080fd5b8035906020019184600183028401116401000000008311171561093857600080fd5b91908080601f0160208091040260200160405190810160405280939291908181526020018383808284376000920191909152509295843595909490935060408101925060200135905064010000000081111561099357600080fd5b8201836020820111156109a557600080fd5b803590602001918460018302840111640100000000831117156109c757600080fd5b91908080601f0160208091040260200160405190810160405280939291908181526020018383808284376000920191909152509295949360208101935035915050640100000000811115610a1a57600080fd5b820183602082011115610a2c57600080fd5b80359060200191846001830284011164010000000083111715610a4e57600080fd5b91908080601f0160208091040260200160405190810160405280939291908181526020018383808284376000920191909152509295949360208101935035915050640100000000811115610aa157600080fd5b820183602082011115610ab357600080fd5b80359060200191846001830284011164010000000083111715610ad557600080fd5b91908080601f0160208091040260200160405190810160405280939291908181526020018383808284376000920191909152509295949360208101935035915050640100000000811115610b2857600080fd5b820183602082011115610b3a57600080fd5b80359060200191846001830284011164010000000083111715610b5c57600080fd5b91908080601f016020809104026020016040519081016040528093929190818152602001838380828437600092019190915250929550612c81945050505050565b348015610ba957600080fd5b5061049c612e15565b348015610bbe57600080fd5b506108c460048036036020811015610bd557600080fd5b5035600160a060020a0316612e1b565b348015610bf157600080fd5b5061049c612e56565b348015610c0657600080fd5b506106a2612e5c565b348015610c1b57600080fd5b506108c4600480360360c0811015610c3257600080fd5b810190602081018135640100000000811115610c4d57600080fd5b820183602082011115610c5f57600080fd5b80359060200191846001830284011164010000000083111715610c8157600080fd5b91908080601f0160208091040260200160405190810160405280939291908181526020018383808284376000920191909152509295949360208101935035915050640100000000811115610cd457600080fd5b820183602082011115610ce657600080fd5b80359060200191846001830284011164010000000083111715610d0857600080fd5b91908080601f0160208091040260200160405190810160405280939291908181526020018383808284376000920191909152509295949360208101935035915050640100000000811115610d5b57600080fd5b820183602082011115610d6d57600080fd5b80359060200191846001830284011164010000000083111715610d8f57600080fd5b91908080601f0160208091040260200160405190810160405280939291908181526020018383808284376000920191909152509295949360208101935035915050640100000000811115610de257600080fd5b820183602082011115610df457600080fd5b80359060200191846001830284011164010000000083111715610e1657600080fd5b91908080601f0160208091040260200160405190810160405280939291908181526020018383808284376000920191909152509295949360208101935035915050640100000000811115610e6957600080fd5b820183602082011115610e7b57600080fd5b80359060200191846001830284011164010000000083111715610e9d57600080fd5b91908080601f0160208091040260200160405190810160405280939291908181526020018383808284376000920191909152509295949360208101935035915050640100000000811115610ef057600080fd5b820183602082011115610f0257600080fd5b80359060200191846001830284011164010000000083111715610f2457600080fd5b91908080601f016020809104026020016040519081016040528093929190818152602001838380828437600092019190915250929550612e6b945050505050565b348015610f7157600080fd5b506107c3612fb2565b348015610f8657600080fd5b5061049c613012565b348015610f9b57600080fd5b5061049c613018565b348015610fb057600080fd5b506106a260048036036020811015610fc757600080fd5b503561301e565b348015610fda57600080fd5b506104e160048036036020811015610ff157600080fd5b5035600160a060020a0316613039565b34801561100d57600080fd5b5061102b6004803603602081101561102457600080fd5b503561304e565b604080519315158452911515602084015282820152519081900360600190f35b34801561105757600080fd5b506110756004803603602081101561106e57600080fd5b5035613074565b604051808a600160a060020a0316600160a060020a0316815260200189600160a060020a0316600160a060020a0316815260200188815260200180602001878152602001868152602001858152602001848152602001838152602001828103825288818151815260200191508051906020019080838360005b838110156111065781810151838201526020016110ee565b50505050905090810190601f1680156111335780820380516001836020036101000a031916815260200191505b509a505050505050505050505060405180910390f35b34801561115557600080fd5b506106a26004803603602081101561116c57600080fd5b5035613163565b34801561117f57600080fd5b506111a66004803603602081101561119657600080fd5b5035600160a060020a031661318a565b6040518088600160a060020a0316600160a060020a03168152602001806020018781526020018060200180602001806020018060200186810386528c818151815260200191508051906020019080838360005b838110156112115781810151838201526020016111f9565b50505050905090810190601f16801561123e5780820380516001836020036101000a031916815260200191505b5086810385528a5181528a516020918201918c019080838360005b83811015611271578181015183820152602001611259565b50505050905090810190601f16801561129e5780820380516001836020036101000a031916815260200191505b5086810384528951815289516020918201918b019080838360005b838110156112d15781810151838201526020016112b9565b50505050905090810190601f1680156112fe5780820380516001836020036101000a031916815260200191505b5086810383528851815288516020918201918a019080838360005b83811015611331578181015183820152602001611319565b50505050905090810190601f16801561135e5780820380516001836020036101000a031916815260200191505b50868103825287518152875160209182019189019080838360005b83811015611391578181015183820152602001611379565b50505050905090810190601f1680156113be5780820380516001836020036101000a031916815260200191505b509c5050505050505050505050505060405180910390f35b3480156113e257600080fd5b506104e1600480360360208110156113f957600080fd5b5035600160a060020a0316613486565b34801561141557600080fd5b506114336004803603602081101561142c57600080fd5b503561349b565b604051808a815260200189600160a060020a0316600160a060020a03168152602001806020018881526020018781526020018681526020018515151515815260200184815260200183815260200182810382528981815181526020019150805190602001908083836000838110156111065781810151838201526020016110ee565b3480156114c157600080fd5b5061049c61358d565b3480156114d657600080fd5b506108c4600480360360408110156114ed57600080fd5b5080359060200135613593565b34801561150657600080fd5b5061049c6004803603602081101561151d57600080fd5b503561362e565b34801561153057600080fd5b506108c4600480360360c081101561154757600080fd5b81019060208101813564010000000081111561156257600080fd5b82018360208201111561157457600080fd5b8035906020019184600183028401116401000000008311171561159657600080fd5b91908080601f016020809104026020016040519081016040528093929190818152602001838380828437600092019190915250929584359590949093506040810192506020013590506401000000008111156115f157600080fd5b82018360208201111561160357600080fd5b8035906020019184600183028401116401000000008311171561162557600080fd5b91908080601f016020809104026020016040519081016040528093929190818152602001838380828437600092019190915250929594936020810193503591505064010000000081111561167857600080fd5b82018360208201111561168a57600080fd5b803590602001918460018302840111640100000000831117156116ac57600080fd5b91908080601f01602080910402602001604051908101604052809392919081815260200183838082843760009201919091525092959493602081019350359150506401000000008111156116ff57600080fd5b82018360208201111561171157600080fd5b8035906020019184600183028401116401000000008311171561173357600080fd5b91908080601f016020809104026020016040519081016040528093929190818152602001838380828437600092019190915250929594936020810193503591505064010000000081111561178657600080fd5b82018360208201111561179857600080fd5b803590602001918460018302840111640100000000831117156117ba57600080fd5b91908080601f016020809104026020016040519081016040528093929190818152602001838380828437600092019190915250929550613656945050505050565b34801561180757600080fd5b5061049c6004803603602081101561181e57600080fd5b5035613766565b34801561183157600080fd5b506108c46004803603602081101561184857600080fd5b5035600160a060020a031661378e565b34801561186457600080fd5b5061049c6137c9565b34801561187957600080fd5b5061102b6004803603602081101561189057600080fd5b50356137cf565b3480156118a357600080fd5b5061049c6137f5565b3480156118b857600080fd5b5061049c600480360360208110156118cf57600080fd5b50356137fb565b3480156118e257600080fd5b506106a2600480360360208110156118f957600080fd5b5035613823565b6108c46004803603604081101561191657600080fd5b50600160a060020a038135169060200135613832565b34801561193857600080fd5b506104e16004803603602081101561194f57600080fd5b5035600160a060020a03166138a3565b34801561196b57600080fd5b506106a26004803603602081101561198257600080fd5b50356138cc565b34801561199557600080fd5b506119bc600480360360208110156119ac57600080fd5b5035600160a060020a03166138d9565b6040518080602001806020018060200180602001806020018060200187810387528d818151815260200191508051906020019080838360005b83811015611a0d5781810151838201526020016119f5565b50505050905090810190601f168015611a3a5780820380516001836020036101000a031916815260200191505b5087810386528c5181528c516020918201918e019080838360005b83811015611a6d578181015183820152602001611a55565b50505050905090810190601f168015611a9a5780820380516001836020036101000a031916815260200191505b5087810385528b5181528b516020918201918d019080838360005b83811015611acd578181015183820152602001611ab5565b50505050905090810190601f168015611afa5780820380516001836020036101000a031916815260200191505b5087810384528a5181528a516020918201918c019080838360005b83811015611b2d578181015183820152602001611b15565b50505050905090810190601f168015611b5a5780820380516001836020036101000a031916815260200191505b5087810383528951815289516020918201918b019080838360005b83811015611b8d578181015183820152602001611b75565b50505050905090810190601f168015611bba5780820380516001836020036101000a031916815260200191505b5087810382528851815288516020918201918a019080838360008315611391578181015183820152602001611379565b348015611bf657600080fd5b506108c4600480360360c0811015611c0d57600080fd5b810190602081018135640100000000811115611c2857600080fd5b820183602082011115611c3a57600080fd5b80359060200191846001830284011164010000000083111715611c5c57600080fd5b91908080601f0160208091040260200160405190810160405280939291908181526020018383808284376000920191909152509295505082359350505060208101359060408101359060608101359060800135613c7e565b348015611cc057600080fd5b5061049c60048036036020811015611cd757600080fd5b5035613e36565b348015611cea57600080fd5b5061049c60048036036020811015611d0157600080fd5b5035613e45565b348015611d1457600080fd5b5061049c613e54565b348015611d2957600080fd5b5061049c60048036036020811015611d4057600080fd5b5035613e5a565b6108c460048036036040811015611d5d57600080fd5b50600160a060020a038135169060200135613e69565b348015611d7f57600080fd5b50611da660048036036020811015611d9657600080fd5b5035600160a060020a031661426e565b6040518088600160a060020a0316600160a060020a0316815260200180602001806020018060200180602001806020018060200187810387528d818151815260200191508051906020019080838360005b83811015611e0f578181015183820152602001611df7565b50505050905090810190601f168015611e3c5780820380516001836020036101000a031916815260200191505b5087810386528c5181528c516020918201918e019080838360005b83811015611e6f578181015183820152602001611e57565b50505050905090810190601f168015611e9c5780820380516001836020036101000a031916815260200191505b5087810385528b5181528b516020918201918d019080838360005b83811015611ecf578181015183820152602001611eb7565b50505050905090810190601f168015611efc5780820380516001836020036101000a031916815260200191505b5087810384528a5181528a516020918201918c019080838360005b83811015611f2f578181015183820152602001611f17565b50505050905090810190601f168015611f5c5780820380516001836020036101000a031916815260200191505b5087810383528951815289516020918201918b019080838360005b83811015611f8f578181015183820152602001611f77565b50505050905090810190601f168015611fbc5780820380516001836020036101000a031916815260200191505b5087810382528851815288516020918201918a019080838360005b83811015611fef578181015183820152602001611fd7565b50505050905090810190601f16801561201c5780820380516001836020036101000a031916815260200191505b509d505050505050505050505050505060405180910390f35b34801561204157600080fd5b506120686004803603602081101561205857600080fd5b5035600160a060020a031661440f565b60405180806020018781526020018060200180602001806020018060200186810386528c818151815260200191508051906020019080838360005b838110156120bb5781810151838201526020016120a3565b50505050905090810190601f1680156120e85780820380516001836020036101000a031916815260200191505b5086810385528a5181528a516020918201918c019080838360005b8381101561211b578181015183820152602001612103565b50505050905090810190601f1680156121485780820380516001836020036101000a031916815260200191505b5086810384528951815289516020918201918b019080838360005b8381101561217b578181015183820152602001612163565b50505050905090810190601f1680156121a85780820380516001836020036101000a031916815260200191505b5086810383528851815288516020918201918a019080838360005b838110156121db5781810151838201526020016121c3565b50505050905090810190601f1680156122085780820380516001836020036101000a031916815260200191505b50868103825287518152875160209182019189019080838360005b8381101561223b578181015183820152602001612223565b50505050905090810190601f1680156122685780820380516001836020036101000a031916815260200191505b509b50505050505050505050505060405180910390f35b34801561228b57600080fd5b506108c4600480360360208110156122a257600080fd5b5035614535565b3480156122b557600080fd5b5061049c600480360360208110156122cc57600080fd5b50356145ca565b3480156122df57600080fd5b5061049c6145f2565b3480156122f457600080fd5b506123126004803603602081101561230b57600080fd5b50356145f8565b604051808581526020018060200184815260200180602001838103835286818151815260200191508051906020019080838360005b8381101561235f578181015183820152602001612347565b50505050905090810190601f16801561238c5780820380516001836020036101000a031916815260200191505b50838103825284518152845160209182019186019080838360005b838110156123bf5781810151838201526020016123a7565b50505050905090810190601f1680156123ec5780820380516001836020036101000a031916815260200191505b50965050505050505060405180910390f35b34801561240a57600080fd5b5061049c6004803603602081101561242157600080fd5b5035614735565b34801561243457600080fd5b506108c4600480360360c081101561244b57600080fd5b81019060208101813564010000000081111561246657600080fd5b82018360208201111561247857600080fd5b8035906020019184600183028401116401000000008311171561249a57600080fd5b91908080601f01602080910402602001604051908101604052809392919081815260200183838082843760009201919091525092959493602081019350359150506401000000008111156124ed57600080fd5b8201836020820111156124ff57600080fd5b8035906020019184600183028401116401000000008311171561252157600080fd5b91908080601f016020809104026020016040519081016040528093929190818152602001838380828437600092019190915250929594936020810193503591505064010000000081111561257457600080fd5b82018360208201111561258657600080fd5b803590602001918460018302840111640100000000831117156125a857600080fd5b91908080601f01602080910402602001604051908101604052809392919081815260200183838082843760009201919091525092959493602081019350359150506401000000008111156125fb57600080fd5b82018360208201111561260d57600080fd5b8035906020019184600183028401116401000000008311171561262f57600080fd5b91908080601f016020809104026020016040519081016040528093929190818152602001838380828437600092019190915250929594936020810193503591505064010000000081111561268257600080fd5b82018360208201111561269457600080fd5b803590602001918460018302840111640100000000831117156126b657600080fd5b91908080601f016020809104026020016040519081016040528093929190818152602001838380828437600092019190915250929594936020810193503591505064010000000081111561270957600080fd5b82018360208201111561271b57600080fd5b8035906020019184600183028401116401000000008311171561273d57600080fd5b91908080601f016020809104026020016040519081016040528093929190818152602001838380828437600092019190915250929550614744945050505050565b34801561278a57600080fd5b506108c4600480360360208110156127a157600080fd5b503561486b565b3480156127b457600080fd5b506104e1600480360360208110156127cb57600080fd5b5035600160a060020a0316614908565b3480156127e757600080fd5b506104e1600480360360208110156127fe57600080fd5b5035600160a060020a031661491d565b34801561281a57600080fd5b5061049c6004803603602081101561283157600080fd5b5035614932565b60105481565b60008054600160a060020a038381169116141561285d57506001612861565b5060005b919050565b600160a060020a0381166000908152600a602052604081205460ff1615156001141561285d57506001612861565b6000600b82815481106128a357fe5b9060005260206000209060090201600801549050919050565b600160a060020a03811660009081526008602052604081205460ff161561285d57506001612861565b6060600b82815481106128f457fe5b600091825260209182902060026009909202018101805460408051601f60001961010060018616150201909316949094049182018590048502840185019052808352919290919083018282801561298c5780601f106129615761010080835404028352916020019161298c565b820191906000526020600020905b81548152906001019060200180831161296f57829003601f168201915b50505050509050919050565b6000818152600d6020526040812054600160a060020a031633141561285d57506001612861565b601781815481106129cc57fe5b9060005260206000209060209182820401919006915054906101000a900460ff1681565b6000600182815481106129ff57fe5b6000918252602090912060099091020154600160a060020a031692915050565b601681815481106129cc57fe5b60125481565b606060018281548110612a4157fe5b6000918252602091829020600360099092020101805460408051601f600260001961010060018716150201909416939093049283018590048502810185019091528181529283018282801561298c5780601f106129615761010080835404028352916020019161298c565b6000600b8281548110612abb57fe5b600091825260209091206009909102016006015460ff1692915050565b600a6020526000908152604090205460ff1681565b600060178281548110612afc57fe5b90600052602060002090602091828204019190069054906101000a900460ff169050919050565b60606003805480602002602001604051908101604052809291908181526020018280548015612b7b57602002820191906000526020600020905b8154600160a060020a03168152600190910190602001808311612b5d575b505050505090505b90565b600060018281548110612b9557fe5b9060005260206000209060090201600501549050919050565b600160a060020a0381166000908152600c602052604081205460ff161561285d57506001612861565b6000600b8281548110612be657fe5b6000918252602090912060099091020160010154600160a060020a031692915050565b336000908152600a602052604090205460ff161515600114612c2a57600080fd5b3360009081526009602052604090205460ff161515600114612c4b57600080fd5b6013805460010190556000908152600d60205260409020805473ffffffffffffffffffffffffffffffffffffffff191633179055565b3360009081526007602052604090205460ff1615612c9e57600080fd5b601080546001908101909155600580548083019091557f036b6384b5eca791c62761152d0c79bb0604c104a5fb6f4eb0703f3154bb3db00180543373ffffffffffffffffffffffffffffffffffffffff1991821681179092556000828152600760209081526040808320805460ff19908116881790915560098352818420805490911687179055805160e0810182528581528083018d81528183018d9052606082018c9052608082018b905260a082018a905260c0820189905295845260068352922082518154909416600160a060020a039094169390931783559251805191949293612d909385019291019061495a565b506040820151600282015560608201518051612db691600384019160209091019061495a565b5060808201518051612dd291600484019160209091019061495a565b5060a08201518051612dee91600584019160209091019061495a565b5060c08201518051612e0a91600684019160209091019061495a565b505050505050505050565b60135481565b600054600160a060020a03163314612e3257600080fd5b600160a060020a03166000908152600a60205260409020805460ff19166001179055565b60105490565b600054600160a060020a031681565b3360009081526007602052604090205460ff1615612e8857600080fd5b601180546001908101909155600380548083019091557fc2575a0e9e593c00f959f8c92f12db2869c3395a3b0502d05e2516446f71f85b0180543373ffffffffffffffffffffffffffffffffffffffff1991821681179092556000828152600760209081526040808320805460ff19908116881790915560088352818420805490911687179055805160e0810182528581528083018d81528183018d9052606082018c9052608082018b905260a082018a905260c0820189905295845260048352922082518154909416600160a060020a039094169390931783559251805191949293612f7a9385019291019061495a565b5060408201518051612f9691600284019160209091019061495a565b5060608201518051612db691600384019160209091019061495a565b60606005805480602002602001604051908101604052809291908181526020018280548015612b7b57602002820191906000526020600020908154600160a060020a03168152600190910190602001808311612b5d575050505050905090565b600f5490565b60135490565b600d60205260009081526040902054600160a060020a031681565b600c6020526000908152604090205460ff1681565b6000908152601560205260409020805460019091015460ff808316936101009093041691565b6001818154811061308157fe5b60009182526020918290206009919091020180546001808301546002808501546003860180546040805161010097831615979097026000190190911693909304601f8101899004890286018901909352828552600160a060020a03958616985094909216959194939183018282801561313b5780601f106131105761010080835404028352916020019161313b565b820191906000526020600020905b81548152906001019060200180831161311e57829003601f168201915b5050505050908060040154908060050154908060060154908060070154908060080154905089565b6005818154811061317057fe5b600091825260209091200154600160a060020a0316905081565b6006602090815260009182526040918290208054600180830180548651600261010094831615949094026000190190911692909204601f8101869004860283018601909652858252600160a060020a039092169492939092908301828280156132345780601f1061320957610100808354040283529160200191613234565b820191906000526020600020905b81548152906001019060200180831161321757829003601f168201915b505050506002838101546003850180546040805160206001841615610100026000190190931695909504601f8101839004830286018301909152808552959692959294509091908301828280156132cc5780601f106132a1576101008083540402835291602001916132cc565b820191906000526020600020905b8154815290600101906020018083116132af57829003601f168201915b5050505060048301805460408051602060026001851615610100026000190190941693909304601f810184900484028201840190925281815294959493509083018282801561335c5780601f106133315761010080835404028352916020019161335c565b820191906000526020600020905b81548152906001019060200180831161333f57829003601f168201915b5050505060058301805460408051602060026001851615610100026000190190941693909304601f81018490048402820184019092528181529495949350908301828280156133ec5780601f106133c1576101008083540402835291602001916133ec565b820191906000526020600020905b8154815290600101906020018083116133cf57829003601f168201915b5050505060068301805460408051602060026001851615610100026000190190941693909304601f810184900484028201840190925281815294959493509083018282801561347c5780601f106134515761010080835404028352916020019161347c565b820191906000526020600020905b81548152906001019060200180831161345f57829003601f168201915b5050505050905087565b60096020526000908152604090205460ff1681565b600b81815481106134a857fe5b6000918252602091829020600991909102018054600180830154600280850180546040805161010096831615969096026000190190911692909204601f8101889004880285018801909252818452939650600160a060020a03909116949192918301828280156135595780601f1061352e57610100808354040283529160200191613559565b820191906000526020600020905b81548152906001019060200180831161353c57829003601f168201915b505050600384015460048501546005860154600687015460078801546008909801549697939692955090935060ff16919089565b600f5481565b3360009081526007602052604090205460ff1680156135c8575033600081815260066020526040902054600160a060020a0316145b8015613605575033600160a060020a0316600183815481106135e657fe5b6000918252602090912060016009909202010154600160a060020a0316145b61360e57600080fd5b600091825260156020526040909120805460ff1916600190811782550155565b6000600b828154811061363d57fe5b9060005260206000209060090201600401549050919050565b3360009081526007602052604090205460ff16801561368b575033600081815260066020526040902054600160a060020a0316145b61369457600080fd5b33600090815260066020908152604090912087516136ba9260019092019189019061495a565b503360009081526006602090815260409091206002810187905585516136e89260039092019187019061495a565b50336000908152600660209081526040909120845161370f9260049092019186019061495a565b5033600090815260066020908152604090912083516137369260059092019185019061495a565b50336000908152600660208181526040909220835161375d9391909201919084019061495a565b50505050505050565b6000600b828154811061377557fe5b9060005260206000209060090201600301549050919050565b600054600160a060020a031633146137a557600080fd5b600160a060020a03166000908152600c60205260409020805460ff19166001179055565b60115490565b6015602052600090815260409020805460019091015460ff808316926101009004169083565b60125490565b6000600b828154811061380a57fe5b9060005260206000209060090201600701549050919050565b600060018281548110612be657fe5b60016017828154811061384157fe5b90600052602060002090602091828204019190066101000a81548160ff02191690831515021790555081600160a060020a03166108fc349081150290604051600060405180830381858888f1935050505015801561389e57600080fd5b505050565b600160a060020a03811660009081526009602052604081205460ff161561285d57506001612861565b6003818154811061317057fe5b600160a060020a0381166000908152600460208181526040928390206001808201805486516002938216156101000260001901909116839004601f8101869004860282018601909752868152606096879687968796879687969590820194600383019483019360058401936006019291889183018282801561399c5780601f106139715761010080835404028352916020019161399c565b820191906000526020600020905b81548152906001019060200180831161397f57829003601f168201915b5050885460408051602060026001851615610100026000190190941693909304601f8101849004840282018401909252818152959b508a945092508401905082828015613a2a5780601f106139ff57610100808354040283529160200191613a2a565b820191906000526020600020905b815481529060010190602001808311613a0d57829003601f168201915b5050875460408051602060026001851615610100026000190190941693909304601f8101849004840282018401909252818152959a5089945092508401905082828015613ab85780601f10613a8d57610100808354040283529160200191613ab8565b820191906000526020600020905b815481529060010190602001808311613a9b57829003601f168201915b5050865460408051602060026001851615610100026000190190941693909304601f810184900484028201840190925281815295995088945092508401905082828015613b465780601f10613b1b57610100808354040283529160200191613b46565b820191906000526020600020905b815481529060010190602001808311613b2957829003601f168201915b5050855460408051602060026001851615610100026000190190941693909304601f810184900484028201840190925281815295985087945092508401905082828015613bd45780601f10613ba957610100808354040283529160200191613bd4565b820191906000526020600020905b815481529060010190602001808311613bb757829003601f168201915b5050845460408051602060026001851615610100026000190190941693909304601f810184900484028201840190925281815295975086945092508401905082828015613c625780601f10613c3757610100808354040283529160200191613c62565b820191906000526020600020905b815481529060010190602001808311613c4557829003601f168201915b5050505050905095509550955095509550955091939550919395565b336000908152600a602052604090205460ff161515600114613c9f57600080fd5b3360009081526008602052604090205460ff161515600114613cc057600080fd5b601280546001908101909155600b805460408051610120810182529382018085523360208087019182529286018c8152606087018c9052608087018b9052428a0160a0880152600060c0880181905260e088018a905261010088018990528387559590955285517f0175b7a638427703f0dbe7bb9bbf987a2551717b34e79f33b5b1008d1fa01db9600990950294850190815590517f0175b7a638427703f0dbe7bb9bbf987a2551717b34e79f33b5b1008d1fa01dba8501805473ffffffffffffffffffffffffffffffffffffffff1916600160a060020a03909216919091179055935180519195869590949093613dde937f0175b7a638427703f0dbe7bb9bbf987a2551717b34e79f33b5b1008d1fa01dbb90920192019061495a565b50606082015160038201556080820151600482015560a0820151600582015560c082015160068201805460ff191691151591909117905560e08201516007820155610100909101516008909101555050505050505050565b6000600b8281548110612b9557fe5b6000600182815481106128a357fe5b600e5481565b60006001828154811061380a57fe5b336000908152600a602052604090205460ff161515600114613e8a57600080fd5b3360009081526008602052604090205460ff161515600114613eab57600080fd5b601480546001908101909155600b805483908110613ec557fe5b60009182526020808320600992909202909101600601805460ff19908116941515949094179055604080516060808201835284825281840185815282840186815288875260158652848720935184549251929098169715159790971761ff00191661010091151582021783559551600192830155601680548084019091557fd833147d7dc355ba459fc788f669e58cfaf9dc25ddcd0702e87d69c7b512428985820401805460ff601f9384168a0a81021990911690915560178054808601825597527fc624b66cc0138b8fabc209247f72d758e1cf3343756d543badbf24212bed8c158688040180549790921690970a90960219909416909455805161012081018252338152600160a060020a0387169281019290925260145490820152600b8054919283019185908110613ff657fe5b600091825260209182902060026009909202018101805460408051601f60001961010060018616150201909316949094049182018590048502840185019052808352919290919083018282801561408e5780601f106140635761010080835404028352916020019161408e565b820191906000526020600020905b81548152906001019060200180831161407157829003601f168201915b50505050508152602001600b84815481106140a557fe5b9060005260206000209060090201600301548152602001600b84815481106140c957fe5b9060005260206000209060090201600401548152602001600b84815481106140ed57fe5b9060005260206000209060090201600501548152602001600b848154811061411157fe5b9060005260206000209060090201600701548152602001600b848154811061413557fe5b60009182526020808320600992830201600801549093528454600180820180885596845292849020855191909202909101805473ffffffffffffffffffffffffffffffffffffffff19908116600160a060020a0393841617825585850151938201805490911693909216929092179055604083015160028201556060830151805191926141ca9260038501929091019061495a565b506080820151600482015560a0820151600582015560c0820151600682015560e082015160078201556101009091015160089091015550604051600160a060020a038316903480156108fc02916000818181858888f1935050505015801561423157600080fd5b5060016016828154811061424157fe5b90600052602060002090602091828204019190066101000a81548160ff0219169083151502179055505050565b6004602090815260009182526040918290208054600180830180548651600261010094831615949094026000190190911692909204601f8101869004860283018601909652858252600160a060020a039092169492939092908301828280156143185780601f106142ed57610100808354040283529160200191614318565b820191906000526020600020905b8154815290600101906020018083116142fb57829003601f168201915b50505060028085018054604080516020601f60001961010060018716150201909416959095049283018590048502810185019091528181529596959450909250908301828280156143aa5780601f1061437f576101008083540402835291602001916143aa565b820191906000526020600020905b81548152906001019060200180831161438d57829003601f168201915b5050505060038301805460408051602060026001851615610100026000190190941693909304601f81018490048402820184019092528181529495949350908301828280156132cc5780601f106132a1576101008083540402835291602001916132cc565b600160a060020a03811660009081526006602081815260408084206002808201546001808401805486519281161561010002600019011693909304601f81018790048702820187019095528481526060979688968796879687969594600382019460048301946005840194939091019288918301828280156144d25780601f106144a7576101008083540402835291602001916144d2565b820191906000526020600020905b8154815290600101906020018083116144b557829003601f168201915b5050875460408051602060026001851615610100026000190190941693909304601f8101849004840282018401909252818152959b5089945092508401905082828015613ab85780601f10613a8d57610100808354040283529160200191613ab8565b3360009081526007602052604090205460ff16801561456a575033600081815260046020526040902054600160a060020a0316145b80156145a4575033600160a060020a03166001828154811061458857fe5b6000918252602090912060099091020154600160a060020a0316145b6145ad57600080fd5b6000908152601560205260409020805461ff001916610100179055565b6000600182815481106145d957fe5b9060005260206000209060090201600601549050919050565b60115481565b60026020818152600092835260409283902080546001808301805487519281161561010002600019011695909504601f81018590048502820185019096528581529094919390929091908301828280156146935780601f1061466857610100808354040283529160200191614693565b820191906000526020600020905b81548152906001019060200180831161467657829003601f168201915b505050506002838101546003850180546040805160206001841615610100026000190190931695909504601f81018390048302860183019091528085529596929592945090919083018282801561472b5780601f106147005761010080835404028352916020019161472b565b820191906000526020600020905b81548152906001019060200180831161470e57829003601f168201915b5050505050905084565b60006001828154811061363d57fe5b3360009081526007602052604090205460ff168015614779575033600081815260046020526040902054600160a060020a0316145b61478257600080fd5b33600090815260046020908152604090912087516147a89260019092019189019061495a565b5033600090815260046020908152604090912086516147cf9260029092019188019061495a565b5033600090815260046020908152604090912085516147f69260039092019187019061495a565b50336000908152600460208181526040909220855161481d9391909201919086019061495a565b5033600090815260046020908152604090912083516148449260059092019185019061495a565b50336000908152600460209081526040909120825161375d9260069092019184019061495a565b600054600160a060020a0316331461488257600080fd5b60008181526015602052604090205460ff16151560011480156148be575060008181526015602052604090205460ff6101009091041615156001145b6148c757600080fd5b6015600082815260200190815260200160002060010154600182815481106148eb57fe5b600091825260209091206006600990920201018054909101905550565b60076020526000908152604090205460ff1681565b60086020526000908152604090205460ff1681565b60006001828154811061494157fe5b9060005260206000209060090201600201549050919050565b828054600181600116156101000203166002900490600052602060002090601f016020900481019282601f1061499b57805160ff19168380011785556149c8565b828001600101855582156149c8579182015b828111156149c85782518255916020019190600101906149ad565b506149d49291506149d8565b5090565b612b8391905b808211156149d457600081556001016149de56fea265627a7a7231582045ee8032d7948fce994d7dba58b1d581f269ac77c6fd5049deff6ad8ad84a23d64736f6c63430005100032",
  "source": "// SPDX-License-Identifier: GPL-3.0\npragma solidity >= 0.5.2;\n// pragma experimental ABIEncoderV2;\ncontract Farm{\n    address public contract_admin;\n\n    constructor() public{\n        contract_admin = msg.sender;\n        add_admin(\"Inspector 1\", 45, \"Tehsil Manager\");\n    }\n\n    struct CropRequirement {\n        uint id;\n        address business;\n        string crop_name;\n        uint quantity_in_kg;\n        uint price_per_kg;\n        uint delivery_time;\n        bool status;//for tracking whether this crop requirement is completed or not.\n        uint totalPrice;\n        uint advancedPayment;\n    }\n\n    struct admin {\n        uint256 id;\n        string name;\n        uint256 age;\n        string designation;\n    }\n    \n    struct farmer {\n        address id;\n        string name;\n        uint256 age;\n        string city;\n        string aadharNumber;\n        string panNumber;\n        string land_document;\n    }\n\n    struct business {\n        address id;\n        string business_name;\n        string city;\n        string companyRegistrationNumber;\n        string GSTnumber;\n        string document;\n        string email;\n    }\n    \n    struct farmContract {\n        address business;\n        address farmer;\n        uint id;\n        string crop_name;\n        uint quantity_in_kg;\n        uint price_per_kg;\n        uint deadline;\n        uint totalPrice;\n        uint advancedPayment;\n    }\n\n    farmContract[] public Contracts;\n    \n    mapping(uint256 => admin) public InspectorMapping;\n\n    address[] public businesses;\n    mapping(address => business) public businessMapping;\n    \n\n    address[] public farmers;\n    mapping(address => farmer) public farmerMapping;\n\n    mapping(address => bool) public RegisteredAddressMapping;\n    mapping(address => bool) public RegisteredBusinessMapping;\n    mapping(address => bool) public RegisteredFarmerMapping;\n    mapping(address => bool) public Verification;\n    \n    // mapping(address => CropRequirement[]) public CropReqMap;//This map is for storing CropRequirements of particular company.\n    CropRequirement[] public CropReqMap;\n    mapping(address => bool) public rejection;\n\n    mapping(uint256 => address) public requestMapping;    \n    \n    uint256 public contractsCount = 5;\n    uint256 public inspectorsCount;\n    uint256 public farmersCount;\n    uint256 public businessCount;\n    uint256 public CropReqMapCount;\n    uint256 public totalRequest;\n\n    function getBusinessCount() public view returns(uint256){\n        return businessCount;\n    }\n\n    function getInspectorCount() public view returns(uint256){\n        return inspectorsCount;\n    }\n\n    function getFarmersCount() public view returns(uint256){\n        return farmersCount;\n    }\n    function getCropReqCount() public view returns(uint256){\n        return CropReqMapCount;\n    }\n\n    function getTotalRequestCount() public view returns(uint256){\n        return totalRequest;\n    }\n\n    // function getRequestCount(uint index) public view returns(uint256) {\n    //     return requestMapping[index].length;\n    // } \n\n    function add_admin(string memory _name, uint256 _age, string memory _designation) private{\n        inspectorsCount++;\n        InspectorMapping[inspectorsCount] = admin(\n            inspectorsCount,\n            _name,\n            _age,\n            _designation\n        );\n    }\n\n    function addFarmer( string memory name,\n                        uint256 age,\n                        string memory city,\n                        string memory aadharNumber,\n                        string memory panNumber,\n                        string memory land_document\n    ) public {\n        require(!RegisteredAddressMapping[msg.sender]);\n        farmersCount++;\n        farmers.push(msg.sender);\n        RegisteredAddressMapping[msg.sender] = true;\n        RegisteredFarmerMapping[msg.sender] = true;\n        farmerMapping[msg.sender] = farmer( msg.sender, name, age, city, aadharNumber, panNumber, land_document);\n    }\n\n    function updateFarmer( string memory _name,\n                        uint256 _age,\n                        string memory _city,\n                        string memory _aadharNumber,\n                        string memory _panNumber,\n                        string memory _land_document\n    ) public {\n        require(RegisteredAddressMapping[msg.sender] && farmerMapping[msg.sender].id == msg.sender);\n\n        \n        farmerMapping[msg.sender].name = _name;\n        farmerMapping[msg.sender].age = _age;\n        farmerMapping[msg.sender].city = _city;\n        farmerMapping[msg.sender].aadharNumber = _aadharNumber;\n        farmerMapping[msg.sender].panNumber = _panNumber;\n        farmerMapping[msg.sender].land_document = _land_document;\n    }\n\n    function getFarmers() public view returns (address[] memory) {\n        return (farmers);\n    }\n\n    //here we are returning the whole farmer struct to stop stack too deep error\n    function getFarmerDetails(address i) public view returns (string memory, uint, string memory, string memory, string memory, string memory) {\n        return (farmerMapping[i].name, \n                farmerMapping[i].age, \n                farmerMapping[i].city, \n                farmerMapping[i].aadharNumber, \n                farmerMapping[i].panNumber, \n                farmerMapping[i].land_document);\n    }\n\n    function addBusiness(string memory business_name,\n        string memory city,\n        string memory companyRegistrationNumber,\n        string memory GSTnumber,\n        string memory document,\n        string memory email\n    ) public {\n        require(!RegisteredAddressMapping[msg.sender]);\n\n        businessCount++;\n        businesses.push(msg.sender);\n        RegisteredAddressMapping[msg.sender] = true;\n        RegisteredBusinessMapping[msg.sender] = true;\n        businessMapping[msg.sender] = business( msg.sender, business_name, city, companyRegistrationNumber, GSTnumber, document, email);\n    }\n\n    function updateBusiness(string memory _business_name,\n        string memory _city,\n        string memory _companyRegistrationNumber,\n        string memory _GSTnumber,\n        string memory _document,\n        string memory _email\n    ) public {\n        require(RegisteredAddressMapping[msg.sender] && businessMapping[msg.sender].id == msg.sender);\n\n        businessMapping[msg.sender].business_name = _business_name;\n        businessMapping[msg.sender].city = _city;\n        businessMapping[msg.sender].companyRegistrationNumber = _companyRegistrationNumber;\n        businessMapping[msg.sender].GSTnumber = _GSTnumber;\n        businessMapping[msg.sender].document = _document;\n        businessMapping[msg.sender].email = _email;\n    }\n\n    function getBusinesses() public view returns (address[] memory) {\n        return (businesses);\n    }\n\n    function getBusinessDetails(address i)\n        public\n        view\n        returns (\n            string memory,\n            string memory,\n            string memory,\n            string memory,\n            string memory,\n            string memory\n        )\n    {\n        return (\n            businessMapping[i].business_name,\n            businessMapping[i].city,\n            businessMapping[i].companyRegistrationNumber,\n            businessMapping[i].GSTnumber,\n            businessMapping[i].document,\n            businessMapping[i].email\n        );\n    }\n\n    function isFarmer(address _id) public view returns (bool) {\n        if (RegisteredFarmerMapping[_id]) {\n            return true;\n        } else {\n            // Handle the case where it's not verified\n            return false;\n        }\n    }\n\n    function isAdmin1 (address _id) public view returns (bool) {\n        if(_id == contract_admin) return true;\n        else return false;\n    }\n\n    function isBusiness(address _id) public view returns (bool) {\n        if (RegisteredBusinessMapping[_id]) {\n            return true;\n        } else {\n            // Handle the case where it's not verified\n            return false;\n        }\n    }\n\n    modifier isAdmin {\n        require(msg.sender == contract_admin);\n        _;\n    }\n\n    modifier isVerified{\n        require(Verification[msg.sender] == true);\n        _;\n    }\n\n    function isVerified1(address _id) public view returns (bool) {\n        if(Verification[_id] == true) return true; \n        else return false;\n    }\n\n    function verify(address walletID) isAdmin public{\n        Verification[walletID] = true;\n    }\n\n    function reject(address walletID) isAdmin public {\n        rejection[walletID] = true;\n    }\n\n    function isRejected(address walletID) public view returns (bool)  {\n        if(rejection[walletID]) return true;\n        else return false;\n    }\n\n    function addCropRequirement (\n        string memory crop_name,\n        uint quantity_in_kg,\n        uint price_per_kg,\n        uint256 deliveryTime, \n        uint256 _total,\n        uint256 _advPayment) public isVerified{\n            require(RegisteredBusinessMapping[msg.sender] == true);\n            \n            CropReqMapCount++;\n            uint id_temp = CropReqMap.length + 1;\n            // CropReqMapComplete[id_temp] = false;\n            CropReqMap.push(CropRequirement(id_temp, msg.sender, crop_name, quantity_in_kg, price_per_kg, block.timestamp+deliveryTime, false, _total, _advPayment));    \n    }\n\n    //below set of functions is for getting information about cropRequirement.\n    function getCropRequirementBusiness(uint256 i) public view returns(address){\n        return CropReqMap[i].business;\n    }\n    \n    function getCropRequirementCropName(uint256 i) public view returns(string memory){\n        return CropReqMap[i].crop_name;\n    }\n    function getCropRequirementQuantity(uint256 i) public view returns(uint256){\n        return CropReqMap[i].quantity_in_kg;\n    }\n    function getCropRequirementPrice(uint256 i) public view returns(uint256){\n        return CropReqMap[i].price_per_kg;\n    }\n    function getCropRequirementDelTime(uint256 i) public view returns(uint256){\n        return CropReqMap[i].delivery_time;\n    }\n    function getCropRequirementStatus(uint256 i) public view returns (bool){\n        return CropReqMap[i].status;\n    }\n    function getCropRequirementTotalPrice(uint256 i) public view returns (uint256) {\n        return CropReqMap[i].totalPrice;\n    }\n    function getCropRequirementAdvPayment(uint256 i) public view returns (uint256) {\n        return CropReqMap[i].advancedPayment;\n    }\n    //end\n\n    function requestContract(uint256 i) public isVerified{\n        require(RegisteredFarmerMapping[msg.sender] == true);\n        totalRequest++;\n        requestMapping[i] = msg.sender;  \n    }\n\n    function isRequested(uint256 index) public view returns (bool){\n        // uint256 length = requestMapping[index].length;\n        // for(uint256 i=0; i<length; i++){\n        if(requestMapping[index] == msg.sender){\n            return true;\n        }\n        // }\n        else return false;\n    }\n\n    uint256 ContractsCount = 0;\n\n    struct forExtension {\n        bool farmerReq;\n        bool businessAcceptance;\n        uint256 time;\n    }\n    \n    mapping(uint256 => forExtension) public extensionReq;//This array is for extension requests.\n    bool[] public advancedPaymentReceived; \n    bool[] public PaymentReceived; \n\n\n    function signContract(address payable farmerAddress, uint256 i) public payable isVerified{\n        require(RegisteredBusinessMapping[msg.sender] == true);\n\n        ContractsCount++;\n        CropReqMap[i].status = true;\n        extensionReq[i] = forExtension(false, false, 0);\n        advancedPaymentReceived.push(false);\n        PaymentReceived.push(false);\n        Contracts.push(farmContract(msg.sender, \n                                    farmerAddress, \n                                    ContractsCount, //id of contract\n                                    CropReqMap[i].crop_name, \n                                    CropReqMap[i].quantity_in_kg, \n                                    CropReqMap[i].price_per_kg, \n                                    CropReqMap[i].delivery_time, \n                                    CropReqMap[i].totalPrice, \n                                    CropReqMap[i].advancedPayment));\n        \n        //Triggering advanced payment\n        //we have to take care of msg.value from frontend.\n            /* First access the advancedPayment value from CropReqMap using index i \n               and pass it using web3.js frontend(refer \"makePayment.js\" for this)*/\n        farmerAddress.transfer(msg.value);\n        advancedPaymentReceived[i] = true;\n    }\n\n\n    //below are the functions for displaying contracts data to the frontend\n    function getContractBusiness(uint i) public view returns (address) {\n        return Contracts[i].business;\n    }\n    function getContractFarmer(uint i) public view returns (address) {\n        return Contracts[i].farmer;\n    }\n    function getContractId(uint i) public view returns (uint) {\n        return Contracts[i].id;\n    }\n    function getContractCropName(uint i) public view returns (string memory) {\n        return Contracts[i].crop_name;\n    }\n    function getContractQuantity(uint i) public view returns (uint) {\n        return Contracts[i].quantity_in_kg;\n    }\n    function getContractPrice(uint i) public view returns (uint) {\n        return Contracts[i].price_per_kg;\n    }\n    function getContractDeadLine(uint i) public view returns (uint) {\n        return Contracts[i].deadline;\n    }\n    function getContractTotalPrice(uint i) public view returns (uint) {\n        return Contracts[i].totalPrice;\n    }\n    function getContractAdvPayment(uint i) public view returns (uint) {\n        return Contracts[i].advancedPayment;\n    }\n    //----------end--------------(these functions will be used to display the contracts data to the frontend)\n\n\n\n    //Below Implementation is for extension part.\n    function requestExtension(uint _i, uint256 _time) public {\n        require(RegisteredAddressMapping[msg.sender] && farmerMapping[msg.sender].id == msg.sender && Contracts[_i].farmer == msg.sender);\n\n        extensionReq[_i].farmerReq = true;\n        extensionReq[_i].time = _time;\n    }\n\n    function getExtensionInformation(uint _i) public view returns (bool, bool, uint) {\n        return (extensionReq[_i].farmerReq,\n                extensionReq[_i].businessAcceptance,\n                extensionReq[_i].time);\n    }\n\n    function acceptExtension(uint _i) public {\n        require(RegisteredAddressMapping[msg.sender] && businessMapping[msg.sender].id == msg.sender && Contracts[_i].business == msg.sender);\n        extensionReq[_i].businessAcceptance = true;\n    }\n\n    function updateContract(uint _i) public isAdmin {\n        require(extensionReq[_i].farmerReq == true && extensionReq[_i].businessAcceptance == true);\n        Contracts[_i].deadline += extensionReq[_i].time;\n    }\n\n    //function for remaining payment\n    function payRemaining(address payable _farmer, uint256 id) public payable {\n        PaymentReceived[id] = true;\n        _farmer.transfer(msg.value);\n    }\n\n    function isComplete(uint256 id) public view returns (bool) {\n        return PaymentReceived[id];\n    }\n    \n}",
  "sourcePath": "/home/ashwin/Contract Farming Project/contracts/Farm.sol",
  "compiler": {
    "name": "solc",
    "version": "0.5.16+commit.9c3226ce.Emscripten.clang"
  },
  "schemaVersion": "3.4.16",
  "updatedAt": "2024-02-21T02:25:21.590Z",
  "networkType": "ethereum",
  "devdoc": {
    "methods": {}
  },
  "userdoc": {
    "methods": {}
  }
}