{
  "contractName": "Farm",
  "abi": [
    {
      "inputs": [],
      "payable": false,
      "stateMutability": "nonpayable",
      "type": "constructor"
    },
    {
      "constant": true,
      "inputs": [
        {
          "internalType": "uint256",
          "name": "",
          "type": "uint256"
        }
      ],
      "name": "Contracts",
      "outputs": [
        {
          "internalType": "address",
          "name": "business",
          "type": "address"
        },
        {
          "internalType": "address",
          "name": "farmer",
          "type": "address"
        },
        {
          "internalType": "uint256",
          "name": "id",
          "type": "uint256"
        },
        {
          "internalType": "string",
          "name": "crop_name",
          "type": "string"
        },
        {
          "internalType": "uint256",
          "name": "quantity_in_kg",
          "type": "uint256"
        },
        {
          "internalType": "uint256",
          "name": "price_per_kg",
          "type": "uint256"
        },
        {
          "internalType": "uint256",
          "name": "deadline",
          "type": "uint256"
        },
        {
          "internalType": "uint256",
          "name": "totalPrice",
          "type": "uint256"
        },
        {
          "internalType": "uint256",
          "name": "advancedPayment",
          "type": "uint256"
        }
      ],
      "payable": false,
      "stateMutability": "view",
      "type": "function"
    },
    {
      "constant": true,
      "inputs": [
        {
          "internalType": "uint256",
          "name": "",
          "type": "uint256"
        }
      ],
      "name": "CropReqMap",
      "outputs": [
        {
          "internalType": "uint256",
          "name": "id",
          "type": "uint256"
        },
        {
          "internalType": "address",
          "name": "business",
          "type": "address"
        },
        {
          "internalType": "string",
          "name": "crop_name",
          "type": "string"
        },
        {
          "internalType": "uint256",
          "name": "quantity_in_kg",
          "type": "uint256"
        },
        {
          "internalType": "uint256",
          "name": "price_per_kg",
          "type": "uint256"
        },
        {
          "internalType": "uint256",
          "name": "delivery_time",
          "type": "uint256"
        },
        {
          "internalType": "bool",
          "name": "status",
          "type": "bool"
        },
        {
          "internalType": "uint256",
          "name": "totalPrice",
          "type": "uint256"
        },
        {
          "internalType": "uint256",
          "name": "advancedPayment",
          "type": "uint256"
        }
      ],
      "payable": false,
      "stateMutability": "view",
      "type": "function"
    },
    {
      "constant": true,
      "inputs": [],
      "name": "CropReqMapCount",
      "outputs": [
        {
          "internalType": "uint256",
          "name": "",
          "type": "uint256"
        }
      ],
      "payable": false,
      "stateMutability": "view",
      "type": "function"
    },
    {
      "constant": true,
      "inputs": [
        {
          "internalType": "uint256",
          "name": "",
          "type": "uint256"
        }
      ],
      "name": "InspectorMapping",
      "outputs": [
        {
          "internalType": "uint256",
          "name": "id",
          "type": "uint256"
        },
        {
          "internalType": "string",
          "name": "name",
          "type": "string"
        },
        {
          "internalType": "uint256",
          "name": "age",
          "type": "uint256"
        },
        {
          "internalType": "string",
          "name": "designation",
          "type": "string"
        }
      ],
      "payable": false,
      "stateMutability": "view",
      "type": "function"
    },
    {
      "constant": true,
      "inputs": [
        {
          "internalType": "uint256",
          "name": "",
          "type": "uint256"
        }
      ],
      "name": "PaymentReceived",
      "outputs": [
        {
          "internalType": "bool",
          "name": "",
          "type": "bool"
        }
      ],
      "payable": false,
      "stateMutability": "view",
      "type": "function"
    },
    {
      "constant": true,
      "inputs": [
        {
          "internalType": "address",
          "name": "",
          "type": "address"
        }
      ],
      "name": "RegisteredAddressMapping",
      "outputs": [
        {
          "internalType": "bool",
          "name": "",
          "type": "bool"
        }
      ],
      "payable": false,
      "stateMutability": "view",
      "type": "function"
    },
    {
      "constant": true,
      "inputs": [
        {
          "internalType": "address",
          "name": "",
          "type": "address"
        }
      ],
      "name": "RegisteredBusinessMapping",
      "outputs": [
        {
          "internalType": "bool",
          "name": "",
          "type": "bool"
        }
      ],
      "payable": false,
      "stateMutability": "view",
      "type": "function"
    },
    {
      "constant": true,
      "inputs": [
        {
          "internalType": "address",
          "name": "",
          "type": "address"
        }
      ],
      "name": "RegisteredFarmerMapping",
      "outputs": [
        {
          "internalType": "bool",
          "name": "",
          "type": "bool"
        }
      ],
      "payable": false,
      "stateMutability": "view",
      "type": "function"
    },
    {
      "constant": true,
      "inputs": [
        {
          "internalType": "address",
          "name": "",
          "type": "address"
        }
      ],
      "name": "Verification",
      "outputs": [
        {
          "internalType": "bool",
          "name": "",
          "type": "bool"
        }
      ],
      "payable": false,
      "stateMutability": "view",
      "type": "function"
    },
    {
      "constant": true,
      "inputs": [
        {
          "internalType": "uint256",
          "name": "",
          "type": "uint256"
        }
      ],
      "name": "advancedPaymentReceived",
      "outputs": [
        {
          "internalType": "bool",
          "name": "",
          "type": "bool"
        }
      ],
      "payable": false,
      "stateMutability": "view",
      "type": "function"
    },
    {
      "constant": true,
      "inputs": [],
      "name": "businessCount",
      "outputs": [
        {
          "internalType": "uint256",
          "name": "",
          "type": "uint256"
        }
      ],
      "payable": false,
      "stateMutability": "view",
      "type": "function"
    },
    {
      "constant": true,
      "inputs": [
        {
          "internalType": "address",
          "name": "",
          "type": "address"
        }
      ],
      "name": "businessMapping",
      "outputs": [
        {
          "internalType": "address",
          "name": "id",
          "type": "address"
        },
        {
          "internalType": "string",
          "name": "business_name",
          "type": "string"
        },
        {
          "internalType": "string",
          "name": "city",
          "type": "string"
        },
        {
          "internalType": "string",
          "name": "companyRegistrationNumber",
          "type": "string"
        },
        {
          "internalType": "string",
          "name": "GSTnumber",
          "type": "string"
        },
        {
          "internalType": "string",
          "name": "document",
          "type": "string"
        },
        {
          "internalType": "string",
          "name": "email",
          "type": "string"
        }
      ],
      "payable": false,
      "stateMutability": "view",
      "type": "function"
    },
    {
      "constant": true,
      "inputs": [
        {
          "internalType": "uint256",
          "name": "",
          "type": "uint256"
        }
      ],
      "name": "businesses",
      "outputs": [
        {
          "internalType": "address",
          "name": "",
          "type": "address"
        }
      ],
      "payable": false,
      "stateMutability": "view",
      "type": "function"
    },
    {
      "constant": true,
      "inputs": [],
      "name": "contract_admin",
      "outputs": [
        {
          "internalType": "address",
          "name": "",
          "type": "address"
        }
      ],
      "payable": false,
      "stateMutability": "view",
      "type": "function"
    },
    {
      "constant": true,
      "inputs": [],
      "name": "contractsCount",
      "outputs": [
        {
          "internalType": "uint256",
          "name": "",
          "type": "uint256"
        }
      ],
      "payable": false,
      "stateMutability": "view",
      "type": "function"
    },
    {
      "constant": true,
      "inputs": [
        {
          "internalType": "uint256",
          "name": "",
          "type": "uint256"
        }
      ],
      "name": "extensionReq",
      "outputs": [
        {
          "internalType": "bool",
          "name": "farmerReq",
          "type": "bool"
        },
        {
          "internalType": "bool",
          "name": "businessAcceptance",
          "type": "bool"
        },
        {
          "internalType": "uint256",
          "name": "time",
          "type": "uint256"
        }
      ],
      "payable": false,
      "stateMutability": "view",
      "type": "function"
    },
    {
      "constant": true,
      "inputs": [
        {
          "internalType": "address",
          "name": "",
          "type": "address"
        }
      ],
      "name": "farmerMapping",
      "outputs": [
        {
          "internalType": "address",
          "name": "id",
          "type": "address"
        },
        {
          "internalType": "string",
          "name": "name",
          "type": "string"
        },
        {
          "internalType": "uint256",
          "name": "age",
          "type": "uint256"
        },
        {
          "internalType": "string",
          "name": "city",
          "type": "string"
        },
        {
          "internalType": "string",
          "name": "aadharNumber",
          "type": "string"
        },
        {
          "internalType": "string",
          "name": "panNumber",
          "type": "string"
        },
        {
          "internalType": "string",
          "name": "land_document",
          "type": "string"
        }
      ],
      "payable": false,
      "stateMutability": "view",
      "type": "function"
    },
    {
      "constant": true,
      "inputs": [
        {
          "internalType": "uint256",
          "name": "",
          "type": "uint256"
        }
      ],
      "name": "farmers",
      "outputs": [
        {
          "internalType": "address",
          "name": "",
          "type": "address"
        }
      ],
      "payable": false,
      "stateMutability": "view",
      "type": "function"
    },
    {
      "constant": true,
      "inputs": [],
      "name": "farmersCount",
      "outputs": [
        {
          "internalType": "uint256",
          "name": "",
          "type": "uint256"
        }
      ],
      "payable": false,
      "stateMutability": "view",
      "type": "function"
    },
    {
      "constant": true,
      "inputs": [],
      "name": "inspectorsCount",
      "outputs": [
        {
          "internalType": "uint256",
          "name": "",
          "type": "uint256"
        }
      ],
      "payable": false,
      "stateMutability": "view",
      "type": "function"
    },
    {
      "constant": true,
      "inputs": [
        {
          "internalType": "address",
          "name": "",
          "type": "address"
        }
      ],
      "name": "rejection",
      "outputs": [
        {
          "internalType": "bool",
          "name": "",
          "type": "bool"
        }
      ],
      "payable": false,
      "stateMutability": "view",
      "type": "function"
    },
    {
      "constant": true,
      "inputs": [
        {
          "internalType": "uint256",
          "name": "",
          "type": "uint256"
        },
        {
          "internalType": "uint256",
          "name": "",
          "type": "uint256"
        }
      ],
      "name": "requestMapping",
      "outputs": [
        {
          "internalType": "address",
          "name": "",
          "type": "address"
        }
      ],
      "payable": false,
      "stateMutability": "view",
      "type": "function"
    },
    {
      "constant": true,
      "inputs": [],
      "name": "totalRequest",
      "outputs": [
        {
          "internalType": "uint256",
          "name": "",
          "type": "uint256"
        }
      ],
      "payable": false,
      "stateMutability": "view",
      "type": "function"
    },
    {
      "constant": true,
      "inputs": [],
      "name": "getBusinessCount",
      "outputs": [
        {
          "internalType": "uint256",
          "name": "",
          "type": "uint256"
        }
      ],
      "payable": false,
      "stateMutability": "view",
      "type": "function"
    },
    {
      "constant": true,
      "inputs": [],
      "name": "getInspectorCount",
      "outputs": [
        {
          "internalType": "uint256",
          "name": "",
          "type": "uint256"
        }
      ],
      "payable": false,
      "stateMutability": "view",
      "type": "function"
    },
    {
      "constant": true,
      "inputs": [],
      "name": "getFarmersCount",
      "outputs": [
        {
          "internalType": "uint256",
          "name": "",
          "type": "uint256"
        }
      ],
      "payable": false,
      "stateMutability": "view",
      "type": "function"
    },
    {
      "constant": true,
      "inputs": [],
      "name": "getCropReqCount",
      "outputs": [
        {
          "internalType": "uint256",
          "name": "",
          "type": "uint256"
        }
      ],
      "payable": false,
      "stateMutability": "view",
      "type": "function"
    },
    {
      "constant": true,
      "inputs": [],
      "name": "getTotalRequestCount",
      "outputs": [
        {
          "internalType": "uint256",
          "name": "",
          "type": "uint256"
        }
      ],
      "payable": false,
      "stateMutability": "view",
      "type": "function"
    },
    {
      "constant": false,
      "inputs": [
        {
          "internalType": "string",
          "name": "name",
          "type": "string"
        },
        {
          "internalType": "uint256",
          "name": "age",
          "type": "uint256"
        },
        {
          "internalType": "string",
          "name": "city",
          "type": "string"
        },
        {
          "internalType": "string",
          "name": "aadharNumber",
          "type": "string"
        },
        {
          "internalType": "string",
          "name": "panNumber",
          "type": "string"
        },
        {
          "internalType": "string",
          "name": "land_document",
          "type": "string"
        }
      ],
      "name": "addFarmer",
      "outputs": [],
      "payable": false,
      "stateMutability": "nonpayable",
      "type": "function"
    },
    {
      "constant": false,
      "inputs": [
        {
          "internalType": "string",
          "name": "_name",
          "type": "string"
        },
        {
          "internalType": "uint256",
          "name": "_age",
          "type": "uint256"
        },
        {
          "internalType": "string",
          "name": "_city",
          "type": "string"
        },
        {
          "internalType": "string",
          "name": "_aadharNumber",
          "type": "string"
        },
        {
          "internalType": "string",
          "name": "_panNumber",
          "type": "string"
        },
        {
          "internalType": "string",
          "name": "_land_document",
          "type": "string"
        }
      ],
      "name": "updateFarmer",
      "outputs": [],
      "payable": false,
      "stateMutability": "nonpayable",
      "type": "function"
    },
    {
      "constant": true,
      "inputs": [],
      "name": "getFarmers",
      "outputs": [
        {
          "internalType": "address[]",
          "name": "",
          "type": "address[]"
        }
      ],
      "payable": false,
      "stateMutability": "view",
      "type": "function"
    },
    {
      "constant": true,
      "inputs": [
        {
          "internalType": "address",
          "name": "i",
          "type": "address"
        }
      ],
      "name": "getFarmerDetails",
      "outputs": [
        {
          "internalType": "string",
          "name": "",
          "type": "string"
        },
        {
          "internalType": "uint256",
          "name": "",
          "type": "uint256"
        },
        {
          "internalType": "string",
          "name": "",
          "type": "string"
        },
        {
          "internalType": "string",
          "name": "",
          "type": "string"
        },
        {
          "internalType": "string",
          "name": "",
          "type": "string"
        },
        {
          "internalType": "string",
          "name": "",
          "type": "string"
        }
      ],
      "payable": false,
      "stateMutability": "view",
      "type": "function"
    },
    {
      "constant": false,
      "inputs": [
        {
          "internalType": "string",
          "name": "business_name",
          "type": "string"
        },
        {
          "internalType": "string",
          "name": "city",
          "type": "string"
        },
        {
          "internalType": "string",
          "name": "companyRegistrationNumber",
          "type": "string"
        },
        {
          "internalType": "string",
          "name": "GSTnumber",
          "type": "string"
        },
        {
          "internalType": "string",
          "name": "document",
          "type": "string"
        },
        {
          "internalType": "string",
          "name": "email",
          "type": "string"
        }
      ],
      "name": "addBusiness",
      "outputs": [],
      "payable": false,
      "stateMutability": "nonpayable",
      "type": "function"
    },
    {
      "constant": false,
      "inputs": [
        {
          "internalType": "string",
          "name": "_business_name",
          "type": "string"
        },
        {
          "internalType": "string",
          "name": "_city",
          "type": "string"
        },
        {
          "internalType": "string",
          "name": "_companyRegistrationNumber",
          "type": "string"
        },
        {
          "internalType": "string",
          "name": "_GSTnumber",
          "type": "string"
        },
        {
          "internalType": "string",
          "name": "_document",
          "type": "string"
        },
        {
          "internalType": "string",
          "name": "_email",
          "type": "string"
        }
      ],
      "name": "updateBusiness",
      "outputs": [],
      "payable": false,
      "stateMutability": "nonpayable",
      "type": "function"
    },
    {
      "constant": true,
      "inputs": [],
      "name": "getBusinesses",
      "outputs": [
        {
          "internalType": "address[]",
          "name": "",
          "type": "address[]"
        }
      ],
      "payable": false,
      "stateMutability": "view",
      "type": "function"
    },
    {
      "constant": true,
      "inputs": [
        {
          "internalType": "address",
          "name": "i",
          "type": "address"
        }
      ],
      "name": "getBusinessDetails",
      "outputs": [
        {
          "internalType": "string",
          "name": "",
          "type": "string"
        },
        {
          "internalType": "string",
          "name": "",
          "type": "string"
        },
        {
          "internalType": "string",
          "name": "",
          "type": "string"
        },
        {
          "internalType": "string",
          "name": "",
          "type": "string"
        },
        {
          "internalType": "string",
          "name": "",
          "type": "string"
        },
        {
          "internalType": "string",
          "name": "",
          "type": "string"
        }
      ],
      "payable": false,
      "stateMutability": "view",
      "type": "function"
    },
    {
      "constant": true,
      "inputs": [
        {
          "internalType": "address",
          "name": "_id",
          "type": "address"
        }
      ],
      "name": "isFarmer",
      "outputs": [
        {
          "internalType": "bool",
          "name": "",
          "type": "bool"
        }
      ],
      "payable": false,
      "stateMutability": "view",
      "type": "function"
    },
    {
      "constant": true,
      "inputs": [
        {
          "internalType": "address",
          "name": "_id",
          "type": "address"
        }
      ],
      "name": "isAdmin1",
      "outputs": [
        {
          "internalType": "bool",
          "name": "",
          "type": "bool"
        }
      ],
      "payable": false,
      "stateMutability": "view",
      "type": "function"
    },
    {
      "constant": true,
      "inputs": [
        {
          "internalType": "address",
          "name": "_id",
          "type": "address"
        }
      ],
      "name": "isBusiness",
      "outputs": [
        {
          "internalType": "bool",
          "name": "",
          "type": "bool"
        }
      ],
      "payable": false,
      "stateMutability": "view",
      "type": "function"
    },
    {
      "constant": true,
      "inputs": [
        {
          "internalType": "address",
          "name": "_id",
          "type": "address"
        }
      ],
      "name": "isVerified1",
      "outputs": [
        {
          "internalType": "bool",
          "name": "",
          "type": "bool"
        }
      ],
      "payable": false,
      "stateMutability": "view",
      "type": "function"
    },
    {
      "constant": false,
      "inputs": [
        {
          "internalType": "address",
          "name": "walletID",
          "type": "address"
        }
      ],
      "name": "verify",
      "outputs": [],
      "payable": false,
      "stateMutability": "nonpayable",
      "type": "function"
    },
    {
      "constant": false,
      "inputs": [
        {
          "internalType": "address",
          "name": "walletID",
          "type": "address"
        }
      ],
      "name": "reject",
      "outputs": [],
      "payable": false,
      "stateMutability": "nonpayable",
      "type": "function"
    },
    {
      "constant": true,
      "inputs": [
        {
          "internalType": "address",
          "name": "walletID",
          "type": "address"
        }
      ],
      "name": "isRejected",
      "outputs": [
        {
          "internalType": "bool",
          "name": "",
          "type": "bool"
        }
      ],
      "payable": false,
      "stateMutability": "view",
      "type": "function"
    },
    {
      "constant": false,
      "inputs": [
        {
          "internalType": "string",
          "name": "crop_name",
          "type": "string"
        },
        {
          "internalType": "uint256",
          "name": "quantity_in_kg",
          "type": "uint256"
        },
        {
          "internalType": "uint256",
          "name": "price_per_kg",
          "type": "uint256"
        },
        {
          "internalType": "uint256",
          "name": "deliveryTime",
          "type": "uint256"
        },
        {
          "internalType": "uint256",
          "name": "_total",
          "type": "uint256"
        },
        {
          "internalType": "uint256",
          "name": "_advPayment",
          "type": "uint256"
        }
      ],
      "name": "addCropRequirement",
      "outputs": [],
      "payable": false,
      "stateMutability": "nonpayable",
      "type": "function"
    },
    {
      "constant": true,
      "inputs": [
        {
          "internalType": "uint256",
          "name": "i",
          "type": "uint256"
        }
      ],
      "name": "getCropRequirementBusiness",
      "outputs": [
        {
          "internalType": "address",
          "name": "",
          "type": "address"
        }
      ],
      "payable": false,
      "stateMutability": "view",
      "type": "function"
    },
    {
      "constant": true,
      "inputs": [
        {
          "internalType": "uint256",
          "name": "i",
          "type": "uint256"
        }
      ],
      "name": "getCropRequirementCropName",
      "outputs": [
        {
          "internalType": "string",
          "name": "",
          "type": "string"
        }
      ],
      "payable": false,
      "stateMutability": "view",
      "type": "function"
    },
    {
      "constant": true,
      "inputs": [
        {
          "internalType": "uint256",
          "name": "i",
          "type": "uint256"
        }
      ],
      "name": "getCropRequirementQuantity",
      "outputs": [
        {
          "internalType": "uint256",
          "name": "",
          "type": "uint256"
        }
      ],
      "payable": false,
      "stateMutability": "view",
      "type": "function"
    },
    {
      "constant": true,
      "inputs": [
        {
          "internalType": "uint256",
          "name": "i",
          "type": "uint256"
        }
      ],
      "name": "getCropRequirementPrice",
      "outputs": [
        {
          "internalType": "uint256",
          "name": "",
          "type": "uint256"
        }
      ],
      "payable": false,
      "stateMutability": "view",
      "type": "function"
    },
    {
      "constant": true,
      "inputs": [
        {
          "internalType": "uint256",
          "name": "i",
          "type": "uint256"
        }
      ],
      "name": "getCropRequirementDelTime",
      "outputs": [
        {
          "internalType": "uint256",
          "name": "",
          "type": "uint256"
        }
      ],
      "payable": false,
      "stateMutability": "view",
      "type": "function"
    },
    {
      "constant": true,
      "inputs": [
        {
          "internalType": "uint256",
          "name": "i",
          "type": "uint256"
        }
      ],
      "name": "getCropRequirementStatus",
      "outputs": [
        {
          "internalType": "bool",
          "name": "",
          "type": "bool"
        }
      ],
      "payable": false,
      "stateMutability": "view",
      "type": "function"
    },
    {
      "constant": true,
      "inputs": [
        {
          "internalType": "uint256",
          "name": "i",
          "type": "uint256"
        }
      ],
      "name": "getCropRequirementTotalPrice",
      "outputs": [
        {
          "internalType": "uint256",
          "name": "",
          "type": "uint256"
        }
      ],
      "payable": false,
      "stateMutability": "view",
      "type": "function"
    },
    {
      "constant": true,
      "inputs": [
        {
          "internalType": "uint256",
          "name": "i",
          "type": "uint256"
        }
      ],
      "name": "getCropRequirementAdvPayment",
      "outputs": [
        {
          "internalType": "uint256",
          "name": "",
          "type": "uint256"
        }
      ],
      "payable": false,
      "stateMutability": "view",
      "type": "function"
    },
    {
      "constant": false,
      "inputs": [
        {
          "internalType": "uint256",
          "name": "i",
          "type": "uint256"
        }
      ],
      "name": "requestContract",
      "outputs": [],
      "payable": false,
      "stateMutability": "nonpayable",
      "type": "function"
    },
    {
      "constant": false,
      "inputs": [
        {
          "internalType": "address payable",
          "name": "farmerAddress",
          "type": "address"
        },
        {
          "internalType": "uint256",
          "name": "i",
          "type": "uint256"
        }
      ],
      "name": "signContract",
      "outputs": [],
      "payable": true,
      "stateMutability": "payable",
      "type": "function"
    },
    {
      "constant": true,
      "inputs": [
        {
          "internalType": "uint256",
          "name": "i",
          "type": "uint256"
        }
      ],
      "name": "getContractBusiness",
      "outputs": [
        {
          "internalType": "address",
          "name": "",
          "type": "address"
        }
      ],
      "payable": false,
      "stateMutability": "view",
      "type": "function"
    },
    {
      "constant": true,
      "inputs": [
        {
          "internalType": "uint256",
          "name": "i",
          "type": "uint256"
        }
      ],
      "name": "getContractFarmer",
      "outputs": [
        {
          "internalType": "address",
          "name": "",
          "type": "address"
        }
      ],
      "payable": false,
      "stateMutability": "view",
      "type": "function"
    },
    {
      "constant": true,
      "inputs": [
        {
          "internalType": "uint256",
          "name": "i",
          "type": "uint256"
        }
      ],
      "name": "getContractId",
      "outputs": [
        {
          "internalType": "uint256",
          "name": "",
          "type": "uint256"
        }
      ],
      "payable": false,
      "stateMutability": "view",
      "type": "function"
    },
    {
      "constant": true,
      "inputs": [
        {
          "internalType": "uint256",
          "name": "i",
          "type": "uint256"
        }
      ],
      "name": "getContractCropName",
      "outputs": [
        {
          "internalType": "string",
          "name": "",
          "type": "string"
        }
      ],
      "payable": false,
      "stateMutability": "view",
      "type": "function"
    },
    {
      "constant": true,
      "inputs": [
        {
          "internalType": "uint256",
          "name": "i",
          "type": "uint256"
        }
      ],
      "name": "getContractQuantity",
      "outputs": [
        {
          "internalType": "uint256",
          "name": "",
          "type": "uint256"
        }
      ],
      "payable": false,
      "stateMutability": "view",
      "type": "function"
    },
    {
      "constant": true,
      "inputs": [
        {
          "internalType": "uint256",
          "name": "i",
          "type": "uint256"
        }
      ],
      "name": "getContractPrice",
      "outputs": [
        {
          "internalType": "uint256",
          "name": "",
          "type": "uint256"
        }
      ],
      "payable": false,
      "stateMutability": "view",
      "type": "function"
    },
    {
      "constant": true,
      "inputs": [
        {
          "internalType": "uint256",
          "name": "i",
          "type": "uint256"
        }
      ],
      "name": "getContractDeadLine",
      "outputs": [
        {
          "internalType": "uint256",
          "name": "",
          "type": "uint256"
        }
      ],
      "payable": false,
      "stateMutability": "view",
      "type": "function"
    },
    {
      "constant": true,
      "inputs": [
        {
          "internalType": "uint256",
          "name": "i",
          "type": "uint256"
        }
      ],
      "name": "getContractTotalPrice",
      "outputs": [
        {
          "internalType": "uint256",
          "name": "",
          "type": "uint256"
        }
      ],
      "payable": false,
      "stateMutability": "view",
      "type": "function"
    },
    {
      "constant": true,
      "inputs": [
        {
          "internalType": "uint256",
          "name": "i",
          "type": "uint256"
        }
      ],
      "name": "getContractAdvPayment",
      "outputs": [
        {
          "internalType": "uint256",
          "name": "",
          "type": "uint256"
        }
      ],
      "payable": false,
      "stateMutability": "view",
      "type": "function"
    },
    {
      "constant": false,
      "inputs": [
        {
          "internalType": "uint256",
          "name": "_i",
          "type": "uint256"
        },
        {
          "internalType": "uint256",
          "name": "_time",
          "type": "uint256"
        }
      ],
      "name": "requestExtension",
      "outputs": [],
      "payable": false,
      "stateMutability": "nonpayable",
      "type": "function"
    },
    {
      "constant": true,
      "inputs": [
        {
          "internalType": "uint256",
          "name": "_i",
          "type": "uint256"
        }
      ],
      "name": "getExtensionInformation",
      "outputs": [
        {
          "internalType": "bool",
          "name": "",
          "type": "bool"
        },
        {
          "internalType": "bool",
          "name": "",
          "type": "bool"
        },
        {
          "internalType": "uint256",
          "name": "",
          "type": "uint256"
        }
      ],
      "payable": false,
      "stateMutability": "view",
      "type": "function"
    },
    {
      "constant": false,
      "inputs": [
        {
          "internalType": "uint256",
          "name": "_i",
          "type": "uint256"
        }
      ],
      "name": "acceptExtension",
      "outputs": [],
      "payable": false,
      "stateMutability": "nonpayable",
      "type": "function"
    },
    {
      "constant": false,
      "inputs": [
        {
          "internalType": "uint256",
          "name": "_i",
          "type": "uint256"
        }
      ],
      "name": "updateContract",
      "outputs": [],
      "payable": false,
      "stateMutability": "nonpayable",
      "type": "function"
    },
    {
      "constant": false,
      "inputs": [
        {
          "internalType": "address payable",
          "name": "_farmer",
          "type": "address"
        },
        {
          "internalType": "uint256",
          "name": "id",
          "type": "uint256"
        }
      ],
      "name": "payRemaining",
      "outputs": [],
      "payable": true,
      "stateMutability": "payable",
      "type": "function"
    },
    {
      "constant": true,
      "inputs": [
        {
          "internalType": "uint256",
          "name": "id",
          "type": "uint256"
        }
      ],
      "name": "isComplete",
      "outputs": [
        {
          "internalType": "bool",
          "name": "",
          "type": "bool"
        }
      ],
      "payable": false,
      "stateMutability": "view",
      "type": "function"
    }
  ],
  "bytecode": "0x60806040526005600e5560006014553480156200001b57600080fd5b5060008054600160a060020a03191633179055604080518082018252600b81527f496e73706563746f7220310000000000000000000000000000000000000000006020808301919091528251808401909352600e83527f54656873696c204d616e6167657200000000000000000000000000000000000090830152620000ad91602d90640100000000620000b3810204565b620001e2565b600f805460019081019182905560408051608081018252838152602080820188815282840188905260608301879052600095865260028252929094208151815591518051919492936200010d93908501929101906200013d565b506040820151600282015560608201518051620001359160038401916020909101906200013d565b505050505050565b828054600181600116156101000203166002900490600052602060002090601f016020900481019282601f106200018057805160ff1916838001178555620001b0565b82800160010185558215620001b0579182015b82811115620001b057825182559160200191906001019062000193565b50620001be929150620001c2565b5090565b620001df91905b80821115620001be5760008155600101620001c9565b90565b6149ed80620001f26000396000f3fe608060405260043610610467576000357c0100000000000000000000000000000000000000000000000000000000900480639292551a11610260578063bd75786011610160578063d85e98e5116100d8578063ef492ff6116100a7578063f58f85b51161008c578063f58f85b514612769578063f6dc60681461279c578063fc88210a146127cf57610467565b8063ef492ff6146123e9578063f1f3e5a91461273f57610467565b8063d85e98e51461226a578063da2aff2a14612294578063def936c3146122a9578063e250fc7b146123bf57610467565b8063c69761571161012f578063d18264e911610114578063d18264e914611d34578063d335ccfa14611ff6578063d399c54b1461224057610467565b8063c697615714611cde578063cf2142e614611d0857610467565b8063bd75786014611bab578063be5df21414611c75578063bf9ede3014611c9f578063c4fecdb614611cc957610467565b8063ab95a748116101f3578063b52e333b116101c2578063b9429069116101a7578063b9429069146118ed578063b984c6ec14611920578063bc9e2b6d1461194a57610467565b8063b52e333b14611897578063b8e25c1c146118c157610467565b8063ab95a74814611819578063ab9ef11f1461182e578063af78628114611858578063b43b24fe1461186d57610467565b8063a8d166401161022f578063a8d16640146114bb578063a8f91604146114e5578063aab1418a146117bc578063ab0da5a9146117e657610467565b80639292551a1461139a57806392d24732146113ca578063941e2426146114765780639f369aa91461148b57610467565b80634a1df9f91161036b578063789f8d40116102fe578063883436a1116102cd5780638afdd669116102b25780638afdd669146110da5780638df9b6ee1461110457806390db684c1461136757610467565b8063883436a114610f925780638a79550314610fdc57610467565b8063789f8d4014610f205780637b1d434814610f355780637ced45d114610f4a57806386b7da2f14610f5f57610467565b806363a9c3d71161033a57806363a9c3d714610b6d57806367cb77e714610ba05780636da36c0614610bb55780636fb9e80314610bca57610467565b80634a1df9f91461082b5780634fe536a914610855578063598fb0d6146108815780636125974514610b5857610467565b806324d328fc116103fe57806338f4e6c5116103cd5780633ba18d7d116103b25780633ba18d7d146107695780633e612654146107ce57806348a46bd3146107f857610467565b806338f4e6c51461070c5780633a0be1a61461073f57610467565b806324d328fc1461067957806326cccdff146106a3578063285ab266146106b8578063330820bc146106e257610467565b80631466d0191161043a5780631466d019146105375780631558b2451461056a5780631a07f76e146106095780631ed0fca61461063357610467565b80630419e7ef1461046c578063045b2c061461049357806305cf45bd146104da5780630835b5651461050d575b600080fd5b34801561047857600080fd5b506104816127f9565b60408051918252519081900360200190f35b34801561049f57600080fd5b506104c6600480360360208110156104b657600080fd5b5035600160a060020a03166127ff565b604080519115158252519081900360200190f35b3480156104e657600080fd5b506104c6600480360360208110156104fd57600080fd5b5035600160a060020a0316612827565b34801561051957600080fd5b506104816004803603602081101561053057600080fd5b5035612855565b34801561054357600080fd5b506104c66004803603602081101561055a57600080fd5b5035600160a060020a031661287d565b34801561057657600080fd5b506105946004803603602081101561058d57600080fd5b50356128a6565b6040805160208082528351818301528351919283929083019185019080838360005b838110156105ce5781810151838201526020016105b6565b50505050905090810190601f1680156105fb5780820380516001836020036101000a031916815260200191505b509250505060405180910390f35b34801561061557600080fd5b506104c66004803603602081101561062c57600080fd5b5035612959565b34801561063f57600080fd5b5061065d6004803603602081101561065657600080fd5b503561298a565b60408051600160a060020a039092168252519081900360200190f35b34801561068557600080fd5b506104c66004803603602081101561069c57600080fd5b50356129b9565b3480156106af57600080fd5b506104816129c6565b3480156106c457600080fd5b50610594600480360360208110156106db57600080fd5b50356129cc565b3480156106ee57600080fd5b506104c66004803603602081101561070557600080fd5b5035612a46565b34801561071857600080fd5b506104c66004803603602081101561072f57600080fd5b5035600160a060020a0316612a72565b34801561074b57600080fd5b506104c66004803603602081101561076257600080fd5b5035612a87565b34801561077557600080fd5b5061077e612abd565b60408051602080825283518183015283519192839290830191858101910280838360005b838110156107ba5781810151838201526020016107a2565b505050509050019250505060405180910390f35b3480156107da57600080fd5b50610481600480360360208110156107f157600080fd5b5035612b20565b34801561080457600080fd5b506104c66004803603602081101561081b57600080fd5b5035600160a060020a0316612b48565b34801561083757600080fd5b5061065d6004803603602081101561084e57600080fd5b5035612b71565b34801561086157600080fd5b5061087f6004803603602081101561087857600080fd5b5035612ba3565b005b34801561088d57600080fd5b5061087f600480360360c08110156108a457600080fd5b8101906020810181356401000000008111156108bf57600080fd5b8201836020820111156108d157600080fd5b803590602001918460018302840111640100000000831117156108f357600080fd5b91908080601f0160208091040260200160405190810160405280939291908181526020018383808284376000920191909152509295843595909490935060408101925060200135905064010000000081111561094e57600080fd5b82018360208201111561096057600080fd5b8035906020019184600183028401116401000000008311171561098257600080fd5b91908080601f01602080910402602001604051908101604052809392919081815260200183838082843760009201919091525092959493602081019350359150506401000000008111156109d557600080fd5b8201836020820111156109e757600080fd5b80359060200191846001830284011164010000000083111715610a0957600080fd5b91908080601f0160208091040260200160405190810160405280939291908181526020018383808284376000920191909152509295949360208101935035915050640100000000811115610a5c57600080fd5b820183602082011115610a6e57600080fd5b80359060200191846001830284011164010000000083111715610a9057600080fd5b91908080601f0160208091040260200160405190810160405280939291908181526020018383808284376000920191909152509295949360208101935035915050640100000000811115610ae357600080fd5b820183602082011115610af557600080fd5b80359060200191846001830284011164010000000083111715610b1757600080fd5b91908080601f016020809104026020016040519081016040528093929190818152602001838380828437600092019190915250929550612c2d945050505050565b348015610b6457600080fd5b50610481612dc1565b348015610b7957600080fd5b5061087f60048036036020811015610b9057600080fd5b5035600160a060020a0316612dc7565b348015610bac57600080fd5b50610481612e02565b348015610bc157600080fd5b5061065d612e08565b348015610bd657600080fd5b5061087f600480360360c0811015610bed57600080fd5b810190602081018135640100000000811115610c0857600080fd5b820183602082011115610c1a57600080fd5b80359060200191846001830284011164010000000083111715610c3c57600080fd5b91908080601f0160208091040260200160405190810160405280939291908181526020018383808284376000920191909152509295949360208101935035915050640100000000811115610c8f57600080fd5b820183602082011115610ca157600080fd5b80359060200191846001830284011164010000000083111715610cc357600080fd5b91908080601f0160208091040260200160405190810160405280939291908181526020018383808284376000920191909152509295949360208101935035915050640100000000811115610d1657600080fd5b820183602082011115610d2857600080fd5b80359060200191846001830284011164010000000083111715610d4a57600080fd5b91908080601f0160208091040260200160405190810160405280939291908181526020018383808284376000920191909152509295949360208101935035915050640100000000811115610d9d57600080fd5b820183602082011115610daf57600080fd5b80359060200191846001830284011164010000000083111715610dd157600080fd5b91908080601f0160208091040260200160405190810160405280939291908181526020018383808284376000920191909152509295949360208101935035915050640100000000811115610e2457600080fd5b820183602082011115610e3657600080fd5b80359060200191846001830284011164010000000083111715610e5857600080fd5b91908080601f0160208091040260200160405190810160405280939291908181526020018383808284376000920191909152509295949360208101935035915050640100000000811115610eab57600080fd5b820183602082011115610ebd57600080fd5b80359060200191846001830284011164010000000083111715610edf57600080fd5b91908080601f016020809104026020016040519081016040528093929190818152602001838380828437600092019190915250929550612e17945050505050565b348015610f2c57600080fd5b5061077e612f5e565b348015610f4157600080fd5b50610481612fbe565b348015610f5657600080fd5b50610481612fc4565b348015610f6b57600080fd5b506104c660048036036020811015610f8257600080fd5b5035600160a060020a0316612fca565b348015610f9e57600080fd5b50610fbc60048036036020811015610fb557600080fd5b5035612fdf565b604080519315158452911515602084015282820152519081900360600190f35b348015610fe857600080fd5b5061100660048036036020811015610fff57600080fd5b5035613005565b604051808a600160a060020a0316600160a060020a0316815260200189600160a060020a0316600160a060020a0316815260200188815260200180602001878152602001868152602001858152602001848152602001838152602001828103825288818151815260200191508051906020019080838360005b8381101561109757818101518382015260200161107f565b50505050905090810190601f1680156110c45780820380516001836020036101000a031916815260200191505b509a505050505050505050505060405180910390f35b3480156110e657600080fd5b5061065d600480360360208110156110fd57600080fd5b50356130f4565b34801561111057600080fd5b506111376004803603602081101561112757600080fd5b5035600160a060020a031661311b565b6040518088600160a060020a0316600160a060020a03168152602001806020018781526020018060200180602001806020018060200186810386528c818151815260200191508051906020019080838360005b838110156111a257818101518382015260200161118a565b50505050905090810190601f1680156111cf5780820380516001836020036101000a031916815260200191505b5086810385528a5181528a516020918201918c019080838360005b838110156112025781810151838201526020016111ea565b50505050905090810190601f16801561122f5780820380516001836020036101000a031916815260200191505b5086810384528951815289516020918201918b019080838360005b8381101561126257818101518382015260200161124a565b50505050905090810190601f16801561128f5780820380516001836020036101000a031916815260200191505b5086810383528851815288516020918201918a019080838360005b838110156112c25781810151838201526020016112aa565b50505050905090810190601f1680156112ef5780820380516001836020036101000a031916815260200191505b50868103825287518152875160209182019189019080838360005b8381101561132257818101518382015260200161130a565b50505050905090810190601f16801561134f5780820380516001836020036101000a031916815260200191505b509c5050505050505050505050505060405180910390f35b34801561137357600080fd5b506104c66004803603602081101561138a57600080fd5b5035600160a060020a0316613417565b3480156113a657600080fd5b5061065d600480360360408110156113bd57600080fd5b508035906020013561342c565b3480156113d657600080fd5b506113f4600480360360208110156113ed57600080fd5b5035613461565b604051808a815260200189600160a060020a0316600160a060020a031681526020018060200188815260200187815260200186815260200185151515158152602001848152602001838152602001828103825289818151815260200191508051906020019080838360008381101561109757818101518382015260200161107f565b34801561148257600080fd5b50610481613553565b34801561149757600080fd5b5061087f600480360360408110156114ae57600080fd5b5080359060200135613559565b3480156114c757600080fd5b50610481600480360360208110156114de57600080fd5b50356135f4565b3480156114f157600080fd5b5061087f600480360360c081101561150857600080fd5b81019060208101813564010000000081111561152357600080fd5b82018360208201111561153557600080fd5b8035906020019184600183028401116401000000008311171561155757600080fd5b91908080601f016020809104026020016040519081016040528093929190818152602001838380828437600092019190915250929584359590949093506040810192506020013590506401000000008111156115b257600080fd5b8201836020820111156115c457600080fd5b803590602001918460018302840111640100000000831117156115e657600080fd5b91908080601f016020809104026020016040519081016040528093929190818152602001838380828437600092019190915250929594936020810193503591505064010000000081111561163957600080fd5b82018360208201111561164b57600080fd5b8035906020019184600183028401116401000000008311171561166d57600080fd5b91908080601f01602080910402602001604051908101604052809392919081815260200183838082843760009201919091525092959493602081019350359150506401000000008111156116c057600080fd5b8201836020820111156116d257600080fd5b803590602001918460018302840111640100000000831117156116f457600080fd5b91908080601f016020809104026020016040519081016040528093929190818152602001838380828437600092019190915250929594936020810193503591505064010000000081111561174757600080fd5b82018360208201111561175957600080fd5b8035906020019184600183028401116401000000008311171561177b57600080fd5b91908080601f01602080910402602001604051908101604052809392919081815260200183838082843760009201919091525092955061361c945050505050565b3480156117c857600080fd5b50610481600480360360208110156117df57600080fd5b503561372c565b3480156117f257600080fd5b5061087f6004803603602081101561180957600080fd5b5035600160a060020a0316613754565b34801561182557600080fd5b5061048161378f565b34801561183a57600080fd5b50610fbc6004803603602081101561185157600080fd5b5035613795565b34801561186457600080fd5b506104816137bb565b34801561187957600080fd5b506104816004803603602081101561189057600080fd5b50356137c1565b3480156118a357600080fd5b5061065d600480360360208110156118ba57600080fd5b50356137e9565b61087f600480360360408110156118d757600080fd5b50600160a060020a0381351690602001356137f8565b3480156118f957600080fd5b506104c66004803603602081101561191057600080fd5b5035600160a060020a0316613869565b34801561192c57600080fd5b5061065d6004803603602081101561194357600080fd5b5035613892565b34801561195657600080fd5b5061197d6004803603602081101561196d57600080fd5b5035600160a060020a031661389f565b6040518080602001806020018060200180602001806020018060200187810387528d818151815260200191508051906020019080838360005b838110156119ce5781810151838201526020016119b6565b50505050905090810190601f1680156119fb5780820380516001836020036101000a031916815260200191505b5087810386528c5181528c516020918201918e019080838360005b83811015611a2e578181015183820152602001611a16565b50505050905090810190601f168015611a5b5780820380516001836020036101000a031916815260200191505b5087810385528b5181528b516020918201918d019080838360005b83811015611a8e578181015183820152602001611a76565b50505050905090810190601f168015611abb5780820380516001836020036101000a031916815260200191505b5087810384528a5181528a516020918201918c019080838360005b83811015611aee578181015183820152602001611ad6565b50505050905090810190601f168015611b1b5780820380516001836020036101000a031916815260200191505b5087810383528951815289516020918201918b019080838360005b83811015611b4e578181015183820152602001611b36565b50505050905090810190601f168015611b7b5780820380516001836020036101000a031916815260200191505b5087810382528851815288516020918201918a01908083836000831561132257818101518382015260200161130a565b348015611bb757600080fd5b5061087f600480360360c0811015611bce57600080fd5b810190602081018135640100000000811115611be957600080fd5b820183602082011115611bfb57600080fd5b80359060200191846001830284011164010000000083111715611c1d57600080fd5b91908080601f0160208091040260200160405190810160405280939291908181526020018383808284376000920191909152509295505082359350505060208101359060408101359060608101359060800135613c44565b348015611c8157600080fd5b5061048160048036036020811015611c9857600080fd5b5035613dfc565b348015611cab57600080fd5b5061048160048036036020811015611cc257600080fd5b5035613e0b565b348015611cd557600080fd5b50610481613e1a565b348015611cea57600080fd5b5061048160048036036020811015611d0157600080fd5b5035613e20565b61087f60048036036040811015611d1e57600080fd5b50600160a060020a038135169060200135613e2f565b348015611d4057600080fd5b50611d6760048036036020811015611d5757600080fd5b5035600160a060020a0316614234565b6040518088600160a060020a0316600160a060020a0316815260200180602001806020018060200180602001806020018060200187810387528d818151815260200191508051906020019080838360005b83811015611dd0578181015183820152602001611db8565b50505050905090810190601f168015611dfd5780820380516001836020036101000a031916815260200191505b5087810386528c5181528c516020918201918e019080838360005b83811015611e30578181015183820152602001611e18565b50505050905090810190601f168015611e5d5780820380516001836020036101000a031916815260200191505b5087810385528b5181528b516020918201918d019080838360005b83811015611e90578181015183820152602001611e78565b50505050905090810190601f168015611ebd5780820380516001836020036101000a031916815260200191505b5087810384528a5181528a516020918201918c019080838360005b83811015611ef0578181015183820152602001611ed8565b50505050905090810190601f168015611f1d5780820380516001836020036101000a031916815260200191505b5087810383528951815289516020918201918b019080838360005b83811015611f50578181015183820152602001611f38565b50505050905090810190601f168015611f7d5780820380516001836020036101000a031916815260200191505b5087810382528851815288516020918201918a019080838360005b83811015611fb0578181015183820152602001611f98565b50505050905090810190601f168015611fdd5780820380516001836020036101000a031916815260200191505b509d505050505050505050505050505060405180910390f35b34801561200257600080fd5b506120296004803603602081101561201957600080fd5b5035600160a060020a03166143d5565b60405180806020018781526020018060200180602001806020018060200186810386528c818151815260200191508051906020019080838360005b8381101561207c578181015183820152602001612064565b50505050905090810190601f1680156120a95780820380516001836020036101000a031916815260200191505b5086810385528a5181528a516020918201918c019080838360005b838110156120dc5781810151838201526020016120c4565b50505050905090810190601f1680156121095780820380516001836020036101000a031916815260200191505b5086810384528951815289516020918201918b019080838360005b8381101561213c578181015183820152602001612124565b50505050905090810190601f1680156121695780820380516001836020036101000a031916815260200191505b5086810383528851815288516020918201918a019080838360005b8381101561219c578181015183820152602001612184565b50505050905090810190601f1680156121c95780820380516001836020036101000a031916815260200191505b50868103825287518152875160209182019189019080838360005b838110156121fc5781810151838201526020016121e4565b50505050905090810190601f1680156122295780820380516001836020036101000a031916815260200191505b509b50505050505050505050505060405180910390f35b34801561224c57600080fd5b5061087f6004803603602081101561226357600080fd5b50356144fb565b34801561227657600080fd5b506104816004803603602081101561228d57600080fd5b5035614590565b3480156122a057600080fd5b506104816145b8565b3480156122b557600080fd5b506122d3600480360360208110156122cc57600080fd5b50356145be565b604051808581526020018060200184815260200180602001838103835286818151815260200191508051906020019080838360005b83811015612320578181015183820152602001612308565b50505050905090810190601f16801561234d5780820380516001836020036101000a031916815260200191505b50838103825284518152845160209182019186019080838360005b83811015612380578181015183820152602001612368565b50505050905090810190601f1680156123ad5780820380516001836020036101000a031916815260200191505b50965050505050505060405180910390f35b3480156123cb57600080fd5b50610481600480360360208110156123e257600080fd5b50356146fb565b3480156123f557600080fd5b5061087f600480360360c081101561240c57600080fd5b81019060208101813564010000000081111561242757600080fd5b82018360208201111561243957600080fd5b8035906020019184600183028401116401000000008311171561245b57600080fd5b91908080601f01602080910402602001604051908101604052809392919081815260200183838082843760009201919091525092959493602081019350359150506401000000008111156124ae57600080fd5b8201836020820111156124c057600080fd5b803590602001918460018302840111640100000000831117156124e257600080fd5b91908080601f016020809104026020016040519081016040528093929190818152602001838380828437600092019190915250929594936020810193503591505064010000000081111561253557600080fd5b82018360208201111561254757600080fd5b8035906020019184600183028401116401000000008311171561256957600080fd5b91908080601f01602080910402602001604051908101604052809392919081815260200183838082843760009201919091525092959493602081019350359150506401000000008111156125bc57600080fd5b8201836020820111156125ce57600080fd5b803590602001918460018302840111640100000000831117156125f057600080fd5b91908080601f016020809104026020016040519081016040528093929190818152602001838380828437600092019190915250929594936020810193503591505064010000000081111561264357600080fd5b82018360208201111561265557600080fd5b8035906020019184600183028401116401000000008311171561267757600080fd5b91908080601f01602080910402602001604051908101604052809392919081815260200183838082843760009201919091525092959493602081019350359150506401000000008111156126ca57600080fd5b8201836020820111156126dc57600080fd5b803590602001918460018302840111640100000000831117156126fe57600080fd5b91908080601f01602080910402602001604051908101604052809392919081815260200183838082843760009201919091525092955061470a945050505050565b34801561274b57600080fd5b5061087f6004803603602081101561276257600080fd5b5035614831565b34801561277557600080fd5b506104c66004803603602081101561278c57600080fd5b5035600160a060020a03166148ce565b3480156127a857600080fd5b506104c6600480360360208110156127bf57600080fd5b5035600160a060020a03166148e3565b3480156127db57600080fd5b50610481600480360360208110156127f257600080fd5b50356148f8565b60105481565b60008054600160a060020a038381169116141561281e57506001612822565b5060005b919050565b600160a060020a0381166000908152600a602052604081205460ff1615156001141561281e57506001612822565b6000600b828154811061286457fe5b9060005260206000209060090201600801549050919050565b600160a060020a03811660009081526008602052604081205460ff161561281e57506001612822565b6060600b82815481106128b557fe5b600091825260209182902060026009909202018101805460408051601f60001961010060018616150201909316949094049182018590048502840185019052808352919290919083018282801561294d5780601f106129225761010080835404028352916020019161294d565b820191906000526020600020905b81548152906001019060200180831161293057829003601f168201915b50505050509050919050565b6017818154811061296657fe5b9060005260206000209060209182820401919006915054906101000a900460ff1681565b60006001828154811061299957fe5b6000918252602090912060099091020154600160a060020a031692915050565b6016818154811061296657fe5b60125481565b6060600182815481106129db57fe5b6000918252602091829020600360099092020101805460408051601f600260001961010060018716150201909416939093049283018590048502810185019091528181529283018282801561294d5780601f106129225761010080835404028352916020019161294d565b6000600b8281548110612a5557fe5b600091825260209091206009909102016006015460ff1692915050565b600a6020526000908152604090205460ff1681565b600060178281548110612a9657fe5b90600052602060002090602091828204019190069054906101000a900460ff169050919050565b60606003805480602002602001604051908101604052809291908181526020018280548015612b1557602002820191906000526020600020905b8154600160a060020a03168152600190910190602001808311612af7575b505050505090505b90565b600060018281548110612b2f57fe5b9060005260206000209060090201600501549050919050565b600160a060020a0381166000908152600c602052604081205460ff161561281e57506001612822565b6000600b8281548110612b8057fe5b6000918252602090912060099091020160010154600160a060020a031692915050565b336000908152600a602052604090205460ff161515600114612bc457600080fd5b3360009081526009602052604090205460ff161515600114612be557600080fd5b6013805460019081019091556000918252600d60209081526040832080549283018155835290912001805473ffffffffffffffffffffffffffffffffffffffff191633179055565b3360009081526007602052604090205460ff1615612c4a57600080fd5b601080546001908101909155600580548083019091557f036b6384b5eca791c62761152d0c79bb0604c104a5fb6f4eb0703f3154bb3db00180543373ffffffffffffffffffffffffffffffffffffffff1991821681179092556000828152600760209081526040808320805460ff19908116881790915560098352818420805490911687179055805160e0810182528581528083018d81528183018d9052606082018c9052608082018b905260a082018a905260c0820189905295845260068352922082518154909416600160a060020a039094169390931783559251805191949293612d3c93850192910190614920565b506040820151600282015560608201518051612d62916003840191602090910190614920565b5060808201518051612d7e916004840191602090910190614920565b5060a08201518051612d9a916005840191602090910190614920565b5060c08201518051612db6916006840191602090910190614920565b505050505050505050565b60135481565b600054600160a060020a03163314612dde57600080fd5b600160a060020a03166000908152600a60205260409020805460ff19166001179055565b60105490565b600054600160a060020a031681565b3360009081526007602052604090205460ff1615612e3457600080fd5b601180546001908101909155600380548083019091557fc2575a0e9e593c00f959f8c92f12db2869c3395a3b0502d05e2516446f71f85b0180543373ffffffffffffffffffffffffffffffffffffffff1991821681179092556000828152600760209081526040808320805460ff19908116881790915560088352818420805490911687179055805160e0810182528581528083018d81528183018d9052606082018c9052608082018b905260a082018a905260c0820189905295845260048352922082518154909416600160a060020a039094169390931783559251805191949293612f2693850192910190614920565b5060408201518051612f42916002840191602090910190614920565b5060608201518051612d62916003840191602090910190614920565b60606005805480602002602001604051908101604052809291908181526020018280548015612b1557602002820191906000526020600020908154600160a060020a03168152600190910190602001808311612af7575050505050905090565b600f5490565b60135490565b600c6020526000908152604090205460ff1681565b6000908152601560205260409020805460019091015460ff808316936101009093041691565b6001818154811061301257fe5b60009182526020918290206009919091020180546001808301546002808501546003860180546040805161010097831615979097026000190190911693909304601f8101899004890286018901909352828552600160a060020a0395861698509490921695919493918301828280156130cc5780601f106130a1576101008083540402835291602001916130cc565b820191906000526020600020905b8154815290600101906020018083116130af57829003601f168201915b5050505050908060040154908060050154908060060154908060070154908060080154905089565b6005818154811061310157fe5b600091825260209091200154600160a060020a0316905081565b6006602090815260009182526040918290208054600180830180548651600261010094831615949094026000190190911692909204601f8101869004860283018601909652858252600160a060020a039092169492939092908301828280156131c55780601f1061319a576101008083540402835291602001916131c5565b820191906000526020600020905b8154815290600101906020018083116131a857829003601f168201915b505050506002838101546003850180546040805160206001841615610100026000190190931695909504601f81018390048302860183019091528085529596929592945090919083018282801561325d5780601f106132325761010080835404028352916020019161325d565b820191906000526020600020905b81548152906001019060200180831161324057829003601f168201915b5050505060048301805460408051602060026001851615610100026000190190941693909304601f81018490048402820184019092528181529495949350908301828280156132ed5780601f106132c2576101008083540402835291602001916132ed565b820191906000526020600020905b8154815290600101906020018083116132d057829003601f168201915b5050505060058301805460408051602060026001851615610100026000190190941693909304601f810184900484028201840190925281815294959493509083018282801561337d5780601f106133525761010080835404028352916020019161337d565b820191906000526020600020905b81548152906001019060200180831161336057829003601f168201915b5050505060068301805460408051602060026001851615610100026000190190941693909304601f810184900484028201840190925281815294959493509083018282801561340d5780601f106133e25761010080835404028352916020019161340d565b820191906000526020600020905b8154815290600101906020018083116133f057829003601f168201915b5050505050905087565b60096020526000908152604090205460ff1681565b600d602052816000526040600020818154811061344557fe5b600091825260209091200154600160a060020a03169150829050565b600b818154811061346e57fe5b6000918252602091829020600991909102018054600180830154600280850180546040805161010096831615969096026000190190911692909204601f8101889004880285018801909252818452939650600160a060020a039091169491929183018282801561351f5780601f106134f45761010080835404028352916020019161351f565b820191906000526020600020905b81548152906001019060200180831161350257829003601f168201915b505050600384015460048501546005860154600687015460078801546008909801549697939692955090935060ff16919089565b600f5481565b3360009081526007602052604090205460ff16801561358e575033600081815260066020526040902054600160a060020a0316145b80156135cb575033600160a060020a0316600183815481106135ac57fe5b6000918252602090912060016009909202010154600160a060020a0316145b6135d457600080fd5b600091825260156020526040909120805460ff1916600190811782550155565b6000600b828154811061360357fe5b9060005260206000209060090201600401549050919050565b3360009081526007602052604090205460ff168015613651575033600081815260066020526040902054600160a060020a0316145b61365a57600080fd5b336000908152600660209081526040909120875161368092600190920191890190614920565b503360009081526006602090815260409091206002810187905585516136ae92600390920191870190614920565b5033600090815260066020908152604090912084516136d592600490920191860190614920565b5033600090815260066020908152604090912083516136fc92600590920191850190614920565b50336000908152600660208181526040909220835161372393919092019190840190614920565b50505050505050565b6000600b828154811061373b57fe5b9060005260206000209060090201600301549050919050565b600054600160a060020a0316331461376b57600080fd5b600160a060020a03166000908152600c60205260409020805460ff19166001179055565b60115490565b6015602052600090815260409020805460019091015460ff808316926101009004169083565b60125490565b6000600b82815481106137d057fe5b9060005260206000209060090201600701549050919050565b600060018281548110612b8057fe5b60016017828154811061380757fe5b90600052602060002090602091828204019190066101000a81548160ff02191690831515021790555081600160a060020a03166108fc349081150290604051600060405180830381858888f1935050505015801561386457600080fd5b505050565b600160a060020a03811660009081526009602052604081205460ff161561281e57506001612822565b6003818154811061310157fe5b600160a060020a0381166000908152600460208181526040928390206001808201805486516002938216156101000260001901909116839004601f810186900486028201860190975286815260609687968796879687968796959082019460038301948301936005840193600601929188918301828280156139625780601f1061393757610100808354040283529160200191613962565b820191906000526020600020905b81548152906001019060200180831161394557829003601f168201915b5050885460408051602060026001851615610100026000190190941693909304601f8101849004840282018401909252818152959b508a9450925084019050828280156139f05780601f106139c5576101008083540402835291602001916139f0565b820191906000526020600020905b8154815290600101906020018083116139d357829003601f168201915b5050875460408051602060026001851615610100026000190190941693909304601f8101849004840282018401909252818152959a5089945092508401905082828015613a7e5780601f10613a5357610100808354040283529160200191613a7e565b820191906000526020600020905b815481529060010190602001808311613a6157829003601f168201915b5050865460408051602060026001851615610100026000190190941693909304601f810184900484028201840190925281815295995088945092508401905082828015613b0c5780601f10613ae157610100808354040283529160200191613b0c565b820191906000526020600020905b815481529060010190602001808311613aef57829003601f168201915b5050855460408051602060026001851615610100026000190190941693909304601f810184900484028201840190925281815295985087945092508401905082828015613b9a5780601f10613b6f57610100808354040283529160200191613b9a565b820191906000526020600020905b815481529060010190602001808311613b7d57829003601f168201915b5050845460408051602060026001851615610100026000190190941693909304601f810184900484028201840190925281815295975086945092508401905082828015613c285780601f10613bfd57610100808354040283529160200191613c28565b820191906000526020600020905b815481529060010190602001808311613c0b57829003601f168201915b5050505050905095509550955095509550955091939550919395565b336000908152600a602052604090205460ff161515600114613c6557600080fd5b3360009081526008602052604090205460ff161515600114613c8657600080fd5b601280546001908101909155600b805460408051610120810182529382018085523360208087019182529286018c8152606087018c9052608087018b9052428a0160a0880152600060c0880181905260e088018a905261010088018990528387559590955285517f0175b7a638427703f0dbe7bb9bbf987a2551717b34e79f33b5b1008d1fa01db9600990950294850190815590517f0175b7a638427703f0dbe7bb9bbf987a2551717b34e79f33b5b1008d1fa01dba8501805473ffffffffffffffffffffffffffffffffffffffff1916600160a060020a03909216919091179055935180519195869590949093613da4937f0175b7a638427703f0dbe7bb9bbf987a2551717b34e79f33b5b1008d1fa01dbb909201920190614920565b50606082015160038201556080820151600482015560a0820151600582015560c082015160068201805460ff191691151591909117905560e08201516007820155610100909101516008909101555050505050505050565b6000600b8281548110612b2f57fe5b60006001828154811061286457fe5b600e5481565b6000600182815481106137d057fe5b336000908152600a602052604090205460ff161515600114613e5057600080fd5b3360009081526008602052604090205460ff161515600114613e7157600080fd5b601480546001908101909155600b805483908110613e8b57fe5b60009182526020808320600992909202909101600601805460ff19908116941515949094179055604080516060808201835284825281840185815282840186815288875260158652848720935184549251929098169715159790971761ff00191661010091151582021783559551600192830155601680548084019091557fd833147d7dc355ba459fc788f669e58cfaf9dc25ddcd0702e87d69c7b512428985820401805460ff601f9384168a0a81021990911690915560178054808601825597527fc624b66cc0138b8fabc209247f72d758e1cf3343756d543badbf24212bed8c158688040180549790921690970a90960219909416909455805161012081018252338152600160a060020a0387169281019290925260145490820152600b8054919283019185908110613fbc57fe5b600091825260209182902060026009909202018101805460408051601f6000196101006001861615020190931694909404918201859004850284018501905280835291929091908301828280156140545780601f1061402957610100808354040283529160200191614054565b820191906000526020600020905b81548152906001019060200180831161403757829003601f168201915b50505050508152602001600b848154811061406b57fe5b9060005260206000209060090201600301548152602001600b848154811061408f57fe5b9060005260206000209060090201600401548152602001600b84815481106140b357fe5b9060005260206000209060090201600501548152602001600b84815481106140d757fe5b9060005260206000209060090201600701548152602001600b84815481106140fb57fe5b60009182526020808320600992830201600801549093528454600180820180885596845292849020855191909202909101805473ffffffffffffffffffffffffffffffffffffffff19908116600160a060020a03938416178255858501519382018054909116939092169290921790556040830151600282015560608301518051919261419092600385019290910190614920565b506080820151600482015560a0820151600582015560c0820151600682015560e082015160078201556101009091015160089091015550604051600160a060020a038316903480156108fc02916000818181858888f193505050501580156141f757600080fd5b5060016016828154811061420757fe5b90600052602060002090602091828204019190066101000a81548160ff0219169083151502179055505050565b6004602090815260009182526040918290208054600180830180548651600261010094831615949094026000190190911692909204601f8101869004860283018601909652858252600160a060020a039092169492939092908301828280156142de5780601f106142b3576101008083540402835291602001916142de565b820191906000526020600020905b8154815290600101906020018083116142c157829003601f168201915b50505060028085018054604080516020601f60001961010060018716150201909416959095049283018590048502810185019091528181529596959450909250908301828280156143705780601f1061434557610100808354040283529160200191614370565b820191906000526020600020905b81548152906001019060200180831161435357829003601f168201915b5050505060038301805460408051602060026001851615610100026000190190941693909304601f810184900484028201840190925281815294959493509083018282801561325d5780601f106132325761010080835404028352916020019161325d565b600160a060020a03811660009081526006602081815260408084206002808201546001808401805486519281161561010002600019011693909304601f81018790048702820187019095528481526060979688968796879687969594600382019460048301946005840194939091019288918301828280156144985780601f1061446d57610100808354040283529160200191614498565b820191906000526020600020905b81548152906001019060200180831161447b57829003601f168201915b5050875460408051602060026001851615610100026000190190941693909304601f8101849004840282018401909252818152959b5089945092508401905082828015613a7e5780601f10613a5357610100808354040283529160200191613a7e565b3360009081526007602052604090205460ff168015614530575033600081815260046020526040902054600160a060020a0316145b801561456a575033600160a060020a03166001828154811061454e57fe5b6000918252602090912060099091020154600160a060020a0316145b61457357600080fd5b6000908152601560205260409020805461ff001916610100179055565b60006001828154811061459f57fe5b9060005260206000209060090201600601549050919050565b60115481565b60026020818152600092835260409283902080546001808301805487519281161561010002600019011695909504601f81018590048502820185019096528581529094919390929091908301828280156146595780601f1061462e57610100808354040283529160200191614659565b820191906000526020600020905b81548152906001019060200180831161463c57829003601f168201915b505050506002838101546003850180546040805160206001841615610100026000190190931695909504601f8101839004830286018301909152808552959692959294509091908301828280156146f15780601f106146c6576101008083540402835291602001916146f1565b820191906000526020600020905b8154815290600101906020018083116146d457829003601f168201915b5050505050905084565b60006001828154811061360357fe5b3360009081526007602052604090205460ff16801561473f575033600081815260046020526040902054600160a060020a0316145b61474857600080fd5b336000908152600460209081526040909120875161476e92600190920191890190614920565b50336000908152600460209081526040909120865161479592600290920191880190614920565b5033600090815260046020908152604090912085516147bc92600390920191870190614920565b5033600090815260046020818152604090922085516147e393919092019190860190614920565b50336000908152600460209081526040909120835161480a92600590920191850190614920565b50336000908152600460209081526040909120825161372392600690920191840190614920565b600054600160a060020a0316331461484857600080fd5b60008181526015602052604090205460ff1615156001148015614884575060008181526015602052604090205460ff6101009091041615156001145b61488d57600080fd5b6015600082815260200190815260200160002060010154600182815481106148b157fe5b600091825260209091206006600990920201018054909101905550565b60076020526000908152604090205460ff1681565b60086020526000908152604090205460ff1681565b60006001828154811061490757fe5b9060005260206000209060090201600201549050919050565b828054600181600116156101000203166002900490600052602060002090601f016020900481019282601f1061496157805160ff191683800117855561498e565b8280016001018555821561498e579182015b8281111561498e578251825591602001919060010190614973565b5061499a92915061499e565b5090565b612b1d91905b8082111561499a57600081556001016149a456fea265627a7a72315820adec86947055d18309c806c243bcdbaca5f50675591e4ca14156b6a947bc752f64736f6c63430005100032",
  "source": "// SPDX-License-Identifier: GPL-3.0\npragma solidity >= 0.5.2;\n// pragma experimental ABIEncoderV2;\ncontract Farm{\n    address public contract_admin;\n\n    constructor() public{\n        contract_admin = msg.sender;\n        add_admin(\"Inspector 1\", 45, \"Tehsil Manager\");\n    }\n\n    struct CropRequirement {\n        uint id;\n        address business;\n        string crop_name;\n        uint quantity_in_kg;\n        uint price_per_kg;\n        uint delivery_time;\n        bool status;//for tracking whether this crop requirement is completed or not.\n        uint totalPrice;\n        uint advancedPayment;\n    }\n\n    struct admin {\n        uint256 id;\n        string name;\n        uint256 age;\n        string designation;\n    }\n    \n    struct farmer {\n        address id;\n        string name;\n        uint256 age;\n        string city;\n        string aadharNumber;\n        string panNumber;\n        string land_document;\n    }\n\n    struct business {\n        address id;\n        string business_name;\n        string city;\n        string companyRegistrationNumber;\n        string GSTnumber;\n        string document;\n        string email;\n    }\n    \n    struct farmContract {\n        address business;\n        address farmer;\n        uint id;\n        string crop_name;\n        uint quantity_in_kg;\n        uint price_per_kg;\n        uint deadline;\n        uint totalPrice;\n        uint advancedPayment;\n    }\n\n    farmContract[] public Contracts;\n    \n    mapping(uint256 => admin) public InspectorMapping;\n\n    address[] public businesses;\n    mapping(address => business) public businessMapping;\n    \n\n    address[] public farmers;\n    mapping(address => farmer) public farmerMapping;\n\n    mapping(address => bool) public RegisteredAddressMapping;\n    mapping(address => bool) public RegisteredBusinessMapping;\n    mapping(address => bool) public RegisteredFarmerMapping;\n    mapping(address => bool) public Verification;\n    \n    // mapping(address => CropRequirement[]) public CropReqMap;//This map is for storing CropRequirements of particular company.\n    CropRequirement[] public CropReqMap;\n    mapping(address => bool) public rejection;\n\n    mapping(uint256 => address[]) public requestMapping;    \n    \n    uint256 public contractsCount = 5;\n    uint256 public inspectorsCount;\n    uint256 public farmersCount;\n    uint256 public businessCount;\n    uint256 public CropReqMapCount;\n    uint256 public totalRequest;\n\n    function getBusinessCount() public view returns(uint256){\n        return businessCount;\n    }\n\n    function getInspectorCount() public view returns(uint256){\n        return inspectorsCount;\n    }\n\n    function getFarmersCount() public view returns(uint256){\n        return farmersCount;\n    }\n    function getCropReqCount() public view returns(uint256){\n        return CropReqMapCount;\n    }\n\n    function getTotalRequestCount() public view returns(uint256){\n        return totalRequest;\n    }\n\n    // function getRequestCount(uint index) public view returns(uint256) {\n    //     return requestMapping[index].length;\n    // } \n\n    function add_admin(string memory _name, uint256 _age, string memory _designation) private{\n        inspectorsCount++;\n        InspectorMapping[inspectorsCount] = admin(\n            inspectorsCount,\n            _name,\n            _age,\n            _designation\n        );\n    }\n\n    function addFarmer( string memory name,\n                        uint256 age,\n                        string memory city,\n                        string memory aadharNumber,\n                        string memory panNumber,\n                        string memory land_document\n    ) public {\n        require(!RegisteredAddressMapping[msg.sender]);\n        farmersCount++;\n        farmers.push(msg.sender);\n        RegisteredAddressMapping[msg.sender] = true;\n        RegisteredFarmerMapping[msg.sender] = true;\n        farmerMapping[msg.sender] = farmer( msg.sender, name, age, city, aadharNumber, panNumber, land_document);\n    }\n\n    function updateFarmer( string memory _name,\n                        uint256 _age,\n                        string memory _city,\n                        string memory _aadharNumber,\n                        string memory _panNumber,\n                        string memory _land_document\n    ) public {\n        require(RegisteredAddressMapping[msg.sender] && farmerMapping[msg.sender].id == msg.sender);\n\n        \n        farmerMapping[msg.sender].name = _name;\n        farmerMapping[msg.sender].age = _age;\n        farmerMapping[msg.sender].city = _city;\n        farmerMapping[msg.sender].aadharNumber = _aadharNumber;\n        farmerMapping[msg.sender].panNumber = _panNumber;\n        farmerMapping[msg.sender].land_document = _land_document;\n    }\n\n    function getFarmers() public view returns (address[] memory) {\n        return (farmers);\n    }\n\n    //here we are returning the whole farmer struct to stop stack too deep error\n    function getFarmerDetails(address i) public view returns (string memory, uint, string memory, string memory, string memory, string memory) {\n        return (farmerMapping[i].name, \n                farmerMapping[i].age, \n                farmerMapping[i].city, \n                farmerMapping[i].aadharNumber, \n                farmerMapping[i].panNumber, \n                farmerMapping[i].land_document);\n    }\n\n    function addBusiness(string memory business_name,\n        string memory city,\n        string memory companyRegistrationNumber,\n        string memory GSTnumber,\n        string memory document,\n        string memory email\n    ) public {\n        require(!RegisteredAddressMapping[msg.sender]);\n\n        businessCount++;\n        businesses.push(msg.sender);\n        RegisteredAddressMapping[msg.sender] = true;\n        RegisteredBusinessMapping[msg.sender] = true;\n        businessMapping[msg.sender] = business( msg.sender, business_name, city, companyRegistrationNumber, GSTnumber, document, email);\n    }\n\n    function updateBusiness(string memory _business_name,\n        string memory _city,\n        string memory _companyRegistrationNumber,\n        string memory _GSTnumber,\n        string memory _document,\n        string memory _email\n    ) public {\n        require(RegisteredAddressMapping[msg.sender] && businessMapping[msg.sender].id == msg.sender);\n\n        businessMapping[msg.sender].business_name = _business_name;\n        businessMapping[msg.sender].city = _city;\n        businessMapping[msg.sender].companyRegistrationNumber = _companyRegistrationNumber;\n        businessMapping[msg.sender].GSTnumber = _GSTnumber;\n        businessMapping[msg.sender].document = _document;\n        businessMapping[msg.sender].email = _email;\n    }\n\n    function getBusinesses() public view returns (address[] memory) {\n        return (businesses);\n    }\n\n    function getBusinessDetails(address i)\n        public\n        view\n        returns (\n            string memory,\n            string memory,\n            string memory,\n            string memory,\n            string memory,\n            string memory\n        )\n    {\n        return (\n            businessMapping[i].business_name,\n            businessMapping[i].city,\n            businessMapping[i].companyRegistrationNumber,\n            businessMapping[i].GSTnumber,\n            businessMapping[i].document,\n            businessMapping[i].email\n        );\n    }\n\n    function isFarmer(address _id) public view returns (bool) {\n        if (RegisteredFarmerMapping[_id]) {\n            return true;\n        } else {\n            // Handle the case where it's not verified\n            return false;\n        }\n    }\n\n    function isAdmin1 (address _id) public view returns (bool) {\n        if(_id == contract_admin) return true;\n        else return false;\n    }\n\n    function isBusiness(address _id) public view returns (bool) {\n        if (RegisteredBusinessMapping[_id]) {\n            return true;\n        } else {\n            // Handle the case where it's not verified\n            return false;\n        }\n    }\n\n    modifier isAdmin {\n        require(msg.sender == contract_admin);\n        _;\n    }\n\n    modifier isVerified{\n        require(Verification[msg.sender] == true);\n        _;\n    }\n\n    function isVerified1(address _id) public view returns (bool) {\n        if(Verification[_id] == true) return true; \n        else return false;\n    }\n\n    function verify(address walletID) isAdmin public{\n        Verification[walletID] = true;\n    }\n\n    function reject(address walletID) isAdmin public {\n        rejection[walletID] = true;\n    }\n\n    function isRejected(address walletID) public view returns (bool)  {\n        if(rejection[walletID]) return true;\n        else return false;\n    }\n\n    function addCropRequirement (\n        string memory crop_name,\n        uint quantity_in_kg,\n        uint price_per_kg,\n        uint256 deliveryTime, \n        uint256 _total,\n        uint256 _advPayment) public isVerified{\n            require(RegisteredBusinessMapping[msg.sender] == true);\n            \n            CropReqMapCount++;\n            uint id_temp = CropReqMap.length + 1;\n            // CropReqMapComplete[id_temp] = false;\n            CropReqMap.push(CropRequirement(id_temp, msg.sender, crop_name, quantity_in_kg, price_per_kg, block.timestamp+deliveryTime, false, _total, _advPayment));    \n    }\n\n    //below set of functions is for getting information about cropRequirement.\n    function getCropRequirementBusiness(uint256 i) public view returns(address){\n        return CropReqMap[i].business;\n    }\n    \n    function getCropRequirementCropName(uint256 i) public view returns(string memory){\n        return CropReqMap[i].crop_name;\n    }\n    function getCropRequirementQuantity(uint256 i) public view returns(uint256){\n        return CropReqMap[i].quantity_in_kg;\n    }\n    function getCropRequirementPrice(uint256 i) public view returns(uint256){\n        return CropReqMap[i].price_per_kg;\n    }\n    function getCropRequirementDelTime(uint256 i) public view returns(uint256){\n        return CropReqMap[i].delivery_time;\n    }\n    function getCropRequirementStatus(uint256 i) public view returns (bool){\n        return CropReqMap[i].status;\n    }\n    function getCropRequirementTotalPrice(uint256 i) public view returns (uint256) {\n        return CropReqMap[i].totalPrice;\n    }\n    function getCropRequirementAdvPayment(uint256 i) public view returns (uint256) {\n        return CropReqMap[i].advancedPayment;\n    }\n    //end\n\n    function requestContract(uint256 i) public isVerified{\n        require(RegisteredFarmerMapping[msg.sender] == true);\n        totalRequest++;\n        requestMapping[i].push(msg.sender);  \n    }\n\n    uint256 ContractsCount = 0;\n\n    struct forExtension {\n        bool farmerReq;\n        bool businessAcceptance;\n        uint256 time;\n    }\n    \n    mapping(uint256 => forExtension) public extensionReq;//This array is for extension requests.\n    bool[] public advancedPaymentReceived; \n    bool[] public PaymentReceived; \n\n\n    function signContract(address payable farmerAddress, uint256 i) public payable isVerified{\n        require(RegisteredBusinessMapping[msg.sender] == true);\n\n        ContractsCount++;\n        CropReqMap[i].status = true;\n        extensionReq[i] = forExtension(false, false, 0);\n        advancedPaymentReceived.push(false);\n        PaymentReceived.push(false);\n        Contracts.push(farmContract(msg.sender, \n                                    farmerAddress, \n                                    ContractsCount, //id of contract\n                                    CropReqMap[i].crop_name, \n                                    CropReqMap[i].quantity_in_kg, \n                                    CropReqMap[i].price_per_kg, \n                                    CropReqMap[i].delivery_time, \n                                    CropReqMap[i].totalPrice, \n                                    CropReqMap[i].advancedPayment));\n        \n        //Triggering advanced payment\n        //we have to take care of msg.value from frontend.\n            /* First access the advancedPayment value from CropReqMap using index i \n               and pass it using web3.js frontend(refer \"makePayment.js\" for this)*/\n        farmerAddress.transfer(msg.value);\n        advancedPaymentReceived[i] = true;\n    }\n\n\n    //below are the functions for displaying contracts data to the frontend\n    function getContractBusiness(uint i) public view returns (address) {\n        return Contracts[i].business;\n    }\n    function getContractFarmer(uint i) public view returns (address) {\n        return Contracts[i].farmer;\n    }\n    function getContractId(uint i) public view returns (uint) {\n        return Contracts[i].id;\n    }\n    function getContractCropName(uint i) public view returns (string memory) {\n        return Contracts[i].crop_name;\n    }\n    function getContractQuantity(uint i) public view returns (uint) {\n        return Contracts[i].quantity_in_kg;\n    }\n    function getContractPrice(uint i) public view returns (uint) {\n        return Contracts[i].price_per_kg;\n    }\n    function getContractDeadLine(uint i) public view returns (uint) {\n        return Contracts[i].deadline;\n    }\n    function getContractTotalPrice(uint i) public view returns (uint) {\n        return Contracts[i].totalPrice;\n    }\n    function getContractAdvPayment(uint i) public view returns (uint) {\n        return Contracts[i].advancedPayment;\n    }\n    //----------end--------------(these functions will be used to display the contracts data to the frontend)\n\n\n\n    //Below Implementation is for extension part.\n    function requestExtension(uint _i, uint256 _time) public {\n        require(RegisteredAddressMapping[msg.sender] && farmerMapping[msg.sender].id == msg.sender && Contracts[_i].farmer == msg.sender);\n\n        extensionReq[_i].farmerReq = true;\n        extensionReq[_i].time = _time;\n    }\n\n    function getExtensionInformation(uint _i) public view returns (bool, bool, uint) {\n        return (extensionReq[_i].farmerReq,\n                extensionReq[_i].businessAcceptance,\n                extensionReq[_i].time);\n    }\n\n    function acceptExtension(uint _i) public {\n        require(RegisteredAddressMapping[msg.sender] && businessMapping[msg.sender].id == msg.sender && Contracts[_i].business == msg.sender);\n        extensionReq[_i].businessAcceptance = true;\n    }\n\n    function updateContract(uint _i) public isAdmin {\n        require(extensionReq[_i].farmerReq == true && extensionReq[_i].businessAcceptance == true);\n        Contracts[_i].deadline += extensionReq[_i].time;\n    }\n\n    //function for remaining payment\n    function payRemaining(address payable _farmer, uint256 id) public payable {\n        PaymentReceived[id] = true;\n        _farmer.transfer(msg.value);\n    }\n\n    function isComplete(uint256 id) public view returns (bool) {\n        return PaymentReceived[id];\n    }\n    \n}",
  "sourcePath": "/home/ashwin/Contract Farming Project/contracts/Farm.sol",
  "compiler": {
    "name": "solc",
    "version": "0.5.16+commit.9c3226ce.Emscripten.clang"
  },
  "schemaVersion": "3.4.16",
  "updatedAt": "2024-02-17T07:54:50.107Z",
  "networkType": "ethereum",
  "devdoc": {
    "methods": {}
  },
  "userdoc": {
    "methods": {}
  }
}