{
  "contractName": "Farm",
  "abi": [
    {
      "inputs": [],
      "payable": false,
      "stateMutability": "nonpayable",
      "type": "constructor"
    },
    {
      "constant": true,
      "inputs": [
        {
          "internalType": "uint256",
          "name": "",
          "type": "uint256"
        }
      ],
      "name": "Contracts",
      "outputs": [
        {
          "internalType": "address",
          "name": "business",
          "type": "address"
        },
        {
          "internalType": "address",
          "name": "farmer",
          "type": "address"
        },
        {
          "internalType": "uint256",
          "name": "id",
          "type": "uint256"
        },
        {
          "internalType": "string",
          "name": "crop_name",
          "type": "string"
        },
        {
          "internalType": "uint256",
          "name": "quantity_in_kg",
          "type": "uint256"
        },
        {
          "internalType": "uint256",
          "name": "price_per_kg",
          "type": "uint256"
        },
        {
          "internalType": "uint256",
          "name": "deadline",
          "type": "uint256"
        },
        {
          "internalType": "uint256",
          "name": "totalPrice",
          "type": "uint256"
        },
        {
          "internalType": "uint256",
          "name": "advancedPayment",
          "type": "uint256"
        }
      ],
      "payable": false,
      "stateMutability": "view",
      "type": "function"
    },
    {
      "constant": true,
      "inputs": [
        {
          "internalType": "uint256",
          "name": "",
          "type": "uint256"
        }
      ],
      "name": "CropReqMap",
      "outputs": [
        {
          "internalType": "uint256",
          "name": "id",
          "type": "uint256"
        },
        {
          "internalType": "address",
          "name": "business",
          "type": "address"
        },
        {
          "internalType": "string",
          "name": "crop_name",
          "type": "string"
        },
        {
          "internalType": "uint256",
          "name": "quantity_in_kg",
          "type": "uint256"
        },
        {
          "internalType": "uint256",
          "name": "price_per_kg",
          "type": "uint256"
        },
        {
          "internalType": "uint256",
          "name": "delivery_time",
          "type": "uint256"
        },
        {
          "internalType": "bool",
          "name": "status",
          "type": "bool"
        },
        {
          "internalType": "uint256",
          "name": "totalPrice",
          "type": "uint256"
        },
        {
          "internalType": "uint256",
          "name": "advancedPayment",
          "type": "uint256"
        }
      ],
      "payable": false,
      "stateMutability": "view",
      "type": "function"
    },
    {
      "constant": true,
      "inputs": [],
      "name": "CropReqMapCount",
      "outputs": [
        {
          "internalType": "uint256",
          "name": "",
          "type": "uint256"
        }
      ],
      "payable": false,
      "stateMutability": "view",
      "type": "function"
    },
    {
      "constant": true,
      "inputs": [
        {
          "internalType": "uint256",
          "name": "",
          "type": "uint256"
        }
      ],
      "name": "InspectorMapping",
      "outputs": [
        {
          "internalType": "uint256",
          "name": "id",
          "type": "uint256"
        },
        {
          "internalType": "string",
          "name": "name",
          "type": "string"
        },
        {
          "internalType": "uint256",
          "name": "age",
          "type": "uint256"
        },
        {
          "internalType": "string",
          "name": "designation",
          "type": "string"
        }
      ],
      "payable": false,
      "stateMutability": "view",
      "type": "function"
    },
    {
      "constant": true,
      "inputs": [
        {
          "internalType": "uint256",
          "name": "",
          "type": "uint256"
        }
      ],
      "name": "PaymentReceived",
      "outputs": [
        {
          "internalType": "bool",
          "name": "",
          "type": "bool"
        }
      ],
      "payable": false,
      "stateMutability": "view",
      "type": "function"
    },
    {
      "constant": true,
      "inputs": [
        {
          "internalType": "address",
          "name": "",
          "type": "address"
        }
      ],
      "name": "RegisteredAddressMapping",
      "outputs": [
        {
          "internalType": "bool",
          "name": "",
          "type": "bool"
        }
      ],
      "payable": false,
      "stateMutability": "view",
      "type": "function"
    },
    {
      "constant": true,
      "inputs": [
        {
          "internalType": "address",
          "name": "",
          "type": "address"
        }
      ],
      "name": "RegisteredBusinessMapping",
      "outputs": [
        {
          "internalType": "bool",
          "name": "",
          "type": "bool"
        }
      ],
      "payable": false,
      "stateMutability": "view",
      "type": "function"
    },
    {
      "constant": true,
      "inputs": [
        {
          "internalType": "address",
          "name": "",
          "type": "address"
        }
      ],
      "name": "RegisteredFarmerMapping",
      "outputs": [
        {
          "internalType": "bool",
          "name": "",
          "type": "bool"
        }
      ],
      "payable": false,
      "stateMutability": "view",
      "type": "function"
    },
    {
      "constant": true,
      "inputs": [
        {
          "internalType": "address",
          "name": "",
          "type": "address"
        }
      ],
      "name": "Verification",
      "outputs": [
        {
          "internalType": "bool",
          "name": "",
          "type": "bool"
        }
      ],
      "payable": false,
      "stateMutability": "view",
      "type": "function"
    },
    {
      "constant": true,
      "inputs": [
        {
          "internalType": "uint256",
          "name": "",
          "type": "uint256"
        }
      ],
      "name": "advancedPaymentReceived",
      "outputs": [
        {
          "internalType": "bool",
          "name": "",
          "type": "bool"
        }
      ],
      "payable": false,
      "stateMutability": "view",
      "type": "function"
    },
    {
      "constant": true,
      "inputs": [],
      "name": "businessCount",
      "outputs": [
        {
          "internalType": "uint256",
          "name": "",
          "type": "uint256"
        }
      ],
      "payable": false,
      "stateMutability": "view",
      "type": "function"
    },
    {
      "constant": true,
      "inputs": [
        {
          "internalType": "address",
          "name": "",
          "type": "address"
        }
      ],
      "name": "businessMapping",
      "outputs": [
        {
          "internalType": "address",
          "name": "id",
          "type": "address"
        },
        {
          "internalType": "string",
          "name": "business_name",
          "type": "string"
        },
        {
          "internalType": "string",
          "name": "city",
          "type": "string"
        },
        {
          "internalType": "string",
          "name": "companyRegistrationNumber",
          "type": "string"
        },
        {
          "internalType": "string",
          "name": "GSTnumber",
          "type": "string"
        },
        {
          "internalType": "string",
          "name": "document",
          "type": "string"
        },
        {
          "internalType": "string",
          "name": "email",
          "type": "string"
        }
      ],
      "payable": false,
      "stateMutability": "view",
      "type": "function"
    },
    {
      "constant": true,
      "inputs": [
        {
          "internalType": "uint256",
          "name": "",
          "type": "uint256"
        }
      ],
      "name": "businesses",
      "outputs": [
        {
          "internalType": "address",
          "name": "",
          "type": "address"
        }
      ],
      "payable": false,
      "stateMutability": "view",
      "type": "function"
    },
    {
      "constant": true,
      "inputs": [],
      "name": "contract_admin",
      "outputs": [
        {
          "internalType": "address",
          "name": "",
          "type": "address"
        }
      ],
      "payable": false,
      "stateMutability": "view",
      "type": "function"
    },
    {
      "constant": true,
      "inputs": [],
      "name": "contractsCount",
      "outputs": [
        {
          "internalType": "uint256",
          "name": "",
          "type": "uint256"
        }
      ],
      "payable": false,
      "stateMutability": "view",
      "type": "function"
    },
    {
      "constant": true,
      "inputs": [
        {
          "internalType": "uint256",
          "name": "",
          "type": "uint256"
        }
      ],
      "name": "extensionReq",
      "outputs": [
        {
          "internalType": "bool",
          "name": "farmerReq",
          "type": "bool"
        },
        {
          "internalType": "bool",
          "name": "businessAcceptance",
          "type": "bool"
        },
        {
          "internalType": "uint256",
          "name": "time",
          "type": "uint256"
        }
      ],
      "payable": false,
      "stateMutability": "view",
      "type": "function"
    },
    {
      "constant": true,
      "inputs": [
        {
          "internalType": "address",
          "name": "",
          "type": "address"
        }
      ],
      "name": "farmerMapping",
      "outputs": [
        {
          "internalType": "address",
          "name": "id",
          "type": "address"
        },
        {
          "internalType": "string",
          "name": "name",
          "type": "string"
        },
        {
          "internalType": "uint256",
          "name": "age",
          "type": "uint256"
        },
        {
          "internalType": "string",
          "name": "city",
          "type": "string"
        },
        {
          "internalType": "string",
          "name": "aadharNumber",
          "type": "string"
        },
        {
          "internalType": "string",
          "name": "panNumber",
          "type": "string"
        },
        {
          "internalType": "string",
          "name": "land_document",
          "type": "string"
        }
      ],
      "payable": false,
      "stateMutability": "view",
      "type": "function"
    },
    {
      "constant": true,
      "inputs": [
        {
          "internalType": "uint256",
          "name": "",
          "type": "uint256"
        }
      ],
      "name": "farmers",
      "outputs": [
        {
          "internalType": "address",
          "name": "",
          "type": "address"
        }
      ],
      "payable": false,
      "stateMutability": "view",
      "type": "function"
    },
    {
      "constant": true,
      "inputs": [],
      "name": "farmersCount",
      "outputs": [
        {
          "internalType": "uint256",
          "name": "",
          "type": "uint256"
        }
      ],
      "payable": false,
      "stateMutability": "view",
      "type": "function"
    },
    {
      "constant": true,
      "inputs": [],
      "name": "inspectorsCount",
      "outputs": [
        {
          "internalType": "uint256",
          "name": "",
          "type": "uint256"
        }
      ],
      "payable": false,
      "stateMutability": "view",
      "type": "function"
    },
    {
      "constant": true,
      "inputs": [
        {
          "internalType": "address",
          "name": "",
          "type": "address"
        }
      ],
      "name": "rejection",
      "outputs": [
        {
          "internalType": "bool",
          "name": "",
          "type": "bool"
        }
      ],
      "payable": false,
      "stateMutability": "view",
      "type": "function"
    },
    {
      "constant": true,
      "inputs": [
        {
          "internalType": "uint256",
          "name": "",
          "type": "uint256"
        }
      ],
      "name": "requestMapping",
      "outputs": [
        {
          "internalType": "address",
          "name": "",
          "type": "address"
        }
      ],
      "payable": false,
      "stateMutability": "view",
      "type": "function"
    },
    {
      "constant": true,
      "inputs": [
        {
          "internalType": "uint256",
          "name": "",
          "type": "uint256"
        }
      ],
      "name": "requested",
      "outputs": [
        {
          "internalType": "bool",
          "name": "",
          "type": "bool"
        }
      ],
      "payable": false,
      "stateMutability": "view",
      "type": "function"
    },
    {
      "constant": true,
      "inputs": [],
      "name": "totalRequest",
      "outputs": [
        {
          "internalType": "uint256",
          "name": "",
          "type": "uint256"
        }
      ],
      "payable": false,
      "stateMutability": "view",
      "type": "function"
    },
    {
      "constant": true,
      "inputs": [],
      "name": "getBusinessCount",
      "outputs": [
        {
          "internalType": "uint256",
          "name": "",
          "type": "uint256"
        }
      ],
      "payable": false,
      "stateMutability": "view",
      "type": "function"
    },
    {
      "constant": true,
      "inputs": [],
      "name": "getInspectorCount",
      "outputs": [
        {
          "internalType": "uint256",
          "name": "",
          "type": "uint256"
        }
      ],
      "payable": false,
      "stateMutability": "view",
      "type": "function"
    },
    {
      "constant": true,
      "inputs": [],
      "name": "getFarmersCount",
      "outputs": [
        {
          "internalType": "uint256",
          "name": "",
          "type": "uint256"
        }
      ],
      "payable": false,
      "stateMutability": "view",
      "type": "function"
    },
    {
      "constant": true,
      "inputs": [],
      "name": "getCropReqCount",
      "outputs": [
        {
          "internalType": "uint256",
          "name": "",
          "type": "uint256"
        }
      ],
      "payable": false,
      "stateMutability": "view",
      "type": "function"
    },
    {
      "constant": true,
      "inputs": [],
      "name": "getTotalRequestCount",
      "outputs": [
        {
          "internalType": "uint256",
          "name": "",
          "type": "uint256"
        }
      ],
      "payable": false,
      "stateMutability": "view",
      "type": "function"
    },
    {
      "constant": false,
      "inputs": [
        {
          "internalType": "string",
          "name": "name",
          "type": "string"
        },
        {
          "internalType": "uint256",
          "name": "age",
          "type": "uint256"
        },
        {
          "internalType": "string",
          "name": "city",
          "type": "string"
        },
        {
          "internalType": "string",
          "name": "aadharNumber",
          "type": "string"
        },
        {
          "internalType": "string",
          "name": "panNumber",
          "type": "string"
        },
        {
          "internalType": "string",
          "name": "land_document",
          "type": "string"
        }
      ],
      "name": "addFarmer",
      "outputs": [],
      "payable": false,
      "stateMutability": "nonpayable",
      "type": "function"
    },
    {
      "constant": false,
      "inputs": [
        {
          "internalType": "string",
          "name": "_name",
          "type": "string"
        },
        {
          "internalType": "uint256",
          "name": "_age",
          "type": "uint256"
        },
        {
          "internalType": "string",
          "name": "_city",
          "type": "string"
        },
        {
          "internalType": "string",
          "name": "_aadharNumber",
          "type": "string"
        },
        {
          "internalType": "string",
          "name": "_panNumber",
          "type": "string"
        },
        {
          "internalType": "string",
          "name": "_land_document",
          "type": "string"
        }
      ],
      "name": "updateFarmer",
      "outputs": [],
      "payable": false,
      "stateMutability": "nonpayable",
      "type": "function"
    },
    {
      "constant": true,
      "inputs": [],
      "name": "getFarmers",
      "outputs": [
        {
          "internalType": "address[]",
          "name": "",
          "type": "address[]"
        }
      ],
      "payable": false,
      "stateMutability": "view",
      "type": "function"
    },
    {
      "constant": true,
      "inputs": [
        {
          "internalType": "address",
          "name": "i",
          "type": "address"
        }
      ],
      "name": "getFarmerDetails",
      "outputs": [
        {
          "internalType": "string",
          "name": "",
          "type": "string"
        },
        {
          "internalType": "uint256",
          "name": "",
          "type": "uint256"
        },
        {
          "internalType": "string",
          "name": "",
          "type": "string"
        },
        {
          "internalType": "string",
          "name": "",
          "type": "string"
        },
        {
          "internalType": "string",
          "name": "",
          "type": "string"
        },
        {
          "internalType": "string",
          "name": "",
          "type": "string"
        }
      ],
      "payable": false,
      "stateMutability": "view",
      "type": "function"
    },
    {
      "constant": false,
      "inputs": [
        {
          "internalType": "string",
          "name": "business_name",
          "type": "string"
        },
        {
          "internalType": "string",
          "name": "city",
          "type": "string"
        },
        {
          "internalType": "string",
          "name": "companyRegistrationNumber",
          "type": "string"
        },
        {
          "internalType": "string",
          "name": "GSTnumber",
          "type": "string"
        },
        {
          "internalType": "string",
          "name": "document",
          "type": "string"
        },
        {
          "internalType": "string",
          "name": "email",
          "type": "string"
        }
      ],
      "name": "addBusiness",
      "outputs": [],
      "payable": false,
      "stateMutability": "nonpayable",
      "type": "function"
    },
    {
      "constant": false,
      "inputs": [
        {
          "internalType": "string",
          "name": "_business_name",
          "type": "string"
        },
        {
          "internalType": "string",
          "name": "_city",
          "type": "string"
        },
        {
          "internalType": "string",
          "name": "_companyRegistrationNumber",
          "type": "string"
        },
        {
          "internalType": "string",
          "name": "_GSTnumber",
          "type": "string"
        },
        {
          "internalType": "string",
          "name": "_document",
          "type": "string"
        },
        {
          "internalType": "string",
          "name": "_email",
          "type": "string"
        }
      ],
      "name": "updateBusiness",
      "outputs": [],
      "payable": false,
      "stateMutability": "nonpayable",
      "type": "function"
    },
    {
      "constant": true,
      "inputs": [],
      "name": "getBusinesses",
      "outputs": [
        {
          "internalType": "address[]",
          "name": "",
          "type": "address[]"
        }
      ],
      "payable": false,
      "stateMutability": "view",
      "type": "function"
    },
    {
      "constant": true,
      "inputs": [
        {
          "internalType": "address",
          "name": "i",
          "type": "address"
        }
      ],
      "name": "getBusinessDetails",
      "outputs": [
        {
          "internalType": "string",
          "name": "",
          "type": "string"
        },
        {
          "internalType": "string",
          "name": "",
          "type": "string"
        },
        {
          "internalType": "string",
          "name": "",
          "type": "string"
        },
        {
          "internalType": "string",
          "name": "",
          "type": "string"
        },
        {
          "internalType": "string",
          "name": "",
          "type": "string"
        },
        {
          "internalType": "string",
          "name": "",
          "type": "string"
        }
      ],
      "payable": false,
      "stateMutability": "view",
      "type": "function"
    },
    {
      "constant": true,
      "inputs": [
        {
          "internalType": "address",
          "name": "_id",
          "type": "address"
        }
      ],
      "name": "isFarmer",
      "outputs": [
        {
          "internalType": "bool",
          "name": "",
          "type": "bool"
        }
      ],
      "payable": false,
      "stateMutability": "view",
      "type": "function"
    },
    {
      "constant": true,
      "inputs": [
        {
          "internalType": "address",
          "name": "_id",
          "type": "address"
        }
      ],
      "name": "isAdmin1",
      "outputs": [
        {
          "internalType": "bool",
          "name": "",
          "type": "bool"
        }
      ],
      "payable": false,
      "stateMutability": "view",
      "type": "function"
    },
    {
      "constant": true,
      "inputs": [
        {
          "internalType": "address",
          "name": "_id",
          "type": "address"
        }
      ],
      "name": "isBusiness",
      "outputs": [
        {
          "internalType": "bool",
          "name": "",
          "type": "bool"
        }
      ],
      "payable": false,
      "stateMutability": "view",
      "type": "function"
    },
    {
      "constant": true,
      "inputs": [
        {
          "internalType": "address",
          "name": "_id",
          "type": "address"
        }
      ],
      "name": "isVerified1",
      "outputs": [
        {
          "internalType": "bool",
          "name": "",
          "type": "bool"
        }
      ],
      "payable": false,
      "stateMutability": "view",
      "type": "function"
    },
    {
      "constant": false,
      "inputs": [
        {
          "internalType": "address",
          "name": "walletID",
          "type": "address"
        }
      ],
      "name": "verify",
      "outputs": [],
      "payable": false,
      "stateMutability": "nonpayable",
      "type": "function"
    },
    {
      "constant": false,
      "inputs": [
        {
          "internalType": "address",
          "name": "walletID",
          "type": "address"
        }
      ],
      "name": "reject",
      "outputs": [],
      "payable": false,
      "stateMutability": "nonpayable",
      "type": "function"
    },
    {
      "constant": true,
      "inputs": [
        {
          "internalType": "address",
          "name": "walletID",
          "type": "address"
        }
      ],
      "name": "isRejected",
      "outputs": [
        {
          "internalType": "bool",
          "name": "",
          "type": "bool"
        }
      ],
      "payable": false,
      "stateMutability": "view",
      "type": "function"
    },
    {
      "constant": false,
      "inputs": [
        {
          "internalType": "string",
          "name": "crop_name",
          "type": "string"
        },
        {
          "internalType": "uint256",
          "name": "quantity_in_kg",
          "type": "uint256"
        },
        {
          "internalType": "uint256",
          "name": "price_per_kg",
          "type": "uint256"
        },
        {
          "internalType": "uint256",
          "name": "deliveryTime",
          "type": "uint256"
        },
        {
          "internalType": "uint256",
          "name": "_total",
          "type": "uint256"
        },
        {
          "internalType": "uint256",
          "name": "_advPayment",
          "type": "uint256"
        }
      ],
      "name": "addCropRequirement",
      "outputs": [],
      "payable": false,
      "stateMutability": "nonpayable",
      "type": "function"
    },
    {
      "constant": true,
      "inputs": [
        {
          "internalType": "uint256",
          "name": "i",
          "type": "uint256"
        }
      ],
      "name": "getCropRequirementBusiness",
      "outputs": [
        {
          "internalType": "address",
          "name": "",
          "type": "address"
        }
      ],
      "payable": false,
      "stateMutability": "view",
      "type": "function"
    },
    {
      "constant": true,
      "inputs": [
        {
          "internalType": "uint256",
          "name": "i",
          "type": "uint256"
        }
      ],
      "name": "getCropRequirementCropName",
      "outputs": [
        {
          "internalType": "string",
          "name": "",
          "type": "string"
        }
      ],
      "payable": false,
      "stateMutability": "view",
      "type": "function"
    },
    {
      "constant": true,
      "inputs": [
        {
          "internalType": "uint256",
          "name": "i",
          "type": "uint256"
        }
      ],
      "name": "getCropRequirementQuantity",
      "outputs": [
        {
          "internalType": "uint256",
          "name": "",
          "type": "uint256"
        }
      ],
      "payable": false,
      "stateMutability": "view",
      "type": "function"
    },
    {
      "constant": true,
      "inputs": [
        {
          "internalType": "uint256",
          "name": "i",
          "type": "uint256"
        }
      ],
      "name": "getCropRequirementPrice",
      "outputs": [
        {
          "internalType": "uint256",
          "name": "",
          "type": "uint256"
        }
      ],
      "payable": false,
      "stateMutability": "view",
      "type": "function"
    },
    {
      "constant": true,
      "inputs": [
        {
          "internalType": "uint256",
          "name": "i",
          "type": "uint256"
        }
      ],
      "name": "getCropRequirementDelTime",
      "outputs": [
        {
          "internalType": "uint256",
          "name": "",
          "type": "uint256"
        }
      ],
      "payable": false,
      "stateMutability": "view",
      "type": "function"
    },
    {
      "constant": true,
      "inputs": [
        {
          "internalType": "uint256",
          "name": "i",
          "type": "uint256"
        }
      ],
      "name": "getCropRequirementStatus",
      "outputs": [
        {
          "internalType": "bool",
          "name": "",
          "type": "bool"
        }
      ],
      "payable": false,
      "stateMutability": "view",
      "type": "function"
    },
    {
      "constant": true,
      "inputs": [
        {
          "internalType": "uint256",
          "name": "i",
          "type": "uint256"
        }
      ],
      "name": "getCropRequirementTotalPrice",
      "outputs": [
        {
          "internalType": "uint256",
          "name": "",
          "type": "uint256"
        }
      ],
      "payable": false,
      "stateMutability": "view",
      "type": "function"
    },
    {
      "constant": true,
      "inputs": [
        {
          "internalType": "uint256",
          "name": "i",
          "type": "uint256"
        }
      ],
      "name": "getCropRequirementAdvPayment",
      "outputs": [
        {
          "internalType": "uint256",
          "name": "",
          "type": "uint256"
        }
      ],
      "payable": false,
      "stateMutability": "view",
      "type": "function"
    },
    {
      "constant": false,
      "inputs": [
        {
          "internalType": "uint256",
          "name": "i",
          "type": "uint256"
        }
      ],
      "name": "requestContract",
      "outputs": [],
      "payable": false,
      "stateMutability": "nonpayable",
      "type": "function"
    },
    {
      "constant": true,
      "inputs": [
        {
          "internalType": "uint256",
          "name": "index",
          "type": "uint256"
        }
      ],
      "name": "isRequested",
      "outputs": [
        {
          "internalType": "bool",
          "name": "",
          "type": "bool"
        }
      ],
      "payable": false,
      "stateMutability": "view",
      "type": "function"
    },
    {
      "constant": false,
      "inputs": [
        {
          "internalType": "address payable",
          "name": "farmerAddress",
          "type": "address"
        },
        {
          "internalType": "uint256",
          "name": "i",
          "type": "uint256"
        }
      ],
      "name": "signContract",
      "outputs": [],
      "payable": true,
      "stateMutability": "payable",
      "type": "function"
    },
    {
      "constant": true,
      "inputs": [],
      "name": "getContractsCount",
      "outputs": [
        {
          "internalType": "uint256",
          "name": "",
          "type": "uint256"
        }
      ],
      "payable": false,
      "stateMutability": "view",
      "type": "function"
    },
    {
      "constant": true,
      "inputs": [
        {
          "internalType": "uint256",
          "name": "i",
          "type": "uint256"
        }
      ],
      "name": "getContractBusiness",
      "outputs": [
        {
          "internalType": "address",
          "name": "",
          "type": "address"
        }
      ],
      "payable": false,
      "stateMutability": "view",
      "type": "function"
    },
    {
      "constant": true,
      "inputs": [
        {
          "internalType": "uint256",
          "name": "i",
          "type": "uint256"
        }
      ],
      "name": "getContractFarmer",
      "outputs": [
        {
          "internalType": "address",
          "name": "",
          "type": "address"
        }
      ],
      "payable": false,
      "stateMutability": "view",
      "type": "function"
    },
    {
      "constant": true,
      "inputs": [
        {
          "internalType": "uint256",
          "name": "i",
          "type": "uint256"
        }
      ],
      "name": "getContractId",
      "outputs": [
        {
          "internalType": "uint256",
          "name": "",
          "type": "uint256"
        }
      ],
      "payable": false,
      "stateMutability": "view",
      "type": "function"
    },
    {
      "constant": true,
      "inputs": [
        {
          "internalType": "uint256",
          "name": "i",
          "type": "uint256"
        }
      ],
      "name": "getContractCropName",
      "outputs": [
        {
          "internalType": "string",
          "name": "",
          "type": "string"
        }
      ],
      "payable": false,
      "stateMutability": "view",
      "type": "function"
    },
    {
      "constant": true,
      "inputs": [
        {
          "internalType": "uint256",
          "name": "i",
          "type": "uint256"
        }
      ],
      "name": "getContractQuantity",
      "outputs": [
        {
          "internalType": "uint256",
          "name": "",
          "type": "uint256"
        }
      ],
      "payable": false,
      "stateMutability": "view",
      "type": "function"
    },
    {
      "constant": true,
      "inputs": [
        {
          "internalType": "uint256",
          "name": "i",
          "type": "uint256"
        }
      ],
      "name": "getContractPrice",
      "outputs": [
        {
          "internalType": "uint256",
          "name": "",
          "type": "uint256"
        }
      ],
      "payable": false,
      "stateMutability": "view",
      "type": "function"
    },
    {
      "constant": true,
      "inputs": [
        {
          "internalType": "uint256",
          "name": "i",
          "type": "uint256"
        }
      ],
      "name": "getContractDeadLine",
      "outputs": [
        {
          "internalType": "uint256",
          "name": "",
          "type": "uint256"
        }
      ],
      "payable": false,
      "stateMutability": "view",
      "type": "function"
    },
    {
      "constant": true,
      "inputs": [
        {
          "internalType": "uint256",
          "name": "i",
          "type": "uint256"
        }
      ],
      "name": "getContractTotalPrice",
      "outputs": [
        {
          "internalType": "uint256",
          "name": "",
          "type": "uint256"
        }
      ],
      "payable": false,
      "stateMutability": "view",
      "type": "function"
    },
    {
      "constant": true,
      "inputs": [
        {
          "internalType": "uint256",
          "name": "i",
          "type": "uint256"
        }
      ],
      "name": "getContractAdvPayment",
      "outputs": [
        {
          "internalType": "uint256",
          "name": "",
          "type": "uint256"
        }
      ],
      "payable": false,
      "stateMutability": "view",
      "type": "function"
    },
    {
      "constant": false,
      "inputs": [
        {
          "internalType": "uint256",
          "name": "_i",
          "type": "uint256"
        },
        {
          "internalType": "uint256",
          "name": "_time",
          "type": "uint256"
        }
      ],
      "name": "requestExtension",
      "outputs": [],
      "payable": false,
      "stateMutability": "nonpayable",
      "type": "function"
    },
    {
      "constant": true,
      "inputs": [
        {
          "internalType": "uint256",
          "name": "_i",
          "type": "uint256"
        }
      ],
      "name": "getExtensionInformation",
      "outputs": [
        {
          "internalType": "bool",
          "name": "",
          "type": "bool"
        },
        {
          "internalType": "bool",
          "name": "",
          "type": "bool"
        },
        {
          "internalType": "uint256",
          "name": "",
          "type": "uint256"
        }
      ],
      "payable": false,
      "stateMutability": "view",
      "type": "function"
    },
    {
      "constant": false,
      "inputs": [
        {
          "internalType": "uint256",
          "name": "_i",
          "type": "uint256"
        }
      ],
      "name": "acceptExtension",
      "outputs": [],
      "payable": false,
      "stateMutability": "nonpayable",
      "type": "function"
    },
    {
      "constant": false,
      "inputs": [
        {
          "internalType": "uint256",
          "name": "_i",
          "type": "uint256"
        }
      ],
      "name": "updateContract",
      "outputs": [],
      "payable": false,
      "stateMutability": "nonpayable",
      "type": "function"
    },
    {
      "constant": false,
      "inputs": [
        {
          "internalType": "address payable",
          "name": "_farmer",
          "type": "address"
        },
        {
          "internalType": "uint256",
          "name": "id",
          "type": "uint256"
        }
      ],
      "name": "payRemaining",
      "outputs": [],
      "payable": true,
      "stateMutability": "payable",
      "type": "function"
    },
    {
      "constant": true,
      "inputs": [
        {
          "internalType": "uint256",
          "name": "id",
          "type": "uint256"
        }
      ],
      "name": "isComplete",
      "outputs": [
        {
          "internalType": "bool",
          "name": "",
          "type": "bool"
        }
      ],
      "payable": false,
      "stateMutability": "view",
      "type": "function"
    }
  ],
  "bytecode": "0x60806040526005600f5560006015553480156200001b57600080fd5b5060008054600160a060020a03191633179055604080518082018252600b81527f496e73706563746f7220310000000000000000000000000000000000000000006020808301919091528251808401909352600e83527f54656873696c204d616e6167657200000000000000000000000000000000000090830152620000ad91602d90640100000000620000b3810204565b620001e2565b6010805460019081019182905560408051608081018252838152602080820188815282840188905260608301879052600095865260028252929094208151815591518051919492936200010d93908501929101906200013d565b506040820151600282015560608201518051620001359160038401916020909101906200013d565b505050505050565b828054600181600116156101000203166002900490600052602060002090601f016020900481019282601f106200018057805160ff1916838001178555620001b0565b82800160010185558215620001b0579182015b82811115620001b057825182559160200191906001019062000193565b50620001be929150620001c2565b5090565b620001df91905b80821115620001be5760008155600101620001c9565b90565b614b0980620001f26000396000f3fe6080604052600436106104b8576000357c01000000000000000000000000000000000000000000000000000000009004806392d247321161027b578063be5df21411610160578063da2aff2a116100d8578063ef492ff6116100a7578063f58f85b51161008c578063f58f85b51461281d578063f6dc606814612850578063fc88210a14612883576104b8565b8063ef492ff61461249d578063f1f3e5a9146127f3576104b8565b8063da2aff2a1461231e578063def936c314612333578063e250fc7b14612449578063e65a57f114612473576104b8565b8063cf2142e61161012f578063d335ccfa11610114578063d335ccfa14612080578063d399c54b146122ca578063d85e98e5146122f4576104b8565b8063cf2142e614611d92578063d18264e914611dbe576104b8565b8063be5df21414611cff578063bf9ede3014611d29578063c4fecdb614611d53578063c697615714611d68576104b8565b8063ab9ef11f116101f3578063b8e25c1c116101c2578063b984c6ec116101a7578063b984c6ec146119aa578063bc9e2b6d146119d4578063bd75786014611c35576104b8565b8063b8e25c1c1461194b578063b942906914611977576104b8565b8063ab9ef11f146118b8578063af786281146118e2578063b43b24fe146118f7578063b52e333b14611921576104b8565b8063a8d166401161024a578063aab1418a1161022f578063aab1418a14611846578063ab0da5a914611870578063ab95a748146118a3576104b8565b8063a8d1664014611545578063a8f916041461156f576104b8565b806392d247321461143f578063941e2426146114eb5780639683584f146115005780639f369aa914611515576104b8565b80634a1df9f9116103a15780637b1d434811610319578063883436a1116102e85780638afdd669116102cd5780638afdd6691461117f5780638df9b6ee146111a957806390db684c1461140c576104b8565b8063883436a1146110375780638a79550314611081576104b8565b80637b1d434814610fb05780637ced45d114610fc557806382e215ab14610fda57806386b7da2f14611004576104b8565b806363a9c3d7116103705780636da36c06116103555780636da36c0614610c305780636fb9e80314610c45578063789f8d4014610f9b576104b8565b806363a9c3d714610be857806367cb77e714610c1b576104b8565b80634a1df9f9146108a65780634fe536a9146108d0578063598fb0d6146108fc5780636125974514610bd3576104b8565b806324d328fc1161043457806338f4e6c5116104035780633ba18d7d116103e85780633ba18d7d146107e45780633e6126541461084957806348a46bd314610873576104b8565b806338f4e6c5146107875780633a0be1a6146107ba576104b8565b806324d328fc146106f457806326cccdff1461071e578063285ab26614610733578063330820bc1461075d576104b8565b80631466d0191161048b578063155fec7211610470578063155fec721461065a5780631a07f76e146106845780631ed0fca6146106ae576104b8565b80631466d019146105885780631558b245146105bb576104b8565b80630419e7ef146104bd578063045b2c06146104e457806305cf45bd1461052b5780630835b5651461055e575b600080fd5b3480156104c957600080fd5b506104d26128ad565b60408051918252519081900360200190f35b3480156104f057600080fd5b506105176004803603602081101561050757600080fd5b5035600160a060020a03166128b3565b604080519115158252519081900360200190f35b34801561053757600080fd5b506105176004803603602081101561054e57600080fd5b5035600160a060020a03166128db565b34801561056a57600080fd5b506104d26004803603602081101561058157600080fd5b5035612909565b34801561059457600080fd5b50610517600480360360208110156105ab57600080fd5b5035600160a060020a0316612931565b3480156105c757600080fd5b506105e5600480360360208110156105de57600080fd5b503561295a565b6040805160208082528351818301528351919283929083019185019080838360005b8381101561061f578181015183820152602001610607565b50505050905090810190601f16801561064c5780820380516001836020036101000a031916815260200191505b509250505060405180910390f35b34801561066657600080fd5b506105176004803603602081101561067d57600080fd5b5035612a0d565b34801561069057600080fd5b50610517600480360360208110156106a757600080fd5b5035612a4f565b3480156106ba57600080fd5b506106d8600480360360208110156106d157600080fd5b5035612a80565b60408051600160a060020a039092168252519081900360200190f35b34801561070057600080fd5b506105176004803603602081101561071757600080fd5b5035612aaf565b34801561072a57600080fd5b506104d2612abc565b34801561073f57600080fd5b506105e56004803603602081101561075657600080fd5b5035612ac2565b34801561076957600080fd5b506105176004803603602081101561078057600080fd5b5035612b3c565b34801561079357600080fd5b50610517600480360360208110156107aa57600080fd5b5035600160a060020a0316612b68565b3480156107c657600080fd5b50610517600480360360208110156107dd57600080fd5b5035612b7d565b3480156107f057600080fd5b506107f9612bb3565b60408051602080825283518183015283519192839290830191858101910280838360005b8381101561083557818101518382015260200161081d565b505050509050019250505060405180910390f35b34801561085557600080fd5b506104d26004803603602081101561086c57600080fd5b5035612c16565b34801561087f57600080fd5b506105176004803603602081101561089657600080fd5b5035600160a060020a0316612c3e565b3480156108b257600080fd5b506106d8600480360360208110156108c957600080fd5b5035612c67565b3480156108dc57600080fd5b506108fa600480360360208110156108f357600080fd5b5035612c99565b005b34801561090857600080fd5b506108fa600480360360c081101561091f57600080fd5b81019060208101813564010000000081111561093a57600080fd5b82018360208201111561094c57600080fd5b8035906020019184600183028401116401000000008311171561096e57600080fd5b91908080601f016020809104026020016040519081016040528093929190818152602001838380828437600092019190915250929584359590949093506040810192506020013590506401000000008111156109c957600080fd5b8201836020820111156109db57600080fd5b803590602001918460018302840111640100000000831117156109fd57600080fd5b91908080601f0160208091040260200160405190810160405280939291908181526020018383808284376000920191909152509295949360208101935035915050640100000000811115610a5057600080fd5b820183602082011115610a6257600080fd5b80359060200191846001830284011164010000000083111715610a8457600080fd5b91908080601f0160208091040260200160405190810160405280939291908181526020018383808284376000920191909152509295949360208101935035915050640100000000811115610ad757600080fd5b820183602082011115610ae957600080fd5b80359060200191846001830284011164010000000083111715610b0b57600080fd5b91908080601f0160208091040260200160405190810160405280939291908181526020018383808284376000920191909152509295949360208101935035915050640100000000811115610b5e57600080fd5b820183602082011115610b7057600080fd5b80359060200191846001830284011164010000000083111715610b9257600080fd5b91908080601f016020809104026020016040519081016040528093929190818152602001838380828437600092019190915250929550612d45945050505050565b348015610bdf57600080fd5b506104d2612ed9565b348015610bf457600080fd5b506108fa60048036036020811015610c0b57600080fd5b5035600160a060020a0316612edf565b348015610c2757600080fd5b506104d2612f1a565b348015610c3c57600080fd5b506106d8612f20565b348015610c5157600080fd5b506108fa600480360360c0811015610c6857600080fd5b810190602081018135640100000000811115610c8357600080fd5b820183602082011115610c9557600080fd5b80359060200191846001830284011164010000000083111715610cb757600080fd5b91908080601f0160208091040260200160405190810160405280939291908181526020018383808284376000920191909152509295949360208101935035915050640100000000811115610d0a57600080fd5b820183602082011115610d1c57600080fd5b80359060200191846001830284011164010000000083111715610d3e57600080fd5b91908080601f0160208091040260200160405190810160405280939291908181526020018383808284376000920191909152509295949360208101935035915050640100000000811115610d9157600080fd5b820183602082011115610da357600080fd5b80359060200191846001830284011164010000000083111715610dc557600080fd5b91908080601f0160208091040260200160405190810160405280939291908181526020018383808284376000920191909152509295949360208101935035915050640100000000811115610e1857600080fd5b820183602082011115610e2a57600080fd5b80359060200191846001830284011164010000000083111715610e4c57600080fd5b91908080601f0160208091040260200160405190810160405280939291908181526020018383808284376000920191909152509295949360208101935035915050640100000000811115610e9f57600080fd5b820183602082011115610eb157600080fd5b80359060200191846001830284011164010000000083111715610ed357600080fd5b91908080601f0160208091040260200160405190810160405280939291908181526020018383808284376000920191909152509295949360208101935035915050640100000000811115610f2657600080fd5b820183602082011115610f3857600080fd5b80359060200191846001830284011164010000000083111715610f5a57600080fd5b91908080601f016020809104026020016040519081016040528093929190818152602001838380828437600092019190915250929550612f2f945050505050565b348015610fa757600080fd5b506107f9613076565b348015610fbc57600080fd5b506104d26130d6565b348015610fd157600080fd5b506104d26130dc565b348015610fe657600080fd5b506106d860048036036020811015610ffd57600080fd5b50356130e2565b34801561101057600080fd5b506105176004803603602081101561102757600080fd5b5035600160a060020a03166130fd565b34801561104357600080fd5b506110616004803603602081101561105a57600080fd5b5035613112565b604080519315158452911515602084015282820152519081900360600190f35b34801561108d57600080fd5b506110ab600480360360208110156110a457600080fd5b5035613138565b604051808a600160a060020a0316600160a060020a0316815260200189600160a060020a0316600160a060020a0316815260200188815260200180602001878152602001868152602001858152602001848152602001838152602001828103825288818151815260200191508051906020019080838360005b8381101561113c578181015183820152602001611124565b50505050905090810190601f1680156111695780820380516001836020036101000a031916815260200191505b509a505050505050505050505060405180910390f35b34801561118b57600080fd5b506106d8600480360360208110156111a257600080fd5b5035613227565b3480156111b557600080fd5b506111dc600480360360208110156111cc57600080fd5b5035600160a060020a031661324e565b6040518088600160a060020a0316600160a060020a03168152602001806020018781526020018060200180602001806020018060200186810386528c818151815260200191508051906020019080838360005b8381101561124757818101518382015260200161122f565b50505050905090810190601f1680156112745780820380516001836020036101000a031916815260200191505b5086810385528a5181528a516020918201918c019080838360005b838110156112a757818101518382015260200161128f565b50505050905090810190601f1680156112d45780820380516001836020036101000a031916815260200191505b5086810384528951815289516020918201918b019080838360005b838110156113075781810151838201526020016112ef565b50505050905090810190601f1680156113345780820380516001836020036101000a031916815260200191505b5086810383528851815288516020918201918a019080838360005b8381101561136757818101518382015260200161134f565b50505050905090810190601f1680156113945780820380516001836020036101000a031916815260200191505b50868103825287518152875160209182019189019080838360005b838110156113c75781810151838201526020016113af565b50505050905090810190601f1680156113f45780820380516001836020036101000a031916815260200191505b509c5050505050505050505050505060405180910390f35b34801561141857600080fd5b506105176004803603602081101561142f57600080fd5b5035600160a060020a031661354a565b34801561144b57600080fd5b506114696004803603602081101561146257600080fd5b503561355f565b604051808a815260200189600160a060020a0316600160a060020a031681526020018060200188815260200187815260200186815260200185151515158152602001848152602001838152602001828103825289818151815260200191508051906020019080838360008381101561113c578181015183820152602001611124565b3480156114f757600080fd5b506104d2613651565b34801561150c57600080fd5b506104d2613657565b34801561152157600080fd5b506108fa6004803603604081101561153857600080fd5b508035906020013561365d565b34801561155157600080fd5b506104d26004803603602081101561156857600080fd5b50356136f8565b34801561157b57600080fd5b506108fa600480360360c081101561159257600080fd5b8101906020810181356401000000008111156115ad57600080fd5b8201836020820111156115bf57600080fd5b803590602001918460018302840111640100000000831117156115e157600080fd5b91908080601f0160208091040260200160405190810160405280939291908181526020018383808284376000920191909152509295843595909490935060408101925060200135905064010000000081111561163c57600080fd5b82018360208201111561164e57600080fd5b8035906020019184600183028401116401000000008311171561167057600080fd5b91908080601f01602080910402602001604051908101604052809392919081815260200183838082843760009201919091525092959493602081019350359150506401000000008111156116c357600080fd5b8201836020820111156116d557600080fd5b803590602001918460018302840111640100000000831117156116f757600080fd5b91908080601f016020809104026020016040519081016040528093929190818152602001838380828437600092019190915250929594936020810193503591505064010000000081111561174a57600080fd5b82018360208201111561175c57600080fd5b8035906020019184600183028401116401000000008311171561177e57600080fd5b91908080601f01602080910402602001604051908101604052809392919081815260200183838082843760009201919091525092959493602081019350359150506401000000008111156117d157600080fd5b8201836020820111156117e357600080fd5b8035906020019184600183028401116401000000008311171561180557600080fd5b91908080601f016020809104026020016040519081016040528093929190818152602001838380828437600092019190915250929550613720945050505050565b34801561185257600080fd5b506104d26004803603602081101561186957600080fd5b5035613830565b34801561187c57600080fd5b506108fa6004803603602081101561189357600080fd5b5035600160a060020a0316613858565b3480156118af57600080fd5b506104d2613893565b3480156118c457600080fd5b50611061600480360360208110156118db57600080fd5b5035613899565b3480156118ee57600080fd5b506104d26138bf565b34801561190357600080fd5b506104d26004803603602081101561191a57600080fd5b50356138c5565b34801561192d57600080fd5b506106d86004803603602081101561194457600080fd5b50356138ed565b6108fa6004803603604081101561196157600080fd5b50600160a060020a0381351690602001356138fc565b34801561198357600080fd5b506105176004803603602081101561199a57600080fd5b5035600160a060020a031661396d565b3480156119b657600080fd5b506106d8600480360360208110156119cd57600080fd5b5035613996565b3480156119e057600080fd5b50611a07600480360360208110156119f757600080fd5b5035600160a060020a03166139a3565b6040518080602001806020018060200180602001806020018060200187810387528d818151815260200191508051906020019080838360005b83811015611a58578181015183820152602001611a40565b50505050905090810190601f168015611a855780820380516001836020036101000a031916815260200191505b5087810386528c5181528c516020918201918e019080838360005b83811015611ab8578181015183820152602001611aa0565b50505050905090810190601f168015611ae55780820380516001836020036101000a031916815260200191505b5087810385528b5181528b516020918201918d019080838360005b83811015611b18578181015183820152602001611b00565b50505050905090810190601f168015611b455780820380516001836020036101000a031916815260200191505b5087810384528a5181528a516020918201918c019080838360005b83811015611b78578181015183820152602001611b60565b50505050905090810190601f168015611ba55780820380516001836020036101000a031916815260200191505b5087810383528951815289516020918201918b019080838360005b83811015611bd8578181015183820152602001611bc0565b50505050905090810190601f168015611c055780820380516001836020036101000a031916815260200191505b5087810382528851815288516020918201918a0190808383600083156113c75781810151838201526020016113af565b348015611c4157600080fd5b506108fa600480360360c0811015611c5857600080fd5b810190602081018135640100000000811115611c7357600080fd5b820183602082011115611c8557600080fd5b80359060200191846001830284011164010000000083111715611ca757600080fd5b91908080601f0160208091040260200160405190810160405280939291908181526020018383808284376000920191909152509295505082359350505060208101359060408101359060608101359060800135613d48565b348015611d0b57600080fd5b506104d260048036036020811015611d2257600080fd5b5035613f03565b348015611d3557600080fd5b506104d260048036036020811015611d4c57600080fd5b5035613f12565b348015611d5f57600080fd5b506104d2613f21565b348015611d7457600080fd5b506104d260048036036020811015611d8b57600080fd5b5035613f27565b6108fa60048036036040811015611da857600080fd5b50600160a060020a038135169060200135613f36565b348015611dca57600080fd5b50611df160048036036020811015611de157600080fd5b5035600160a060020a031661433b565b6040518088600160a060020a0316600160a060020a0316815260200180602001806020018060200180602001806020018060200187810387528d818151815260200191508051906020019080838360005b83811015611e5a578181015183820152602001611e42565b50505050905090810190601f168015611e875780820380516001836020036101000a031916815260200191505b5087810386528c5181528c516020918201918e019080838360005b83811015611eba578181015183820152602001611ea2565b50505050905090810190601f168015611ee75780820380516001836020036101000a031916815260200191505b5087810385528b5181528b516020918201918d019080838360005b83811015611f1a578181015183820152602001611f02565b50505050905090810190601f168015611f475780820380516001836020036101000a031916815260200191505b5087810384528a5181528a516020918201918c019080838360005b83811015611f7a578181015183820152602001611f62565b50505050905090810190601f168015611fa75780820380516001836020036101000a031916815260200191505b5087810383528951815289516020918201918b019080838360005b83811015611fda578181015183820152602001611fc2565b50505050905090810190601f1680156120075780820380516001836020036101000a031916815260200191505b5087810382528851815288516020918201918a019080838360005b8381101561203a578181015183820152602001612022565b50505050905090810190601f1680156120675780820380516001836020036101000a031916815260200191505b509d505050505050505050505050505060405180910390f35b34801561208c57600080fd5b506120b3600480360360208110156120a357600080fd5b5035600160a060020a03166144dc565b60405180806020018781526020018060200180602001806020018060200186810386528c818151815260200191508051906020019080838360005b838110156121065781810151838201526020016120ee565b50505050905090810190601f1680156121335780820380516001836020036101000a031916815260200191505b5086810385528a5181528a516020918201918c019080838360005b8381101561216657818101518382015260200161214e565b50505050905090810190601f1680156121935780820380516001836020036101000a031916815260200191505b5086810384528951815289516020918201918b019080838360005b838110156121c65781810151838201526020016121ae565b50505050905090810190601f1680156121f35780820380516001836020036101000a031916815260200191505b5086810383528851815288516020918201918a019080838360005b8381101561222657818101518382015260200161220e565b50505050905090810190601f1680156122535780820380516001836020036101000a031916815260200191505b50868103825287518152875160209182019189019080838360005b8381101561228657818101518382015260200161226e565b50505050905090810190601f1680156122b35780820380516001836020036101000a031916815260200191505b509b50505050505050505050505060405180910390f35b3480156122d657600080fd5b506108fa600480360360208110156122ed57600080fd5b5035614602565b34801561230057600080fd5b506104d26004803603602081101561231757600080fd5b5035614697565b34801561232a57600080fd5b506104d26146bf565b34801561233f57600080fd5b5061235d6004803603602081101561235657600080fd5b50356146c5565b604051808581526020018060200184815260200180602001838103835286818151815260200191508051906020019080838360005b838110156123aa578181015183820152602001612392565b50505050905090810190601f1680156123d75780820380516001836020036101000a031916815260200191505b50838103825284518152845160209182019186019080838360005b8381101561240a5781810151838201526020016123f2565b50505050905090810190601f1680156124375780820380516001836020036101000a031916815260200191505b50965050505050505060405180910390f35b34801561245557600080fd5b506104d26004803603602081101561246c57600080fd5b5035614802565b34801561247f57600080fd5b506105176004803603602081101561249657600080fd5b5035614811565b3480156124a957600080fd5b506108fa600480360360c08110156124c057600080fd5b8101906020810181356401000000008111156124db57600080fd5b8201836020820111156124ed57600080fd5b8035906020019184600183028401116401000000008311171561250f57600080fd5b91908080601f016020809104026020016040519081016040528093929190818152602001838380828437600092019190915250929594936020810193503591505064010000000081111561256257600080fd5b82018360208201111561257457600080fd5b8035906020019184600183028401116401000000008311171561259657600080fd5b91908080601f01602080910402602001604051908101604052809392919081815260200183838082843760009201919091525092959493602081019350359150506401000000008111156125e957600080fd5b8201836020820111156125fb57600080fd5b8035906020019184600183028401116401000000008311171561261d57600080fd5b91908080601f016020809104026020016040519081016040528093929190818152602001838380828437600092019190915250929594936020810193503591505064010000000081111561267057600080fd5b82018360208201111561268257600080fd5b803590602001918460018302840111640100000000831117156126a457600080fd5b91908080601f01602080910402602001604051908101604052809392919081815260200183838082843760009201919091525092959493602081019350359150506401000000008111156126f757600080fd5b82018360208201111561270957600080fd5b8035906020019184600183028401116401000000008311171561272b57600080fd5b91908080601f016020809104026020016040519081016040528093929190818152602001838380828437600092019190915250929594936020810193503591505064010000000081111561277e57600080fd5b82018360208201111561279057600080fd5b803590602001918460018302840111640100000000831117156127b257600080fd5b91908080601f016020809104026020016040519081016040528093929190818152602001838380828437600092019190915250929550614826945050505050565b3480156127ff57600080fd5b506108fa6004803603602081101561281657600080fd5b503561494d565b34801561282957600080fd5b506105176004803603602081101561284057600080fd5b5035600160a060020a03166149ea565b34801561285c57600080fd5b506105176004803603602081101561287357600080fd5b5035600160a060020a03166149ff565b34801561288f57600080fd5b506104d2600480360360208110156128a657600080fd5b5035614a14565b60115481565b60008054600160a060020a03838116911614156128d2575060016128d6565b5060005b919050565b600160a060020a0381166000908152600a602052604081205460ff161515600114156128d2575060016128d6565b6000600b828154811061291857fe5b9060005260206000209060090201600801549050919050565b600160a060020a03811660009081526008602052604081205460ff16156128d2575060016128d6565b6060600b828154811061296957fe5b600091825260209182902060026009909202018101805460408051601f600019610100600186161502019093169490940491820185900485028401850190528083529192909190830182828015612a015780601f106129d657610100808354040283529160200191612a01565b820191906000526020600020905b8154815290600101906020018083116129e457829003601f168201915b50505050509050919050565b6000818152600e602052604081205460ff16612a2b575060006128d6565b6000828152600e602052604090205460ff161515600114156128d6575060016128d6565b60188181548110612a5c57fe5b9060005260206000209060209182820401919006915054906101000a900460ff1681565b600060018281548110612a8f57fe5b6000918252602090912060099091020154600160a060020a031692915050565b60178181548110612a5c57fe5b60135481565b606060018281548110612ad157fe5b6000918252602091829020600360099092020101805460408051601f6002600019610100600187161502019094169390930492830185900485028101850190915281815292830182828015612a015780601f106129d657610100808354040283529160200191612a01565b6000600b8281548110612b4b57fe5b600091825260209091206009909102016006015460ff1692915050565b600a6020526000908152604090205460ff1681565b600060188281548110612b8c57fe5b90600052602060002090602091828204019190069054906101000a900460ff169050919050565b60606003805480602002602001604051908101604052809291908181526020018280548015612c0b57602002820191906000526020600020905b8154600160a060020a03168152600190910190602001808311612bed575b505050505090505b90565b600060018281548110612c2557fe5b9060005260206000209060090201600501549050919050565b600160a060020a0381166000908152600c602052604081205460ff16156128d2575060016128d6565b6000600b8281548110612c7657fe5b6000918252602090912060099091020160010154600160a060020a031692915050565b336000908152600a602052604090205460ff161515600114612cba57600080fd5b3360009081526009602052604090205460ff1615156001148015612ced57506000818152600e602052604090205460ff16155b612cf657600080fd5b6014805460019081019091556000918252600d60209081526040808420805473ffffffffffffffffffffffffffffffffffffffff191633179055600e909152909120805460ff19169091179055565b3360009081526007602052604090205460ff1615612d6257600080fd5b601180546001908101909155600580548083019091557f036b6384b5eca791c62761152d0c79bb0604c104a5fb6f4eb0703f3154bb3db00180543373ffffffffffffffffffffffffffffffffffffffff1991821681179092556000828152600760209081526040808320805460ff19908116881790915560098352818420805490911687179055805160e0810182528581528083018d81528183018d9052606082018c9052608082018b905260a082018a905260c0820189905295845260068352922082518154909416600160a060020a039094169390931783559251805191949293612e5493850192910190614a3c565b506040820151600282015560608201518051612e7a916003840191602090910190614a3c565b5060808201518051612e96916004840191602090910190614a3c565b5060a08201518051612eb2916005840191602090910190614a3c565b5060c08201518051612ece916006840191602090910190614a3c565b505050505050505050565b60145481565b600054600160a060020a03163314612ef657600080fd5b600160a060020a03166000908152600a60205260409020805460ff19166001179055565b60115490565b600054600160a060020a031681565b3360009081526007602052604090205460ff1615612f4c57600080fd5b601280546001908101909155600380548083019091557fc2575a0e9e593c00f959f8c92f12db2869c3395a3b0502d05e2516446f71f85b0180543373ffffffffffffffffffffffffffffffffffffffff1991821681179092556000828152600760209081526040808320805460ff19908116881790915560088352818420805490911687179055805160e0810182528581528083018d81528183018d9052606082018c9052608082018b905260a082018a905260c0820189905295845260048352922082518154909416600160a060020a03909416939093178355925180519194929361303e93850192910190614a3c565b506040820151805161305a916002840191602090910190614a3c565b5060608201518051612e7a916003840191602090910190614a3c565b60606005805480602002602001604051908101604052809291908181526020018280548015612c0b57602002820191906000526020600020908154600160a060020a03168152600190910190602001808311612bed575050505050905090565b60105490565b60145490565b600d60205260009081526040902054600160a060020a031681565b600c6020526000908152604090205460ff1681565b6000908152601660205260409020805460019091015460ff808316936101009093041691565b6001818154811061314557fe5b60009182526020918290206009919091020180546001808301546002808501546003860180546040805161010097831615979097026000190190911693909304601f8101899004890286018901909352828552600160a060020a0395861698509490921695919493918301828280156131ff5780601f106131d4576101008083540402835291602001916131ff565b820191906000526020600020905b8154815290600101906020018083116131e257829003601f168201915b5050505050908060040154908060050154908060060154908060070154908060080154905089565b6005818154811061323457fe5b600091825260209091200154600160a060020a0316905081565b6006602090815260009182526040918290208054600180830180548651600261010094831615949094026000190190911692909204601f8101869004860283018601909652858252600160a060020a039092169492939092908301828280156132f85780601f106132cd576101008083540402835291602001916132f8565b820191906000526020600020905b8154815290600101906020018083116132db57829003601f168201915b505050506002838101546003850180546040805160206001841615610100026000190190931695909504601f8101839004830286018301909152808552959692959294509091908301828280156133905780601f1061336557610100808354040283529160200191613390565b820191906000526020600020905b81548152906001019060200180831161337357829003601f168201915b5050505060048301805460408051602060026001851615610100026000190190941693909304601f81018490048402820184019092528181529495949350908301828280156134205780601f106133f557610100808354040283529160200191613420565b820191906000526020600020905b81548152906001019060200180831161340357829003601f168201915b5050505060058301805460408051602060026001851615610100026000190190941693909304601f81018490048402820184019092528181529495949350908301828280156134b05780601f10613485576101008083540402835291602001916134b0565b820191906000526020600020905b81548152906001019060200180831161349357829003601f168201915b5050505060068301805460408051602060026001851615610100026000190190941693909304601f81018490048402820184019092528181529495949350908301828280156135405780601f1061351557610100808354040283529160200191613540565b820191906000526020600020905b81548152906001019060200180831161352357829003601f168201915b5050505050905087565b60096020526000908152604090205460ff1681565b600b818154811061356c57fe5b6000918252602091829020600991909102018054600180830154600280850180546040805161010096831615969096026000190190911692909204601f8101889004880285018801909252818452939650600160a060020a039091169491929183018282801561361d5780601f106135f25761010080835404028352916020019161361d565b820191906000526020600020905b81548152906001019060200180831161360057829003601f168201915b505050600384015460048501546005860154600687015460078801546008909801549697939692955090935060ff16919089565b60105481565b60155490565b3360009081526007602052604090205460ff168015613692575033600081815260066020526040902054600160a060020a0316145b80156136cf575033600160a060020a0316600183815481106136b057fe5b6000918252602090912060016009909202010154600160a060020a0316145b6136d857600080fd5b600091825260166020526040909120805460ff1916600190811782550155565b6000600b828154811061370757fe5b9060005260206000209060090201600401549050919050565b3360009081526007602052604090205460ff168015613755575033600081815260066020526040902054600160a060020a0316145b61375e57600080fd5b336000908152600660209081526040909120875161378492600190920191890190614a3c565b503360009081526006602090815260409091206002810187905585516137b292600390920191870190614a3c565b5033600090815260066020908152604090912084516137d992600490920191860190614a3c565b50336000908152600660209081526040909120835161380092600590920191850190614a3c565b50336000908152600660208181526040909220835161382793919092019190840190614a3c565b50505050505050565b6000600b828154811061383f57fe5b9060005260206000209060090201600301549050919050565b600054600160a060020a0316331461386f57600080fd5b600160a060020a03166000908152600c60205260409020805460ff19166001179055565b60125490565b6016602052600090815260409020805460019091015460ff808316926101009004169083565b60135490565b6000600b82815481106138d457fe5b9060005260206000209060090201600701549050919050565b600060018281548110612c7657fe5b60016018828154811061390b57fe5b90600052602060002090602091828204019190066101000a81548160ff02191690831515021790555081600160a060020a03166108fc349081150290604051600060405180830381858888f1935050505015801561396857600080fd5b505050565b600160a060020a03811660009081526009602052604081205460ff16156128d2575060016128d6565b6003818154811061323457fe5b600160a060020a0381166000908152600460208181526040928390206001808201805486516002938216156101000260001901909116839004601f81018690048602820186019097528681526060968796879687968796879695908201946003830194830193600584019360060192918891830182828015613a665780601f10613a3b57610100808354040283529160200191613a66565b820191906000526020600020905b815481529060010190602001808311613a4957829003601f168201915b5050885460408051602060026001851615610100026000190190941693909304601f8101849004840282018401909252818152959b508a945092508401905082828015613af45780601f10613ac957610100808354040283529160200191613af4565b820191906000526020600020905b815481529060010190602001808311613ad757829003601f168201915b5050875460408051602060026001851615610100026000190190941693909304601f8101849004840282018401909252818152959a5089945092508401905082828015613b825780601f10613b5757610100808354040283529160200191613b82565b820191906000526020600020905b815481529060010190602001808311613b6557829003601f168201915b5050865460408051602060026001851615610100026000190190941693909304601f810184900484028201840190925281815295995088945092508401905082828015613c105780601f10613be557610100808354040283529160200191613c10565b820191906000526020600020905b815481529060010190602001808311613bf357829003601f168201915b5050855460408051602060026001851615610100026000190190941693909304601f810184900484028201840190925281815295985087945092508401905082828015613c9e5780601f10613c7357610100808354040283529160200191613c9e565b820191906000526020600020905b815481529060010190602001808311613c8157829003601f168201915b5050845460408051602060026001851615610100026000190190941693909304601f810184900484028201840190925281815295975086945092508401905082828015613d2c5780601f10613d0157610100808354040283529160200191613d2c565b820191906000526020600020905b815481529060010190602001808311613d0f57829003601f168201915b5050505050905095509550955095509550955091939550919395565b336000908152600a602052604090205460ff161515600114613d6957600080fd5b3360009081526008602052604090205460ff161515600114613d8a57600080fd5b601380546001908101909155600b8054600e60209081526040805161012081018252948301808652338684019081529186018c8152606087018c9052608087018b9052428a0160a0880152600060c0880181905260e088018a905261010088018990528287559590955285517f0175b7a638427703f0dbe7bb9bbf987a2551717b34e79f33b5b1008d1fa01db9600990950294850190815591517f0175b7a638427703f0dbe7bb9bbf987a2551717b34e79f33b5b1008d1fa01dba8501805473ffffffffffffffffffffffffffffffffffffffff1916600160a060020a03909216919091179055935180519495869590949293613eab937f0175b7a638427703f0dbe7bb9bbf987a2551717b34e79f33b5b1008d1fa01dbb01920190614a3c565b50606082015160038201556080820151600482015560a0820151600582015560c082015160068201805460ff191691151591909117905560e08201516007820155610100909101516008909101555050505050505050565b6000600b8281548110612c2557fe5b60006001828154811061291857fe5b600f5481565b6000600182815481106138d457fe5b336000908152600a602052604090205460ff161515600114613f5757600080fd5b3360009081526008602052604090205460ff161515600114613f7857600080fd5b601580546001908101909155600b805483908110613f9257fe5b60009182526020808320600992909202909101600601805460ff19908116941515949094179055604080516060808201835284825281840185815282840186815288875260168652848720935184549251929098169715159790971761ff00191661010091151582021783559551600192830155601780548084019091557fc624b66cc0138b8fabc209247f72d758e1cf3343756d543badbf24212bed8c1585820401805460ff601f9384168a0a81021990911690915560188054808601825597527fb13d2d76d1f4b7be834882e410b3e3a8afaf69f83600ae24db354391d2378d2e8688040180549790921690970a90960219909416909455805161012081018252338152600160a060020a0387169281019290925260155490820152600b80549192830191859081106140c357fe5b600091825260209182902060026009909202018101805460408051601f60001961010060018616150201909316949094049182018590048502840185019052808352919290919083018282801561415b5780601f106141305761010080835404028352916020019161415b565b820191906000526020600020905b81548152906001019060200180831161413e57829003601f168201915b50505050508152602001600b848154811061417257fe5b9060005260206000209060090201600301548152602001600b848154811061419657fe5b9060005260206000209060090201600401548152602001600b84815481106141ba57fe5b9060005260206000209060090201600501548152602001600b84815481106141de57fe5b9060005260206000209060090201600701548152602001600b848154811061420257fe5b60009182526020808320600992830201600801549093528454600180820180885596845292849020855191909202909101805473ffffffffffffffffffffffffffffffffffffffff19908116600160a060020a03938416178255858501519382018054909116939092169290921790556040830151600282015560608301518051919261429792600385019290910190614a3c565b506080820151600482015560a0820151600582015560c0820151600682015560e082015160078201556101009091015160089091015550604051600160a060020a038316903480156108fc02916000818181858888f193505050501580156142fe57600080fd5b5060016017828154811061430e57fe5b90600052602060002090602091828204019190066101000a81548160ff0219169083151502179055505050565b6004602090815260009182526040918290208054600180830180548651600261010094831615949094026000190190911692909204601f8101869004860283018601909652858252600160a060020a039092169492939092908301828280156143e55780601f106143ba576101008083540402835291602001916143e5565b820191906000526020600020905b8154815290600101906020018083116143c857829003601f168201915b50505060028085018054604080516020601f60001961010060018716150201909416959095049283018590048502810185019091528181529596959450909250908301828280156144775780601f1061444c57610100808354040283529160200191614477565b820191906000526020600020905b81548152906001019060200180831161445a57829003601f168201915b5050505060038301805460408051602060026001851615610100026000190190941693909304601f81018490048402820184019092528181529495949350908301828280156133905780601f1061336557610100808354040283529160200191613390565b600160a060020a03811660009081526006602081815260408084206002808201546001808401805486519281161561010002600019011693909304601f810187900487028201870190955284815260609796889687968796879695946003820194600483019460058401949390910192889183018282801561459f5780601f106145745761010080835404028352916020019161459f565b820191906000526020600020905b81548152906001019060200180831161458257829003601f168201915b5050875460408051602060026001851615610100026000190190941693909304601f8101849004840282018401909252818152959b5089945092508401905082828015613b825780601f10613b5757610100808354040283529160200191613b82565b3360009081526007602052604090205460ff168015614637575033600081815260046020526040902054600160a060020a0316145b8015614671575033600160a060020a03166001828154811061465557fe5b6000918252602090912060099091020154600160a060020a0316145b61467a57600080fd5b6000908152601660205260409020805461ff001916610100179055565b6000600182815481106146a657fe5b9060005260206000209060090201600601549050919050565b60125481565b60026020818152600092835260409283902080546001808301805487519281161561010002600019011695909504601f81018590048502820185019096528581529094919390929091908301828280156147605780601f1061473557610100808354040283529160200191614760565b820191906000526020600020905b81548152906001019060200180831161474357829003601f168201915b505050506002838101546003850180546040805160206001841615610100026000190190931695909504601f8101839004830286018301909152808552959692959294509091908301828280156147f85780601f106147cd576101008083540402835291602001916147f8565b820191906000526020600020905b8154815290600101906020018083116147db57829003601f168201915b5050505050905084565b60006001828154811061370757fe5b600e6020526000908152604090205460ff1681565b3360009081526007602052604090205460ff16801561485b575033600081815260046020526040902054600160a060020a0316145b61486457600080fd5b336000908152600460209081526040909120875161488a92600190920191890190614a3c565b5033600090815260046020908152604090912086516148b192600290920191880190614a3c565b5033600090815260046020908152604090912085516148d892600390920191870190614a3c565b5033600090815260046020818152604090922085516148ff93919092019190860190614a3c565b50336000908152600460209081526040909120835161492692600590920191850190614a3c565b50336000908152600460209081526040909120825161382792600690920191840190614a3c565b600054600160a060020a0316331461496457600080fd5b60008181526016602052604090205460ff16151560011480156149a0575060008181526016602052604090205460ff6101009091041615156001145b6149a957600080fd5b6016600082815260200190815260200160002060010154600182815481106149cd57fe5b600091825260209091206006600990920201018054909101905550565b60076020526000908152604090205460ff1681565b60086020526000908152604090205460ff1681565b600060018281548110614a2357fe5b9060005260206000209060090201600201549050919050565b828054600181600116156101000203166002900490600052602060002090601f016020900481019282601f10614a7d57805160ff1916838001178555614aaa565b82800160010185558215614aaa579182015b82811115614aaa578251825591602001919060010190614a8f565b50614ab6929150614aba565b5090565b612c1391905b80821115614ab65760008155600101614ac056fea265627a7a7231582045021f6e02d9fec31e1e0417cb00bff8526050bb036108c2b6b47c48515ad37364736f6c63430005100032",
  "source": "// SPDX-License-Identifier: GPL-3.0\npragma solidity >= 0.5.2;\n// pragma experimental ABIEncoderV2;\ncontract Farm{\n    address public contract_admin;\n\n    constructor() public{\n        contract_admin = msg.sender;\n        add_admin(\"Inspector 1\", 45, \"Tehsil Manager\");\n    }\n\n    struct CropRequirement {\n        uint id;\n        address business;\n        string crop_name;\n        uint quantity_in_kg;\n        uint price_per_kg;\n        uint delivery_time;\n        bool status;//for tracking whether this crop requirement is completed or not.\n        uint totalPrice;\n        uint advancedPayment;\n    }\n\n    struct admin {\n        uint256 id;\n        string name;\n        uint256 age;\n        string designation;\n    }\n    \n    struct farmer {\n        address id;\n        string name;\n        uint256 age;\n        string city;\n        string aadharNumber;\n        string panNumber;\n        string land_document;\n    }\n\n    struct business {\n        address id;\n        string business_name;\n        string city;\n        string companyRegistrationNumber;\n        string GSTnumber;\n        string document;\n        string email;\n    }\n    \n    struct farmContract {\n        address business;\n        address farmer;\n        uint id;\n        string crop_name;\n        uint quantity_in_kg;\n        uint price_per_kg;\n        uint deadline;\n        uint totalPrice;\n        uint advancedPayment;\n    }\n\n    farmContract[] public Contracts;\n    \n    mapping(uint256 => admin) public InspectorMapping;\n\n    address[] public businesses;\n    mapping(address => business) public businessMapping;\n    \n\n    address[] public farmers;\n    mapping(address => farmer) public farmerMapping;\n\n    mapping(address => bool) public RegisteredAddressMapping;\n    mapping(address => bool) public RegisteredBusinessMapping;\n    mapping(address => bool) public RegisteredFarmerMapping;\n    mapping(address => bool) public Verification;\n    \n    // mapping(address => CropRequirement[]) public CropReqMap;//This map is for storing CropRequirements of particular company.\n    CropRequirement[] public CropReqMap;\n    mapping(address => bool) public rejection;\n\n    mapping(uint256 => address) public requestMapping;  \n    mapping(uint256 => bool) public requested;  \n    \n    uint256 public contractsCount = 5;\n    uint256 public inspectorsCount;\n    uint256 public farmersCount;\n    uint256 public businessCount;\n    uint256 public CropReqMapCount;\n    uint256 public totalRequest;\n\n    function getBusinessCount() public view returns(uint256){\n        return businessCount;\n    }\n\n    function getInspectorCount() public view returns(uint256){\n        return inspectorsCount;\n    }\n\n    function getFarmersCount() public view returns(uint256){\n        return farmersCount;\n    }\n    function getCropReqCount() public view returns(uint256){\n        return CropReqMapCount;\n    }\n\n    function getTotalRequestCount() public view returns(uint256){\n        return totalRequest;\n    }\n\n    // function getRequestCount(uint index) public view returns(uint256) {\n    //     return requestMapping[index].length;\n    // } \n\n    function add_admin(string memory _name, uint256 _age, string memory _designation) private{\n        inspectorsCount++;\n        InspectorMapping[inspectorsCount] = admin(\n            inspectorsCount,\n            _name,\n            _age,\n            _designation\n        );\n    }\n\n    function addFarmer( string memory name,\n                        uint256 age,\n                        string memory city,\n                        string memory aadharNumber,\n                        string memory panNumber,\n                        string memory land_document\n    ) public {\n        require(!RegisteredAddressMapping[msg.sender]);\n        farmersCount++;\n        farmers.push(msg.sender);\n        RegisteredAddressMapping[msg.sender] = true;\n        RegisteredFarmerMapping[msg.sender] = true;\n        farmerMapping[msg.sender] = farmer( msg.sender, name, age, city, aadharNumber, panNumber, land_document);\n    }\n\n    function updateFarmer( string memory _name,\n                        uint256 _age,\n                        string memory _city,\n                        string memory _aadharNumber,\n                        string memory _panNumber,\n                        string memory _land_document\n    ) public {\n        require(RegisteredAddressMapping[msg.sender] && farmerMapping[msg.sender].id == msg.sender);\n\n        \n        farmerMapping[msg.sender].name = _name;\n        farmerMapping[msg.sender].age = _age;\n        farmerMapping[msg.sender].city = _city;\n        farmerMapping[msg.sender].aadharNumber = _aadharNumber;\n        farmerMapping[msg.sender].panNumber = _panNumber;\n        farmerMapping[msg.sender].land_document = _land_document;\n    }\n\n    function getFarmers() public view returns (address[] memory) {\n        return (farmers);\n    }\n\n    //here we are returning the whole farmer struct to stop stack too deep error\n    function getFarmerDetails(address i) public view returns (string memory, uint, string memory, string memory, string memory, string memory) {\n        return (farmerMapping[i].name, \n                farmerMapping[i].age, \n                farmerMapping[i].city, \n                farmerMapping[i].aadharNumber, \n                farmerMapping[i].panNumber, \n                farmerMapping[i].land_document);\n    }\n\n    function addBusiness(string memory business_name,\n        string memory city,\n        string memory companyRegistrationNumber,\n        string memory GSTnumber,\n        string memory document,\n        string memory email\n    ) public {\n        require(!RegisteredAddressMapping[msg.sender]);\n\n        businessCount++;\n        businesses.push(msg.sender);\n        RegisteredAddressMapping[msg.sender] = true;\n        RegisteredBusinessMapping[msg.sender] = true;\n        businessMapping[msg.sender] = business( msg.sender, business_name, city, companyRegistrationNumber, GSTnumber, document, email);\n    }\n\n    function updateBusiness(string memory _business_name,\n        string memory _city,\n        string memory _companyRegistrationNumber,\n        string memory _GSTnumber,\n        string memory _document,\n        string memory _email\n    ) public {\n        require(RegisteredAddressMapping[msg.sender] && businessMapping[msg.sender].id == msg.sender);\n\n        businessMapping[msg.sender].business_name = _business_name;\n        businessMapping[msg.sender].city = _city;\n        businessMapping[msg.sender].companyRegistrationNumber = _companyRegistrationNumber;\n        businessMapping[msg.sender].GSTnumber = _GSTnumber;\n        businessMapping[msg.sender].document = _document;\n        businessMapping[msg.sender].email = _email;\n    }\n\n    function getBusinesses() public view returns (address[] memory) {\n        return (businesses);\n    }\n\n    function getBusinessDetails(address i)\n        public\n        view\n        returns (\n            string memory,\n            string memory,\n            string memory,\n            string memory,\n            string memory,\n            string memory\n        )\n    {\n        return (\n            businessMapping[i].business_name,\n            businessMapping[i].city,\n            businessMapping[i].companyRegistrationNumber,\n            businessMapping[i].GSTnumber,\n            businessMapping[i].document,\n            businessMapping[i].email\n        );\n    }\n\n    function isFarmer(address _id) public view returns (bool) {\n        if (RegisteredFarmerMapping[_id]) {\n            return true;\n        } else {\n            // Handle the case where it's not verified\n            return false;\n        }\n    }\n\n    function isAdmin1 (address _id) public view returns (bool) {\n        if(_id == contract_admin) return true;\n        else return false;\n    }\n\n    function isBusiness(address _id) public view returns (bool) {\n        if (RegisteredBusinessMapping[_id]) {\n            return true;\n        } else {\n            // Handle the case where it's not verified\n            return false;\n        }\n    }\n\n    modifier isAdmin {\n        require(msg.sender == contract_admin);\n        _;\n    }\n\n    modifier isVerified{\n        require(Verification[msg.sender] == true);\n        _;\n    }\n\n    function isVerified1(address _id) public view returns (bool) {\n        if(Verification[_id] == true) return true; \n        else return false;\n    }\n\n    function verify(address walletID) isAdmin public{\n        Verification[walletID] = true;\n    }\n\n    function reject(address walletID) isAdmin public {\n        rejection[walletID] = true;\n    }\n\n    function isRejected(address walletID) public view returns (bool)  {\n        if(rejection[walletID]) return true;\n        else return false;\n    }\n\n    function addCropRequirement (\n        string memory crop_name,\n        uint quantity_in_kg,\n        uint price_per_kg,\n        uint256 deliveryTime, \n        uint256 _total,\n        uint256 _advPayment) public isVerified{\n            require(RegisteredBusinessMapping[msg.sender] == true);\n            \n            CropReqMapCount++;\n            uint id_temp = CropReqMap.length + 1;\n            // CropReqMapComplete[id_temp] = false;\n            requested[CropReqMap.length] == false;\n            CropReqMap.push(CropRequirement(id_temp, msg.sender, crop_name, quantity_in_kg, price_per_kg, block.timestamp+deliveryTime, false, _total, _advPayment));    \n    }\n\n    //below set of functions is for getting information about cropRequirement.\n    function getCropRequirementBusiness(uint256 i) public view returns(address){\n        return CropReqMap[i].business;\n    }\n    \n    function getCropRequirementCropName(uint256 i) public view returns(string memory){\n        return CropReqMap[i].crop_name;\n    }\n    function getCropRequirementQuantity(uint256 i) public view returns(uint256){\n        return CropReqMap[i].quantity_in_kg;\n    }\n    function getCropRequirementPrice(uint256 i) public view returns(uint256){\n        return CropReqMap[i].price_per_kg;\n    }\n    function getCropRequirementDelTime(uint256 i) public view returns(uint256){\n        return CropReqMap[i].delivery_time;\n    }\n    function getCropRequirementStatus(uint256 i) public view returns (bool){\n        return CropReqMap[i].status;\n    }\n    function getCropRequirementTotalPrice(uint256 i) public view returns (uint256) {\n        return CropReqMap[i].totalPrice;\n    }\n    function getCropRequirementAdvPayment(uint256 i) public view returns (uint256) {\n        return CropReqMap[i].advancedPayment;\n    }\n    //end\n\n    function requestContract(uint256 i) public isVerified{\n        require(RegisteredFarmerMapping[msg.sender] == true && requested[i] == false);\n        totalRequest++;\n        requestMapping[i] = msg.sender;  \n        requested[i] = true;\n    }\n\n    function isRequested(uint256 index) public view returns (bool){\n        if(requested[index] == false) return false;\n        if(requested[index] == true) return true;\n    }\n\n    uint256 ContractsCount = 0;\n\n    struct forExtension {\n        bool farmerReq;\n        bool businessAcceptance;\n        uint256 time;\n    }\n    \n    mapping(uint256 => forExtension) public extensionReq;//This array is for extension requests.\n    bool[] public advancedPaymentReceived; \n    bool[] public PaymentReceived; \n\n\n    function signContract(address payable farmerAddress, uint256 i) public payable isVerified{\n        require(RegisteredBusinessMapping[msg.sender] == true);\n\n        ContractsCount++;\n        CropReqMap[i].status = true;\n        extensionReq[i] = forExtension(false, false, 0);\n        advancedPaymentReceived.push(false);\n        PaymentReceived.push(false);\n        Contracts.push(farmContract(msg.sender, \n                                    farmerAddress, \n                                    ContractsCount, //id of contract\n                                    CropReqMap[i].crop_name, \n                                    CropReqMap[i].quantity_in_kg, \n                                    CropReqMap[i].price_per_kg, \n                                    CropReqMap[i].delivery_time, \n                                    CropReqMap[i].totalPrice, \n                                    CropReqMap[i].advancedPayment));\n        \n        //Triggering advanced payment\n        //we have to take care of msg.value from frontend.\n            /* First access the advancedPayment value from CropReqMap using index i \n               and pass it using web3.js frontend(refer \"makePayment.js\" for this)*/\n        farmerAddress.transfer(msg.value);\n        advancedPaymentReceived[i] = true;\n    }\n\n\n    //below are the functions for displaying contracts data to the frontend\n    function getContractsCount() public view returns(uint256) {\n        return ContractsCount;\n    }\n    function getContractBusiness(uint i) public view returns (address) {\n        return Contracts[i].business;\n    }\n    function getContractFarmer(uint i) public view returns (address) {\n        return Contracts[i].farmer;\n    }\n    function getContractId(uint i) public view returns (uint) {\n        return Contracts[i].id;\n    }\n    function getContractCropName(uint i) public view returns (string memory) {\n        return Contracts[i].crop_name;\n    }\n    function getContractQuantity(uint i) public view returns (uint) {\n        return Contracts[i].quantity_in_kg;\n    }\n    function getContractPrice(uint i) public view returns (uint) {\n        return Contracts[i].price_per_kg;\n    }\n    function getContractDeadLine(uint i) public view returns (uint) {\n        return Contracts[i].deadline;\n    }\n    function getContractTotalPrice(uint i) public view returns (uint) {\n        return Contracts[i].totalPrice;\n    }\n    function getContractAdvPayment(uint i) public view returns (uint) {\n        return Contracts[i].advancedPayment;\n    }\n    //----------end--------------(these functions will be used to display the contracts data to the frontend)\n\n\n\n    //Below Implementation is for extension part.\n    function requestExtension(uint _i, uint256 _time) public {\n        require(RegisteredAddressMapping[msg.sender] && farmerMapping[msg.sender].id == msg.sender && Contracts[_i].farmer == msg.sender);\n\n        extensionReq[_i].farmerReq = true;\n        extensionReq[_i].time = _time;\n    }\n\n    function getExtensionInformation(uint _i) public view returns (bool, bool, uint) {\n        return (extensionReq[_i].farmerReq,\n                extensionReq[_i].businessAcceptance,\n                extensionReq[_i].time);\n    }\n\n    function acceptExtension(uint _i) public {\n        require(RegisteredAddressMapping[msg.sender] && businessMapping[msg.sender].id == msg.sender && Contracts[_i].business == msg.sender);\n        extensionReq[_i].businessAcceptance = true;\n    }\n\n    function updateContract(uint _i) public isAdmin {\n        require(extensionReq[_i].farmerReq == true && extensionReq[_i].businessAcceptance == true);\n        Contracts[_i].deadline += extensionReq[_i].time;\n    }\n\n    //function for remaining payment\n    function payRemaining(address payable _farmer, uint256 id) public payable {\n        PaymentReceived[id] = true;\n        _farmer.transfer(msg.value);\n    }\n\n    function isComplete(uint256 id) public view returns (bool) {\n        return PaymentReceived[id];\n    }\n    \n}",
  "sourcePath": "/home/ashwin/Contract Farming Project/contracts/Farm.sol",
  "compiler": {
    "name": "solc",
    "version": "0.5.16+commit.9c3226ce.Emscripten.clang"
  },
  "schemaVersion": "3.4.16",
  "updatedAt": "2024-04-16T17:00:13.787Z",
  "networkType": "ethereum",
  "devdoc": {
    "methods": {}
  },
  "userdoc": {
    "methods": {}
  }
}